{
  "contractName": "Alphav3",
  "abi": [
    {
      "inputs": [],
      "stateMutability": "nonpayable",
      "type": "constructor"
    },
    {
      "anonymous": false,
      "inputs": [
        {
          "indexed": true,
          "internalType": "address",
          "name": "owner",
          "type": "address"
        },
        {
          "indexed": true,
          "internalType": "address",
          "name": "approved",
          "type": "address"
        },
        {
          "indexed": true,
          "internalType": "uint256",
          "name": "tokenId",
          "type": "uint256"
        }
      ],
      "name": "Approval",
      "type": "event"
    },
    {
      "anonymous": false,
      "inputs": [
        {
          "indexed": true,
          "internalType": "address",
          "name": "owner",
          "type": "address"
        },
        {
          "indexed": true,
          "internalType": "address",
          "name": "operator",
          "type": "address"
        },
        {
          "indexed": false,
          "internalType": "bool",
          "name": "approved",
          "type": "bool"
        }
      ],
      "name": "ApprovalForAll",
      "type": "event"
    },
    {
      "anonymous": false,
      "inputs": [
        {
          "indexed": true,
          "internalType": "address",
          "name": "previousOwner",
          "type": "address"
        },
        {
          "indexed": true,
          "internalType": "address",
          "name": "newOwner",
          "type": "address"
        }
      ],
      "name": "OwnershipTransferred",
      "type": "event"
    },
    {
      "anonymous": false,
      "inputs": [
        {
          "indexed": true,
          "internalType": "address",
          "name": "from",
          "type": "address"
        },
        {
          "indexed": true,
          "internalType": "address",
          "name": "to",
          "type": "address"
        },
        {
          "indexed": true,
          "internalType": "uint256",
          "name": "tokenId",
          "type": "uint256"
        }
      ],
      "name": "Transfer",
      "type": "event"
    },
    {
      "inputs": [],
      "name": "MAX_SUPPLY",
      "outputs": [
        {
          "internalType": "uint256",
          "name": "",
          "type": "uint256"
        }
      ],
      "stateMutability": "view",
      "type": "function",
      "constant": true
    },
    {
      "inputs": [],
      "name": "PRESALE_MINT_LIMIT",
      "outputs": [
        {
          "internalType": "uint256",
          "name": "",
          "type": "uint256"
        }
      ],
      "stateMutability": "view",
      "type": "function",
      "constant": true
    },
    {
      "inputs": [],
      "name": "PRESALE_MINT_PRICE",
      "outputs": [
        {
          "internalType": "uint256",
          "name": "",
          "type": "uint256"
        }
      ],
      "stateMutability": "view",
      "type": "function",
      "constant": true
    },
    {
      "inputs": [],
      "name": "PUBLIC_MINT_LIMIT",
      "outputs": [
        {
          "internalType": "uint256",
          "name": "",
          "type": "uint256"
        }
      ],
      "stateMutability": "view",
      "type": "function",
      "constant": true
    },
    {
      "inputs": [],
      "name": "PUBLIC_MINT_PRICE",
      "outputs": [
        {
          "internalType": "uint256",
          "name": "",
          "type": "uint256"
        }
      ],
      "stateMutability": "view",
      "type": "function",
      "constant": true
    },
    {
      "inputs": [
        {
          "internalType": "address",
          "name": "to",
          "type": "address"
        },
        {
          "internalType": "uint256",
          "name": "tokenId",
          "type": "uint256"
        }
      ],
      "name": "approve",
      "outputs": [],
      "stateMutability": "nonpayable",
      "type": "function"
    },
    {
      "inputs": [
        {
          "internalType": "address",
          "name": "owner",
          "type": "address"
        }
      ],
      "name": "balanceOf",
      "outputs": [
        {
          "internalType": "uint256",
          "name": "",
          "type": "uint256"
        }
      ],
      "stateMutability": "view",
      "type": "function",
      "constant": true
    },
    {
      "inputs": [],
      "name": "baseURI",
      "outputs": [
        {
          "internalType": "string",
          "name": "",
          "type": "string"
        }
      ],
      "stateMutability": "view",
      "type": "function",
      "constant": true
    },
    {
      "inputs": [
        {
          "internalType": "uint256",
          "name": "tokenId",
          "type": "uint256"
        }
      ],
      "name": "getApproved",
      "outputs": [
        {
          "internalType": "address",
          "name": "",
          "type": "address"
        }
      ],
      "stateMutability": "view",
      "type": "function",
      "constant": true
    },
    {
      "inputs": [
        {
          "internalType": "address",
          "name": "owner",
          "type": "address"
        },
        {
          "internalType": "address",
          "name": "operator",
          "type": "address"
        }
      ],
      "name": "isApprovedForAll",
      "outputs": [
        {
          "internalType": "bool",
          "name": "",
          "type": "bool"
        }
      ],
      "stateMutability": "view",
      "type": "function",
      "constant": true
    },
    {
      "inputs": [],
      "name": "merkleRoot",
      "outputs": [
        {
          "internalType": "bytes32",
          "name": "",
          "type": "bytes32"
        }
      ],
      "stateMutability": "view",
      "type": "function",
      "constant": true
    },
    {
      "inputs": [],
      "name": "name",
      "outputs": [
        {
          "internalType": "string",
          "name": "",
          "type": "string"
        }
      ],
      "stateMutability": "view",
      "type": "function",
      "constant": true
    },
    {
      "inputs": [],
      "name": "nextOwnerToExplicitlySet",
      "outputs": [
        {
          "internalType": "uint256",
          "name": "",
          "type": "uint256"
        }
      ],
      "stateMutability": "view",
      "type": "function",
      "constant": true
    },
    {
      "inputs": [],
      "name": "owner",
      "outputs": [
        {
          "internalType": "address",
          "name": "",
          "type": "address"
        }
      ],
      "stateMutability": "view",
      "type": "function",
      "constant": true
    },
    {
      "inputs": [
        {
          "internalType": "uint256",
          "name": "tokenId",
          "type": "uint256"
        }
      ],
      "name": "ownerOf",
      "outputs": [
        {
          "internalType": "address",
          "name": "",
          "type": "address"
        }
      ],
      "stateMutability": "view",
      "type": "function",
      "constant": true
    },
    {
      "inputs": [],
      "name": "renounceOwnership",
      "outputs": [],
      "stateMutability": "nonpayable",
      "type": "function"
    },
    {
      "inputs": [
        {
          "internalType": "address",
          "name": "from",
          "type": "address"
        },
        {
          "internalType": "address",
          "name": "to",
          "type": "address"
        },
        {
          "internalType": "uint256",
          "name": "tokenId",
          "type": "uint256"
        }
      ],
      "name": "safeTransferFrom",
      "outputs": [],
      "stateMutability": "nonpayable",
      "type": "function"
    },
    {
      "inputs": [
        {
          "internalType": "address",
          "name": "from",
          "type": "address"
        },
        {
          "internalType": "address",
          "name": "to",
          "type": "address"
        },
        {
          "internalType": "uint256",
          "name": "tokenId",
          "type": "uint256"
        },
        {
          "internalType": "bytes",
          "name": "_data",
          "type": "bytes"
        }
      ],
      "name": "safeTransferFrom",
      "outputs": [],
      "stateMutability": "nonpayable",
      "type": "function"
    },
    {
      "inputs": [],
      "name": "saleFlag",
      "outputs": [
        {
          "internalType": "uint256",
          "name": "",
          "type": "uint256"
        }
      ],
      "stateMutability": "view",
      "type": "function",
      "constant": true
    },
    {
      "inputs": [
        {
          "internalType": "address",
          "name": "operator",
          "type": "address"
        },
        {
          "internalType": "bool",
          "name": "approved",
          "type": "bool"
        }
      ],
      "name": "setApprovalForAll",
      "outputs": [],
      "stateMutability": "nonpayable",
      "type": "function"
    },
    {
      "inputs": [
        {
          "internalType": "bytes4",
          "name": "interfaceId",
          "type": "bytes4"
        }
      ],
      "name": "supportsInterface",
      "outputs": [
        {
          "internalType": "bool",
          "name": "",
          "type": "bool"
        }
      ],
      "stateMutability": "view",
      "type": "function",
      "constant": true
    },
    {
      "inputs": [],
      "name": "symbol",
      "outputs": [
        {
          "internalType": "string",
          "name": "",
          "type": "string"
        }
      ],
      "stateMutability": "view",
      "type": "function",
      "constant": true
    },
    {
      "inputs": [
        {
          "internalType": "uint256",
          "name": "index",
          "type": "uint256"
        }
      ],
      "name": "tokenByIndex",
      "outputs": [
        {
          "internalType": "uint256",
          "name": "",
          "type": "uint256"
        }
      ],
      "stateMutability": "view",
      "type": "function",
      "constant": true
    },
    {
      "inputs": [
        {
          "internalType": "address",
          "name": "owner",
          "type": "address"
        },
        {
          "internalType": "uint256",
          "name": "index",
          "type": "uint256"
        }
      ],
      "name": "tokenOfOwnerByIndex",
      "outputs": [
        {
          "internalType": "uint256",
          "name": "",
          "type": "uint256"
        }
      ],
      "stateMutability": "view",
      "type": "function",
      "constant": true
    },
    {
      "inputs": [
        {
          "internalType": "uint256",
          "name": "tokenId",
          "type": "uint256"
        }
      ],
      "name": "tokenURI",
      "outputs": [
        {
          "internalType": "string",
          "name": "",
          "type": "string"
        }
      ],
      "stateMutability": "view",
      "type": "function",
      "constant": true
    },
    {
      "inputs": [],
      "name": "totalSupply",
      "outputs": [
        {
          "internalType": "uint256",
          "name": "",
          "type": "uint256"
        }
      ],
      "stateMutability": "view",
      "type": "function",
      "constant": true
    },
    {
      "inputs": [
        {
          "internalType": "address",
          "name": "from",
          "type": "address"
        },
        {
          "internalType": "address",
          "name": "to",
          "type": "address"
        },
        {
          "internalType": "uint256",
          "name": "tokenId",
          "type": "uint256"
        }
      ],
      "name": "transferFrom",
      "outputs": [],
      "stateMutability": "nonpayable",
      "type": "function"
    },
    {
      "inputs": [
        {
          "internalType": "address",
          "name": "newOwner",
          "type": "address"
        }
      ],
      "name": "transferOwnership",
      "outputs": [],
      "stateMutability": "nonpayable",
      "type": "function"
    },
    {
      "inputs": [
        {
          "internalType": "string",
          "name": "_base",
          "type": "string"
        }
      ],
      "name": "setBaseURI",
      "outputs": [],
      "stateMutability": "nonpayable",
      "type": "function"
    },
    {
      "inputs": [
        {
          "internalType": "uint256",
          "name": "_flag",
          "type": "uint256"
        }
      ],
      "name": "setSaleFlag",
      "outputs": [],
      "stateMutability": "nonpayable",
      "type": "function"
    },
    {
      "inputs": [
        {
          "internalType": "bytes32",
          "name": "_new",
          "type": "bytes32"
        }
      ],
      "name": "setMerkleRoot",
      "outputs": [],
      "stateMutability": "nonpayable",
      "type": "function"
    },
    {
      "inputs": [
        {
          "internalType": "uint256",
          "name": "_quantity",
          "type": "uint256"
        }
      ],
      "name": "mint",
      "outputs": [],
      "stateMutability": "payable",
      "type": "function",
      "payable": true
    },
    {
      "inputs": [
        {
          "internalType": "uint256",
          "name": "_quantity",
          "type": "uint256"
        },
        {
          "internalType": "bytes32[]",
          "name": "_proof",
          "type": "bytes32[]"
        }
      ],
      "name": "mintWhitelist",
      "outputs": [],
      "stateMutability": "payable",
      "type": "function",
      "payable": true
    },
    {
      "inputs": [
        {
          "internalType": "uint256",
          "name": "_quantity",
          "type": "uint256"
        },
        {
          "internalType": "address",
          "name": "_to",
          "type": "address"
        }
      ],
      "name": "mintOwner",
      "outputs": [],
      "stateMutability": "nonpayable",
      "type": "function"
    },
    {
      "inputs": [],
      "name": "withdraw",
      "outputs": [],
      "stateMutability": "nonpayable",
      "type": "function"
    },
    {
      "inputs": [],
      "name": "withdrawSoldOut",
      "outputs": [],
      "stateMutability": "nonpayable",
      "type": "function"
    }
  ],
  "bytecode": "0x60c0604052600060015560006008553480156200001b57600080fd5b5060405180604001604052806007815260200166416c706861763360c81b81525060405180604001604052806007815260200166414c504841563360c81b8152506032610d056200007b620000756200017e60201b60201c565b62000182565b60008111620000e85760405162461bcd60e51b815260206004820152602e60248201527f455243373231413a20636f6c6c656374696f6e206d757374206861766520612060448201526d6e6f6e7a65726f20737570706c7960901b60648201526084015b60405180910390fd5b600082116200014a5760405162461bcd60e51b815260206004820152602760248201527f455243373231413a206d61782062617463682073697a65206d757374206265206044820152666e6f6e7a65726f60c81b6064820152608401620000df565b600262000158858262000277565b50600362000167848262000277565b5060a0919091526080525050600160095562000343565b3390565b600080546001600160a01b038381166001600160a01b0319831681178455604051919092169283917f8be0079c531659141344cd1fd0a4f28419497f9722a3daafe3b4186f6b6457e09190a35050565b634e487b7160e01b600052604160045260246000fd5b600181811c90821680620001fd57607f821691505b6020821081036200021e57634e487b7160e01b600052602260045260246000fd5b50919050565b601f8211156200027257600081815260208120601f850160051c810160208610156200024d5750805b601f850160051c820191505b818110156200026e5782815560010162000259565b5050505b505050565b81516001600160401b03811115620002935762000293620001d2565b620002ab81620002a48454620001e8565b8462000224565b602080601f831160018114620002e35760008415620002ca5750858301515b600019600386901b1c1916600185901b1785556200026e565b600085815260208120601f198616915b828110156200031457888601518255948401946001909101908401620002f3565b5085821015620003335787850151600019600388901b60f8161c191681555b5050505050600190811b01905550565b60805160a051612d126200037460003960008181611e2001528181611e4a015261227c015260005050612d126000f3fe60806040526004361061020f5760003560e01c80636352211e11610118578063a0712d68116100a0578063c87b56dd1161006f578063c87b56dd1461059f578063d7224ba0146105bf578063e985e9c5146105d5578063f2fde38b1461061e578063f5ebec801461063e57600080fd5b8063a0712d6814610537578063a22cb4651461054a578063b88d4fde1461056a578063bceae77b1461058a57600080fd5b8063715018a6116100e7578063715018a6146104af5780637cb64759146104c45780638da5cb5b146104e457806395d89b41146105025780639f15df121461051757600080fd5b80636352211e1461043e5780636bde26271461045e5780636c0360eb1461047a57806370a082311461048f57600080fd5b80632a234e571161019b5780633ccfd60b1161016a5780633ccfd60b146103b357806342842e0e146103c85780634f6ccce7146103e857806355f804b314610408578063614bfc551461042857600080fd5b80632a234e571461034c5780632eb4a7ab146103675780632f745c591461037d57806332cb6b0c1461039d57600080fd5b8063095ea7b3116101e2578063095ea7b3146102b85780630dd31d02146102d857806318160ddd146102ed57806323b872dd1461030c57806327b6fb331461032c57600080fd5b806301ffc9a714610214578063061431a81461024957806306fdde031461025e578063081812fc14610280575b600080fd5b34801561022057600080fd5b5061023461022f366004612524565b610653565b60405190151581526020015b60405180910390f35b61025c610257366004612541565b6106c0565b005b34801561026a57600080fd5b506102736108bd565b6040516102409190612618565b34801561028c57600080fd5b506102a061029b36600461262b565b61094f565b6040516001600160a01b039091168152602001610240565b3480156102c457600080fd5b5061025c6102d3366004612660565b6109da565b3480156102e457600080fd5b5061025c610aec565b3480156102f957600080fd5b506001545b604051908152602001610240565b34801561031857600080fd5b5061025c61032736600461268a565b610eb8565b34801561033857600080fd5b5061025c61034736600461262b565b610ec3565b34801561035857600080fd5b506102fe66e6ed27d666800081565b34801561037357600080fd5b506102fe600b5481565b34801561038957600080fd5b506102fe610398366004612660565b610ef2565b3480156103a957600080fd5b506102fe610d0581565b3480156103bf57600080fd5b5061025c611069565b3480156103d457600080fd5b5061025c6103e336600461268a565b6112a0565b3480156103f457600080fd5b506102fe61040336600461262b565b6112bb565b34801561041457600080fd5b5061025c6104233660046126c6565b611324565b34801561043457600080fd5b506102fe600a5481565b34801561044a57600080fd5b506102a061045936600461262b565b61135b565b34801561046a57600080fd5b506102fe67011c37937e08000081565b34801561048657600080fd5b5061027361136d565b34801561049b57600080fd5b506102fe6104aa366004612738565b6113fb565b3480156104bb57600080fd5b5061025c61148c565b3480156104d057600080fd5b5061025c6104df36600461262b565b6114c2565b3480156104f057600080fd5b506000546001600160a01b03166102a0565b34801561050e57600080fd5b506102736114f1565b34801561052357600080fd5b5061025c610532366004612753565b611500565b61025c61054536600461262b565b61156d565b34801561055657600080fd5b5061025c61056536600461277f565b6116b7565b34801561057657600080fd5b5061025c6105853660046127d1565b61177b565b34801561059657600080fd5b506102fe600381565b3480156105ab57600080fd5b506102736105ba36600461262b565b6117b4565b3480156105cb57600080fd5b506102fe60085481565b3480156105e157600080fd5b506102346105f03660046128ad565b6001600160a01b03918216600090815260076020908152604080832093909416825291909152205460ff1690565b34801561062a57600080fd5b5061025c610639366004612738565b611881565b34801561064a57600080fd5b506102fe600281565b60006001600160e01b031982166380ac58cd60e01b148061068457506001600160e01b03198216635b5e139f60e01b145b8061069f57506001600160e01b0319821663780e9d6360e01b145b806106ba57506301ffc9a760e01b6001600160e01b03198316145b92915050565b610d05836106cd60015490565b6106d791906128ed565b11156106fe5760405162461bcd60e51b81526004016106f590612905565b60405180910390fd5b600a546001146107415760405162461bcd60e51b815260206004820152600e60248201526d13525395125391d7d4105554d15160921b60448201526064016106f5565b61074b8282611919565b61078e5760405162461bcd60e51b815260206004820152601460248201527324a72b20a624a22fa6a2a925a622afa82927a7a360611b60448201526064016106f5565b336000908152600d60205260409020546002906107ac9085906128ed565b111561080b5760405162461bcd60e51b815260206004820152602860248201527f4d494e545f455843454544535f4c494d49545f414c4c4f5745445f464f525f5760448201526712125511531254d560c21b60648201526084016106f5565b60008311801561081c575060028311155b6108385760405162461bcd60e51b81526004016106f59061293c565b3461084a8466e6ed27d6668000612986565b11156108895760405162461bcd60e51b815260206004820152600e60248201526d414d4f554e545f544f4f5f4c4f5760901b60448201526064016106f5565b336000908152600d6020526040812080548592906108a89084906128ed565b909155506108b8905033846119a0565b505050565b6060600280546108cc906129a5565b80601f01602080910402602001604051908101604052809291908181526020018280546108f8906129a5565b80156109455780601f1061091a57610100808354040283529160200191610945565b820191906000526020600020905b81548152906001019060200180831161092857829003601f168201915b5050505050905090565b600061095c826001541190565b6109be5760405162461bcd60e51b815260206004820152602d60248201527f455243373231413a20617070726f76656420717565727920666f72206e6f6e6560448201526c3c34b9ba32b73a103a37b5b2b760991b60648201526084016106f5565b506000908152600660205260409020546001600160a01b031690565b60006109e58261135b565b9050806001600160a01b0316836001600160a01b031603610a535760405162461bcd60e51b815260206004820152602260248201527f455243373231413a20617070726f76616c20746f2063757272656e74206f776e60448201526132b960f11b60648201526084016106f5565b336001600160a01b0382161480610a6f5750610a6f81336105f0565b610ae15760405162461bcd60e51b815260206004820152603960248201527f455243373231413a20617070726f76652063616c6c6572206973206e6f74206f60448201527f776e6572206e6f7220617070726f76656420666f7220616c6c0000000000000060648201526084016106f5565b6108b88383836119ba565b6000546001600160a01b03163314610b165760405162461bcd60e51b81526004016106f5906129df565b600260095403610b685760405162461bcd60e51b815260206004820152601f60248201527f5265656e7472616e637947756172643a207265656e7472616e742063616c6c0060448201526064016106f5565b6002600955610d05610b7960015490565b14610bb55760405162461bcd60e51b815260206004820152600c60248201526b1393d517d4d3d31117d3d55560a21b60448201526064016106f5565b6000610bc4620186a047612a2a565b905060007318b94d7dac879511b0f2ee2947073b57fa11fb08610be9836161a8612986565b604051600081818185875af1925050503d8060008114610c25576040519150601f19603f3d011682016040523d82523d6000602084013e610c2a565b606091505b509091506000905073ec4f373a70d5bb5371df8a33951b898b7219f82c610c5384613b47612986565b604051600081818185875af1925050503d8060008114610c8f576040519150601f19603f3d011682016040523d82523d6000602084013e610c94565b606091505b5090915060009050734494949245c3c432177c66adf32e272477d6aafc610cbd85613b47612986565b604051600081818185875af1925050503d8060008114610cf9576040519150601f19603f3d011682016040523d82523d6000602084013e610cfe565b606091505b50909150600090507339680e7090002731b306a8ee8fae28072b84e586610d2786614e20612986565b604051600081818185875af1925050503d8060008114610d63576040519150601f19603f3d011682016040523d82523d6000602084013e610d68565b606091505b5090915060009050736e1af0e043c18ead53a5b9886d4901dd6b67a22f610d9187612b2a612986565b604051600081818185875af1925050503d8060008114610dcd576040519150601f19603f3d011682016040523d82523d6000602084013e610dd2565b606091505b509091506000905073e0c5123b0fd1a7d94bb8d84bbaf1026b699c6dc6610dfb88612b2a612986565b604051600081818185875af1925050503d8060008114610e37576040519150601f19603f3d011682016040523d82523d6000602084013e610e3c565b606091505b50909150600090507362a6958e4fbff46c0ecc64e2efde83f75d609dd2610e65896109f6612986565b604051600081818185875af1925050503d8060008114610ea1576040519150601f19603f3d011682016040523d82523d6000602084013e610ea6565b606091505b50506001600955505050505050505050565b6108b8838383611a16565b6000546001600160a01b03163314610eed5760405162461bcd60e51b81526004016106f5906129df565b600a55565b6000610efd836113fb565b8210610f565760405162461bcd60e51b815260206004820152602260248201527f455243373231413a206f776e657220696e646578206f7574206f6620626f756e604482015261647360f01b60648201526084016106f5565b6000610f6160015490565b905060008060005b83811015611009576000818152600460209081526040918290208251808401909352546001600160a01b038116808452600160a01b90910467ffffffffffffffff169183019190915215610fbc57805192505b876001600160a01b0316836001600160a01b031603610ff657868403610fe8575093506106ba92505050565b83610ff281612a3e565b9450505b508061100181612a3e565b915050610f69565b5060405162461bcd60e51b815260206004820152602e60248201527f455243373231413a20756e61626c6520746f2067657420746f6b656e206f662060448201526d0deeedccae440c4f240d2dcc8caf60931b60648201526084016106f5565b6000546001600160a01b031633146110935760405162461bcd60e51b81526004016106f5906129df565b6002600954036110e55760405162461bcd60e51b815260206004820152601f60248201527f5265656e7472616e637947756172643a207265656e7472616e742063616c6c0060448201526064016106f5565b6002600955610d056110f660015490565b1061112e5760405162461bcd60e51b815260206004820152600860248201526714d3d31117d3d55560c21b60448201526064016106f5565b600061113d620186a047612a2a565b905060007318b94d7dac879511b0f2ee2947073b57fa11fb08611162836161a8612986565b604051600081818185875af1925050503d806000811461119e576040519150601f19603f3d011682016040523d82523d6000602084013e6111a3565b606091505b509091506000905073ec4f373a70d5bb5371df8a33951b898b7219f82c6111cc84614ecf612986565b604051600081818185875af1925050503d8060008114611208576040519150601f19603f3d011682016040523d82523d6000602084013e61120d565b606091505b5090915060009050734494949245c3c432177c66adf32e272477d6aafc61123685614ecf612986565b604051600081818185875af1925050503d8060008114611272576040519150601f19603f3d011682016040523d82523d6000602084013e611277565b606091505b50909150600090507339680e7090002731b306a8ee8fae28072b84e586610d2786612710612986565b6108b88383836040518060200160405280600081525061177b565b60006112c660015490565b82106113205760405162461bcd60e51b815260206004820152602360248201527f455243373231413a20676c6f62616c20696e646578206f7574206f6620626f756044820152626e647360e81b60648201526084016106f5565b5090565b6000546001600160a01b0316331461134e5760405162461bcd60e51b81526004016106f5906129df565b600c6108b8828483612a9d565b600061136682611d9e565b5192915050565b600c805461137a906129a5565b80601f01602080910402602001604051908101604052809291908181526020018280546113a6906129a5565b80156113f35780601f106113c8576101008083540402835291602001916113f3565b820191906000526020600020905b8154815290600101906020018083116113d657829003601f168201915b505050505081565b60006001600160a01b0382166114675760405162461bcd60e51b815260206004820152602b60248201527f455243373231413a2062616c616e636520717565727920666f7220746865207a60448201526a65726f206164647265737360a81b60648201526084016106f5565b506001600160a01b03166000908152600560205260409020546001600160801b031690565b6000546001600160a01b031633146114b65760405162461bcd60e51b81526004016106f5906129df565b6114c06000611f48565b565b6000546001600160a01b031633146114ec5760405162461bcd60e51b81526004016106f5906129df565b600b55565b6060600380546108cc906129a5565b6000546001600160a01b0316331461152a5760405162461bcd60e51b81526004016106f5906129df565b610d058261153760015490565b61154191906128ed565b111561155f5760405162461bcd60e51b81526004016106f590612905565b61156981836119a0565b5050565b610d058161157a60015490565b61158491906128ed565b11156115a25760405162461bcd60e51b81526004016106f590612905565b600a546002146115e55760405162461bcd60e51b815260206004820152600e60248201526d13525395125391d7d4105554d15160921b60448201526064016106f5565b6000811180156115f6575060038111155b6116125760405162461bcd60e51b81526004016106f59061293c565b346116258267011c37937e080000612986565b11156116645760405162461bcd60e51b815260206004820152600e60248201526d414d4f554e545f544f4f5f4c4f5760901b60448201526064016106f5565b3233146116aa5760405162461bcd60e51b815260206004820152601460248201527353454e4445525f49535f4e4f545f414e5f454f4160601b60448201526064016106f5565b6116b433826119a0565b50565b336001600160a01b0383160361170f5760405162461bcd60e51b815260206004820152601a60248201527f455243373231413a20617070726f766520746f2063616c6c657200000000000060448201526064016106f5565b3360008181526007602090815260408083206001600160a01b03871680855290835292819020805460ff191686151590811790915590519081529192917f17307eab39ab6107e8899845ad3d59bd9653f200f220920489ca2b5937696c31910160405180910390a35050565b611786848484611a16565b61179284848484611f98565b6117ae5760405162461bcd60e51b81526004016106f590612b5e565b50505050565b60606117c1826001541190565b6118255760405162461bcd60e51b815260206004820152602f60248201527f4552433732314d657461646174613a2055524920717565727920666f72206e6f60448201526e3732bc34b9ba32b73a103a37b5b2b760891b60648201526084016106f5565b600061182f612099565b9050600081511161184f576040518060200160405280600081525061187a565b80611859846120a8565b60405160200161186a929190612bb1565b6040516020818303038152906040525b9392505050565b6000546001600160a01b031633146118ab5760405162461bcd60e51b81526004016106f5906129df565b6001600160a01b0381166119105760405162461bcd60e51b815260206004820152602660248201527f4f776e61626c653a206e6577206f776e657220697320746865207a65726f206160448201526564647265737360d01b60648201526084016106f5565b6116b481611f48565b6040516bffffffffffffffffffffffff193360601b1660208201526000908190603401604051602081830303815290604052805190602001209050611998600b54828686808060200260200160405190810160405280939291908181526020018383602002808284376000920191909152509294939250506121a99050565b949350505050565b6115698282604051806020016040528060008152506121bf565b60008281526006602052604080822080546001600160a01b0319166001600160a01b0387811691821790925591518593918516917f8c5be1e5ebec7d5bd14f71427d1e84f3dd0314c0f7b2291e5b200ac8c7c3b92591a4505050565b6000611a2182611d9e565b80519091506000906001600160a01b0316336001600160a01b03161480611a58575033611a4d8461094f565b6001600160a01b0316145b80611a6a57508151611a6a90336105f0565b905080611ad45760405162461bcd60e51b815260206004820152603260248201527f455243373231413a207472616e736665722063616c6c6572206973206e6f74206044820152711bdddb995c881b9bdc88185c1c1c9bdd995960721b60648201526084016106f5565b846001600160a01b031682600001516001600160a01b031614611b485760405162461bcd60e51b815260206004820152602660248201527f455243373231413a207472616e736665722066726f6d20696e636f72726563746044820152651037bbb732b960d11b60648201526084016106f5565b6001600160a01b038416611bac5760405162461bcd60e51b815260206004820152602560248201527f455243373231413a207472616e7366657220746f20746865207a65726f206164604482015264647265737360d81b60648201526084016106f5565b611bbc60008484600001516119ba565b6001600160a01b0385166000908152600560205260408120805460019290611bee9084906001600160801b0316612be0565b82546101009290920a6001600160801b038181021990931691831602179091556001600160a01b03861660009081526005602052604081208054600194509092611c3a91859116612c08565b82546001600160801b039182166101009390930a9283029190920219909116179055506040805180820182526001600160a01b03808716825267ffffffffffffffff428116602080850191825260008981526004909152948520935184549151909216600160a01b026001600160e01b03199091169190921617179055611cc28460016128ed565b6000818152600460205260409020549091506001600160a01b0316611d5457611cec816001541190565b15611d545760408051808201825284516001600160a01b03908116825260208087015167ffffffffffffffff9081168285019081526000878152600490935294909120925183549451909116600160a01b026001600160e01b03199094169116179190911790555b83856001600160a01b0316876001600160a01b03167fddf252ad1be2c89b69c2b068fc378daa952ba7f163c4a11628f55a4df523b3ef60405160405180910390a45b505050505050565b6040805180820190915260008082526020820152611dbd826001541190565b611e1c5760405162461bcd60e51b815260206004820152602a60248201527f455243373231413a206f776e657220717565727920666f72206e6f6e657869736044820152693a32b73a103a37b5b2b760b11b60648201526084016106f5565b60007f00000000000000000000000000000000000000000000000000000000000000008310611e7d57611e6f7f000000000000000000000000000000000000000000000000000000000000000084612c2a565b611e7a9060016128ed565b90505b825b818110611ee7576000818152600460209081526040918290208251808401909352546001600160a01b038116808452600160a01b90910467ffffffffffffffff169183019190915215611ed457949350505050565b5080611edf81612c41565b915050611e7f565b5060405162461bcd60e51b815260206004820152602f60248201527f455243373231413a20756e61626c6520746f2064657465726d696e652074686560448201526e1037bbb732b91037b3103a37b5b2b760891b60648201526084016106f5565b600080546001600160a01b038381166001600160a01b0319831681178455604051919092169283917f8be0079c531659141344cd1fd0a4f28419497f9722a3daafe3b4186f6b6457e09190a35050565b60006001600160a01b0384163b1561208e57604051630a85bd0160e11b81526001600160a01b0385169063150b7a0290611fdc903390899088908890600401612c58565b6020604051808303816000875af1925050508015612017575060408051601f3d908101601f1916820190925261201491810190612c95565b60015b612074573d808015612045576040519150601f19603f3d011682016040523d82523d6000602084013e61204a565b606091505b50805160000361206c5760405162461bcd60e51b81526004016106f590612b5e565b805181602001fd5b6001600160e01b031916630a85bd0160e11b149050611998565b506001949350505050565b6060600c80546108cc906129a5565b6060816000036120cf5750506040805180820190915260018152600360fc1b602082015290565b8160005b81156120f957806120e381612a3e565b91506120f29050600a83612a2a565b91506120d3565b60008167ffffffffffffffff811115612114576121146127bb565b6040519080825280601f01601f19166020018201604052801561213e576020820181803683370190505b5090505b841561199857612153600183612c2a565b9150612160600a86612cb2565b61216b9060306128ed565b60f81b81838151811061218057612180612cc6565b60200101906001600160f81b031916908160001a9053506121a2600a86612a2a565b9450612142565b6000826121b6858461249a565b14949350505050565b6001546001600160a01b0384166122225760405162461bcd60e51b815260206004820152602160248201527f455243373231413a206d696e7420746f20746865207a65726f206164647265736044820152607360f81b60648201526084016106f5565b61222d816001541190565b1561227a5760405162461bcd60e51b815260206004820152601d60248201527f455243373231413a20746f6b656e20616c7265616479206d696e74656400000060448201526064016106f5565b7f00000000000000000000000000000000000000000000000000000000000000008311156122f55760405162461bcd60e51b815260206004820152602260248201527f455243373231413a207175616e7469747920746f206d696e7420746f6f2068696044820152610ced60f31b60648201526084016106f5565b6001600160a01b0384166000908152600560209081526040918290208251808401845290546001600160801b038082168352600160801b9091041691810191909152815180830190925280519091908190612351908790612c08565b6001600160801b0316815260200185836020015161236f9190612c08565b6001600160801b039081169091526001600160a01b0380881660008181526005602090815260408083208751978301518716600160801b0297909616969096179094558451808601865291825267ffffffffffffffff4281168386019081528883526004909552948120915182549451909516600160a01b026001600160e01b031990941694909216939093179190911790915582905b8581101561248f5760405182906001600160a01b038916906000907fddf252ad1be2c89b69c2b068fc378daa952ba7f163c4a11628f55a4df523b3ef908290a46124536000888488611f98565b61246f5760405162461bcd60e51b81526004016106f590612b5e565b8161247981612a3e565b925050808061248790612a3e565b915050612406565b506001819055611d96565b600081815b84518110156125065760008582815181106124bc576124bc612cc6565b602002602001015190508083116124e257600083815260208290526040902092506124f3565b600081815260208490526040902092505b50806124fe81612a3e565b91505061249f565b509392505050565b6001600160e01b0319811681146116b457600080fd5b60006020828403121561253657600080fd5b813561187a8161250e565b60008060006040848603121561255657600080fd5b83359250602084013567ffffffffffffffff8082111561257557600080fd5b818601915086601f83011261258957600080fd5b81358181111561259857600080fd5b8760208260051b85010111156125ad57600080fd5b6020830194508093505050509250925092565b60005b838110156125db5781810151838201526020016125c3565b838111156117ae5750506000910152565b600081518084526126048160208601602086016125c0565b601f01601f19169290920160200192915050565b60208152600061187a60208301846125ec565b60006020828403121561263d57600080fd5b5035919050565b80356001600160a01b038116811461265b57600080fd5b919050565b6000806040838503121561267357600080fd5b61267c83612644565b946020939093013593505050565b60008060006060848603121561269f57600080fd5b6126a884612644565b92506126b660208501612644565b9150604084013590509250925092565b600080602083850312156126d957600080fd5b823567ffffffffffffffff808211156126f157600080fd5b818501915085601f83011261270557600080fd5b81358181111561271457600080fd5b86602082850101111561272657600080fd5b60209290920196919550909350505050565b60006020828403121561274a57600080fd5b61187a82612644565b6000806040838503121561276657600080fd5b8235915061277660208401612644565b90509250929050565b6000806040838503121561279257600080fd5b61279b83612644565b9150602083013580151581146127b057600080fd5b809150509250929050565b634e487b7160e01b600052604160045260246000fd5b600080600080608085870312156127e757600080fd5b6127f085612644565b93506127fe60208601612644565b925060408501359150606085013567ffffffffffffffff8082111561282257600080fd5b818701915087601f83011261283657600080fd5b813581811115612848576128486127bb565b604051601f8201601f19908116603f01168101908382118183101715612870576128706127bb565b816040528281528a602084870101111561288957600080fd5b82602086016020830137600060208483010152809550505050505092959194509250565b600080604083850312156128c057600080fd5b6128c983612644565b915061277660208401612644565b634e487b7160e01b600052601160045260246000fd5b60008219821115612900576129006128d7565b500190565b60208082526019908201527f4d494e545f455843454544535f544f54414c5f535550504c5900000000000000604082015260600190565b6020808252602a908201527f4d494e545f455843454544535f4c494d49545f414c4c4f5745445f5045525f546040820152692920a729a0a1aa24a7a760b11b606082015260800190565b60008160001904831182151516156129a0576129a06128d7565b500290565b600181811c908216806129b957607f821691505b6020821081036129d957634e487b7160e01b600052602260045260246000fd5b50919050565b6020808252818101527f4f776e61626c653a2063616c6c6572206973206e6f7420746865206f776e6572604082015260600190565b634e487b7160e01b600052601260045260246000fd5b600082612a3957612a39612a14565b500490565b600060018201612a5057612a506128d7565b5060010190565b601f8211156108b857600081815260208120601f850160051c81016020861015612a7e5750805b601f850160051c820191505b81811015611d9657828155600101612a8a565b67ffffffffffffffff831115612ab557612ab56127bb565b612ac983612ac383546129a5565b83612a57565b6000601f841160018114612afd5760008515612ae55750838201355b600019600387901b1c1916600186901b178355612b57565b600083815260209020601f19861690835b82811015612b2e5786850135825560209485019460019092019101612b0e565b5086821015612b4b5760001960f88860031b161c19848701351681555b505060018560011b0183555b5050505050565b60208082526033908201527f455243373231413a207472616e7366657220746f206e6f6e204552433732315260408201527232b1b2b4bb32b91034b6b83632b6b2b73a32b960691b606082015260800190565b60008351612bc38184602088016125c0565b835190830190612bd78183602088016125c0565b01949350505050565b60006001600160801b0383811690831681811015612c0057612c006128d7565b039392505050565b60006001600160801b03808316818516808303821115612bd757612bd76128d7565b600082821015612c3c57612c3c6128d7565b500390565b600081612c5057612c506128d7565b506000190190565b6001600160a01b0385811682528416602082015260408101839052608060608201819052600090612c8b908301846125ec565b9695505050505050565b600060208284031215612ca757600080fd5b815161187a8161250e565b600082612cc157612cc1612a14565b500690565b634e487b7160e01b600052603260045260246000fdfea2646970667358221220086528ef422926d8aed9ac3a1b39c60750e5283c2b9cb2609b872fbdd3bfeff164736f6c634300080f0033",
  "immutableReferences": {
    "1565": [
      {
        "length": 32,
        "start": 7712
      },
      {
        "length": 32,
        "start": 7754
      },
      {
        "length": 32,
        "start": 8828
      }
    ]
  },
  "source": "// SPDX-License-Identifier: MIT\npragma solidity ^0.8.15;\n\nimport \"@openzeppelin/contracts/utils/cryptography/MerkleProof.sol\";\nimport \"@openzeppelin/contracts/security/ReentrancyGuard.sol\";\nimport \"@openzeppelin/contracts/access/Ownable.sol\";\nimport \"./ERC721A.sol\";\n\ncontract Alphav3 is Ownable, ERC721A, ReentrancyGuard {\n    using MerkleProof for bytes32[];\n\n    uint256 public constant MAX_SUPPLY = 3333;\n    uint256 public constant PUBLIC_MINT_LIMIT = 3;\n    uint256 public constant PRESALE_MINT_LIMIT = 2;\n\n    uint256 public constant PRESALE_MINT_PRICE = 0.065 ether;\n    uint256 public constant PUBLIC_MINT_PRICE = 0.08 ether;\n\n    /// @dev Inactive = 0; Presale = 1; Public = 2\n    uint256 public saleFlag;\n\n    bytes32 public merkleRoot;\n    string public baseURI;\n    \n    mapping(address => uint256) private whitelistMints;\n\n    constructor() ERC721A(\"Alphav3\", \"ALPHAV3\", 50, MAX_SUPPLY) {}\n\n    function verifyProof(bytes32[] calldata _proof) internal view returns (bool) {\n        bytes32 leaf = keccak256(abi.encodePacked(msg.sender));\n        return _proof.verify(merkleRoot, leaf);\n    }\n\n    function setBaseURI(string calldata _base) external onlyOwner {\n        baseURI = _base;\n    }\n\n    function _baseURI() internal view virtual override returns (string memory) {\n        return baseURI;\n    }\n\n    function setSaleFlag(uint256 _flag) external onlyOwner {\n        saleFlag = _flag;\n    }\n\n    function setMerkleRoot(bytes32 _new) external onlyOwner {\n        merkleRoot = _new;\n    }\n\n    function mint(uint256 _quantity) external payable {\n        require(totalSupply() + _quantity <= MAX_SUPPLY, \"MINT_EXCEEDS_TOTAL_SUPPLY\");\n\n        require(saleFlag == 2, \"MINTING_PAUSED\");\n        require(_quantity > 0 && _quantity <= PUBLIC_MINT_LIMIT, \"MINT_EXCEEDS_LIMIT_ALLOWED_PER_TRANSACTION\");\n        require(PUBLIC_MINT_PRICE * _quantity <= msg.value, \"AMOUNT_TOO_LOW\");\n        require(tx.origin == msg.sender, \"SENDER_IS_NOT_AN_EOA\");\n\n        _safeMint(msg.sender, _quantity);\n    }\n\n    function mintWhitelist(uint256 _quantity, bytes32[] calldata _proof) external payable {\n        require(totalSupply() + _quantity <= MAX_SUPPLY, \"MINT_EXCEEDS_TOTAL_SUPPLY\");\n\n        require(saleFlag == 1, \"MINTING_PAUSED\");\n        require(verifyProof(_proof), \"INVALID_MERKLE_PROOF\");\n        require(whitelistMints[msg.sender] + _quantity <= PRESALE_MINT_LIMIT, \"MINT_EXCEEDS_LIMIT_ALLOWED_FOR_WHITELIST\");\n        require(_quantity > 0 && _quantity <= PRESALE_MINT_LIMIT, \"MINT_EXCEEDS_LIMIT_ALLOWED_PER_TRANSACTION\");\n        require(PRESALE_MINT_PRICE * _quantity <= msg.value, \"AMOUNT_TOO_LOW\");\n\n        whitelistMints[msg.sender] += _quantity;\n\n        _safeMint(msg.sender, _quantity);\n    }\n\n    function mintOwner(uint256 _quantity, address _to) external onlyOwner {\n        require(totalSupply() + _quantity <= MAX_SUPPLY, \"MINT_EXCEEDS_TOTAL_SUPPLY\");\n\n        _safeMint(_to, _quantity);\n    }\n\n    /** @notice\n     * ALLOCATIONS:\n     *  - Community Multisig: 25% (Signers: Bitquence, sOwner1, sOwner2 / 2 of 2 signatures)\n     *  - Owners: 40.35%\n     *  - Marketing: 10%\n     *  - Developpers: 22.10%\n     *  - Artist: 2.55%\n     */\n    function withdraw() external onlyOwner nonReentrant {\n        require(totalSupply() < MAX_SUPPLY, \"SOLD_OUT\");\n        \n        uint256 balanceDividend = address(this).balance / 100000;\n\n        (bool sComm,) = address(0x18B94d7dac879511B0f2Ee2947073b57fa11Fb08).call{value: balanceDividend * 25000}(\"\");\n        (bool sOwner1,) = address(0xEC4f373A70d5Bb5371df8A33951B898B7219f82C).call{value: balanceDividend * 20175}(\"\");\n        (bool sOwner2,) = address(0x4494949245C3C432177C66adf32e272477D6aaFc).call{value: balanceDividend * 20175}(\"\");\n        (bool sMark,) = address(0x39680E7090002731b306A8EE8Fae28072b84E586).call{value: balanceDividend * 10000}(\"\");\n        (bool sDev1,) = address(0x6e1af0E043C18eAd53A5B9886D4901Dd6B67a22f).call{value: balanceDividend * 11050}(\"\");\n        (bool sDev2,) = address(0xe0C5123B0FD1A7D94bB8D84bBAF1026B699C6dC6).call{value: balanceDividend * 11050}(\"\");\n        (bool sArt,) = address(0x62A6958E4FBff46C0ECc64E2eFDE83F75D609DD2).call{value: balanceDividend * 2550}(\"\");\n    }\n\n    /** @notice\n     * ALLOCATIONS:\n     *  - Community Multisig: 25% (Signers: Bitquence, sOwner1, sOwner2 / 2 of 2 signatures)\n     *  - Owners: 30.35%\n     *  - Marketing: 20%\n     *  - Developpers: 22.10%\n     *  - Artist: 2.55%\n     */\n    function withdrawSoldOut() external onlyOwner nonReentrant {\n        require(totalSupply() == MAX_SUPPLY, \"NOT_SOLD_OUT\");\n        \n        uint256 balanceDividend = address(this).balance / 100000;\n\n        (bool sComm,) = address(0x18B94d7dac879511B0f2Ee2947073b57fa11Fb08).call{value: balanceDividend * 25000}(\"\");\n        (bool sOwner1,) = address(0xEC4f373A70d5Bb5371df8A33951B898B7219f82C).call{value: balanceDividend * 15175}(\"\");\n        (bool sOwner2,) = address(0x4494949245C3C432177C66adf32e272477D6aaFc).call{value: balanceDividend * 15175}(\"\");\n        (bool sMark,) = address(0x39680E7090002731b306A8EE8Fae28072b84E586).call{value: balanceDividend * 20000}(\"\");\n        (bool sDev1,) = address(0x6e1af0E043C18eAd53A5B9886D4901Dd6B67a22f).call{value: balanceDividend * 11050}(\"\");\n        (bool sDev2,) = address(0xe0C5123B0FD1A7D94bB8D84bBAF1026B699C6dC6).call{value: balanceDividend * 11050}(\"\");\n        (bool sArt,) = address(0x62A6958E4FBff46C0ECc64E2eFDE83F75D609DD2).call{value: balanceDividend * 2550}(\"\");\n    }\n}\n",
  "sourcePath": "/Users/macpc/Projects/TomoeGozenSmartContract/contracts/Alphav3.sol",
  "compiler": {
    "name": "solc",
    "version": "0.8.15+commit.e14f2714.Emscripten.clang"
  },
  "schemaVersion": "3.4.7",
  "updatedAt": "2022-06-18T07:30:21.755Z",
  "networkType": "ethereum",
  "devdoc": {
    "kind": "dev",
    "methods": {
      "approve(address,uint256)": {
        "details": "See {IERC721-approve}."
      },
      "balanceOf(address)": {
        "details": "See {IERC721-balanceOf}."
      },
      "getApproved(uint256)": {
        "details": "See {IERC721-getApproved}."
      },
      "isApprovedForAll(address,address)": {
        "details": "See {IERC721-isApprovedForAll}."
      },
      "name()": {
        "details": "See {IERC721Metadata-name}."
      },
      "owner()": {
        "details": "Returns the address of the current owner."
      },
      "ownerOf(uint256)": {
        "details": "See {IERC721-ownerOf}."
      },
      "renounceOwnership()": {
        "details": "Leaves the contract without owner. It will not be possible to call `onlyOwner` functions anymore. Can only be called by the current owner. NOTE: Renouncing ownership will leave the contract without an owner, thereby removing any functionality that is only available to the owner."
      },
      "safeTransferFrom(address,address,uint256)": {
        "details": "See {IERC721-safeTransferFrom}."
      },
      "safeTransferFrom(address,address,uint256,bytes)": {
        "details": "See {IERC721-safeTransferFrom}."
      },
      "setApprovalForAll(address,bool)": {
        "details": "See {IERC721-setApprovalForAll}."
      },
      "supportsInterface(bytes4)": {
        "details": "See {IERC165-supportsInterface}."
      },
      "symbol()": {
        "details": "See {IERC721Metadata-symbol}."
      },
      "tokenByIndex(uint256)": {
        "details": "See {IERC721Enumerable-tokenByIndex}."
      },
      "tokenOfOwnerByIndex(address,uint256)": {
        "details": "See {IERC721Enumerable-tokenOfOwnerByIndex}. This read function is O(collectionSize). If calling from a separate contract, be sure to test gas first. It may also degrade with extremely large collection sizes (e.g >> 10000), test for your use case."
      },
      "tokenURI(uint256)": {
        "details": "See {IERC721Metadata-tokenURI}."
      },
      "totalSupply()": {
        "details": "See {IERC721Enumerable-totalSupply}."
      },
      "transferFrom(address,address,uint256)": {
        "details": "See {IERC721-transferFrom}."
      },
      "transferOwnership(address)": {
        "details": "Transfers ownership of the contract to a new account (`newOwner`). Can only be called by the current owner."
      }
    },
    "stateVariables": {
      "saleFlag": {
        "details": "Inactive = 0; Presale = 1; Public = 2"
      }
    },
    "version": 1
  },
  "userdoc": {
    "kind": "user",
    "methods": {
      "withdraw()": {
        "notice": "ALLOCATIONS:  - Community Multisig: 25% (Signers: Bitquence, sOwner1, sOwner2 / 2 of 2 signatures)  - Owners: 40.35%  - Marketing: 10%  - Developpers: 22.10%  - Artist: 2.55%"
      },
      "withdrawSoldOut()": {
        "notice": "ALLOCATIONS:  - Community Multisig: 25% (Signers: Bitquence, sOwner1, sOwner2 / 2 of 2 signatures)  - Owners: 30.35%  - Marketing: 20%  - Developpers: 22.10%  - Artist: 2.55%"
      }
    },
    "version": 1
  }
}