{
  "contractName": "Heiki",
  "abi": [
    {
      "inputs": [],
      "stateMutability": "nonpayable",
      "type": "constructor"
    },
    {
      "anonymous": false,
      "inputs": [
        {
          "indexed": true,
          "internalType": "address",
          "name": "owner",
          "type": "address"
        },
        {
          "indexed": true,
          "internalType": "address",
          "name": "approved",
          "type": "address"
        },
        {
          "indexed": true,
          "internalType": "uint256",
          "name": "tokenId",
          "type": "uint256"
        }
      ],
      "name": "Approval",
      "type": "event"
    },
    {
      "anonymous": false,
      "inputs": [
        {
          "indexed": true,
          "internalType": "address",
          "name": "owner",
          "type": "address"
        },
        {
          "indexed": true,
          "internalType": "address",
          "name": "operator",
          "type": "address"
        },
        {
          "indexed": false,
          "internalType": "bool",
          "name": "approved",
          "type": "bool"
        }
      ],
      "name": "ApprovalForAll",
      "type": "event"
    },
    {
      "anonymous": false,
      "inputs": [
        {
          "indexed": true,
          "internalType": "address",
          "name": "previousOwner",
          "type": "address"
        },
        {
          "indexed": true,
          "internalType": "address",
          "name": "newOwner",
          "type": "address"
        }
      ],
      "name": "OwnershipTransferred",
      "type": "event"
    },
    {
      "anonymous": false,
      "inputs": [
        {
          "indexed": true,
          "internalType": "address",
          "name": "from",
          "type": "address"
        },
        {
          "indexed": true,
          "internalType": "address",
          "name": "to",
          "type": "address"
        },
        {
          "indexed": true,
          "internalType": "uint256",
          "name": "tokenId",
          "type": "uint256"
        }
      ],
      "name": "Transfer",
      "type": "event"
    },
    {
      "inputs": [],
      "name": "MAX_SUPPLY",
      "outputs": [
        {
          "internalType": "uint256",
          "name": "",
          "type": "uint256"
        }
      ],
      "stateMutability": "view",
      "type": "function",
      "constant": true
    },
    {
      "inputs": [],
      "name": "MINT_LIMIT",
      "outputs": [
        {
          "internalType": "uint256",
          "name": "",
          "type": "uint256"
        }
      ],
      "stateMutability": "view",
      "type": "function",
      "constant": true
    },
    {
      "inputs": [],
      "name": "PRESALE_MINT_PRICE",
      "outputs": [
        {
          "internalType": "uint256",
          "name": "",
          "type": "uint256"
        }
      ],
      "stateMutability": "view",
      "type": "function",
      "constant": true
    },
    {
      "inputs": [],
      "name": "PUBLIC_MINT_PRICE",
      "outputs": [
        {
          "internalType": "uint256",
          "name": "",
          "type": "uint256"
        }
      ],
      "stateMutability": "view",
      "type": "function",
      "constant": true
    },
    {
      "inputs": [
        {
          "internalType": "address",
          "name": "to",
          "type": "address"
        },
        {
          "internalType": "uint256",
          "name": "tokenId",
          "type": "uint256"
        }
      ],
      "name": "approve",
      "outputs": [],
      "stateMutability": "nonpayable",
      "type": "function"
    },
    {
      "inputs": [
        {
          "internalType": "address",
          "name": "owner",
          "type": "address"
        }
      ],
      "name": "balanceOf",
      "outputs": [
        {
          "internalType": "uint256",
          "name": "",
          "type": "uint256"
        }
      ],
      "stateMutability": "view",
      "type": "function",
      "constant": true
    },
    {
      "inputs": [],
      "name": "baseURI",
      "outputs": [
        {
          "internalType": "string",
          "name": "",
          "type": "string"
        }
      ],
      "stateMutability": "view",
      "type": "function",
      "constant": true
    },
    {
      "inputs": [
        {
          "internalType": "uint256",
          "name": "tokenId",
          "type": "uint256"
        }
      ],
      "name": "getApproved",
      "outputs": [
        {
          "internalType": "address",
          "name": "",
          "type": "address"
        }
      ],
      "stateMutability": "view",
      "type": "function",
      "constant": true
    },
    {
      "inputs": [
        {
          "internalType": "address",
          "name": "owner",
          "type": "address"
        },
        {
          "internalType": "address",
          "name": "operator",
          "type": "address"
        }
      ],
      "name": "isApprovedForAll",
      "outputs": [
        {
          "internalType": "bool",
          "name": "",
          "type": "bool"
        }
      ],
      "stateMutability": "view",
      "type": "function",
      "constant": true
    },
    {
      "inputs": [],
      "name": "merkleRoot",
      "outputs": [
        {
          "internalType": "bytes32",
          "name": "",
          "type": "bytes32"
        }
      ],
      "stateMutability": "view",
      "type": "function",
      "constant": true
    },
    {
      "inputs": [],
      "name": "name",
      "outputs": [
        {
          "internalType": "string",
          "name": "",
          "type": "string"
        }
      ],
      "stateMutability": "view",
      "type": "function",
      "constant": true
    },
    {
      "inputs": [],
      "name": "nextOwnerToExplicitlySet",
      "outputs": [
        {
          "internalType": "uint256",
          "name": "",
          "type": "uint256"
        }
      ],
      "stateMutability": "view",
      "type": "function",
      "constant": true
    },
    {
      "inputs": [],
      "name": "owner",
      "outputs": [
        {
          "internalType": "address",
          "name": "",
          "type": "address"
        }
      ],
      "stateMutability": "view",
      "type": "function",
      "constant": true
    },
    {
      "inputs": [
        {
          "internalType": "uint256",
          "name": "tokenId",
          "type": "uint256"
        }
      ],
      "name": "ownerOf",
      "outputs": [
        {
          "internalType": "address",
          "name": "",
          "type": "address"
        }
      ],
      "stateMutability": "view",
      "type": "function",
      "constant": true
    },
    {
      "inputs": [],
      "name": "renounceOwnership",
      "outputs": [],
      "stateMutability": "nonpayable",
      "type": "function"
    },
    {
      "inputs": [
        {
          "internalType": "address",
          "name": "from",
          "type": "address"
        },
        {
          "internalType": "address",
          "name": "to",
          "type": "address"
        },
        {
          "internalType": "uint256",
          "name": "tokenId",
          "type": "uint256"
        }
      ],
      "name": "safeTransferFrom",
      "outputs": [],
      "stateMutability": "nonpayable",
      "type": "function"
    },
    {
      "inputs": [
        {
          "internalType": "address",
          "name": "from",
          "type": "address"
        },
        {
          "internalType": "address",
          "name": "to",
          "type": "address"
        },
        {
          "internalType": "uint256",
          "name": "tokenId",
          "type": "uint256"
        },
        {
          "internalType": "bytes",
          "name": "_data",
          "type": "bytes"
        }
      ],
      "name": "safeTransferFrom",
      "outputs": [],
      "stateMutability": "nonpayable",
      "type": "function"
    },
    {
      "inputs": [],
      "name": "saleFlag",
      "outputs": [
        {
          "internalType": "uint256",
          "name": "",
          "type": "uint256"
        }
      ],
      "stateMutability": "view",
      "type": "function",
      "constant": true
    },
    {
      "inputs": [
        {
          "internalType": "address",
          "name": "operator",
          "type": "address"
        },
        {
          "internalType": "bool",
          "name": "approved",
          "type": "bool"
        }
      ],
      "name": "setApprovalForAll",
      "outputs": [],
      "stateMutability": "nonpayable",
      "type": "function"
    },
    {
      "inputs": [
        {
          "internalType": "bytes4",
          "name": "interfaceId",
          "type": "bytes4"
        }
      ],
      "name": "supportsInterface",
      "outputs": [
        {
          "internalType": "bool",
          "name": "",
          "type": "bool"
        }
      ],
      "stateMutability": "view",
      "type": "function",
      "constant": true
    },
    {
      "inputs": [],
      "name": "symbol",
      "outputs": [
        {
          "internalType": "string",
          "name": "",
          "type": "string"
        }
      ],
      "stateMutability": "view",
      "type": "function",
      "constant": true
    },
    {
      "inputs": [
        {
          "internalType": "uint256",
          "name": "index",
          "type": "uint256"
        }
      ],
      "name": "tokenByIndex",
      "outputs": [
        {
          "internalType": "uint256",
          "name": "",
          "type": "uint256"
        }
      ],
      "stateMutability": "view",
      "type": "function",
      "constant": true
    },
    {
      "inputs": [
        {
          "internalType": "address",
          "name": "owner",
          "type": "address"
        },
        {
          "internalType": "uint256",
          "name": "index",
          "type": "uint256"
        }
      ],
      "name": "tokenOfOwnerByIndex",
      "outputs": [
        {
          "internalType": "uint256",
          "name": "",
          "type": "uint256"
        }
      ],
      "stateMutability": "view",
      "type": "function",
      "constant": true
    },
    {
      "inputs": [
        {
          "internalType": "uint256",
          "name": "tokenId",
          "type": "uint256"
        }
      ],
      "name": "tokenURI",
      "outputs": [
        {
          "internalType": "string",
          "name": "",
          "type": "string"
        }
      ],
      "stateMutability": "view",
      "type": "function",
      "constant": true
    },
    {
      "inputs": [],
      "name": "totalSupply",
      "outputs": [
        {
          "internalType": "uint256",
          "name": "",
          "type": "uint256"
        }
      ],
      "stateMutability": "view",
      "type": "function",
      "constant": true
    },
    {
      "inputs": [
        {
          "internalType": "address",
          "name": "from",
          "type": "address"
        },
        {
          "internalType": "address",
          "name": "to",
          "type": "address"
        },
        {
          "internalType": "uint256",
          "name": "tokenId",
          "type": "uint256"
        }
      ],
      "name": "transferFrom",
      "outputs": [],
      "stateMutability": "nonpayable",
      "type": "function"
    },
    {
      "inputs": [
        {
          "internalType": "address",
          "name": "newOwner",
          "type": "address"
        }
      ],
      "name": "transferOwnership",
      "outputs": [],
      "stateMutability": "nonpayable",
      "type": "function"
    },
    {
      "inputs": [
        {
          "internalType": "string",
          "name": "_base",
          "type": "string"
        }
      ],
      "name": "setBaseURI",
      "outputs": [],
      "stateMutability": "nonpayable",
      "type": "function"
    },
    {
      "inputs": [
        {
          "internalType": "address",
          "name": "owner",
          "type": "address"
        }
      ],
      "name": "getNMinted",
      "outputs": [
        {
          "internalType": "uint256",
          "name": "",
          "type": "uint256"
        }
      ],
      "stateMutability": "view",
      "type": "function",
      "constant": true
    },
    {
      "inputs": [
        {
          "internalType": "uint256",
          "name": "_flag",
          "type": "uint256"
        }
      ],
      "name": "setSaleFlag",
      "outputs": [],
      "stateMutability": "nonpayable",
      "type": "function"
    },
    {
      "inputs": [
        {
          "internalType": "bytes32",
          "name": "_new",
          "type": "bytes32"
        }
      ],
      "name": "setMerkleRoot",
      "outputs": [],
      "stateMutability": "nonpayable",
      "type": "function"
    },
    {
      "inputs": [
        {
          "internalType": "uint256",
          "name": "_quantity",
          "type": "uint256"
        },
        {
          "internalType": "bytes32[]",
          "name": "_proof",
          "type": "bytes32[]"
        }
      ],
      "name": "mint",
      "outputs": [],
      "stateMutability": "payable",
      "type": "function",
      "payable": true
    },
    {
      "inputs": [
        {
          "internalType": "uint256",
          "name": "_quantity",
          "type": "uint256"
        },
        {
          "internalType": "address",
          "name": "_to",
          "type": "address"
        }
      ],
      "name": "mintOwner",
      "outputs": [],
      "stateMutability": "nonpayable",
      "type": "function"
    },
    {
      "inputs": [],
      "name": "withdraw",
      "outputs": [],
      "stateMutability": "nonpayable",
      "type": "function"
    }
  ],
  "bytecode": "0x60c0604052600060015560006008553480156200001b57600080fd5b50604051806040016040528060058152602001644865696b6960d81b815250604051806040016040528060058152602001644845494b4960d81b8152506032610d0562000077620000716200017a60201b60201c565b6200017e565b60008111620000e45760405162461bcd60e51b815260206004820152602e60248201527f455243373231413a20636f6c6c656374696f6e206d757374206861766520612060448201526d6e6f6e7a65726f20737570706c7960901b60648201526084015b60405180910390fd5b60008211620001465760405162461bcd60e51b815260206004820152602760248201527f455243373231413a206d61782062617463682073697a65206d757374206265206044820152666e6f6e7a65726f60c81b6064820152608401620000db565b600262000154858262000273565b50600362000163848262000273565b5060a091909152608052505060016009556200033f565b3390565b600080546001600160a01b038381166001600160a01b0319831681178455604051919092169283917f8be0079c531659141344cd1fd0a4f28419497f9722a3daafe3b4186f6b6457e09190a35050565b634e487b7160e01b600052604160045260246000fd5b600181811c90821680620001f957607f821691505b6020821081036200021a57634e487b7160e01b600052602260045260246000fd5b50919050565b601f8211156200026e57600081815260208120601f850160051c81016020861015620002495750805b601f850160051c820191505b818110156200026a5782815560010162000255565b5050505b505050565b81516001600160401b038111156200028f576200028f620001ce565b620002a781620002a08454620001e4565b8462000220565b602080601f831160018114620002df5760008415620002c65750858301515b600019600386901b1c1916600185901b1785556200026a565b600085815260208120601f198616915b828110156200031057888601518255948401946001909101908401620002ef565b50858210156200032f5787850151600019600388901b60f8161c191681555b5050505050600190811b01905550565b60805160a051612a256200037060003960008181611b1a01528181611b440152611ffa015260005050612a256000f3fe6080604052600436106101f95760003560e01c8063614bfc551161010d57806395d89b41116100a0578063ba41b0c61161006f578063ba41b0c614610572578063c87b56dd14610585578063d7224ba0146105a5578063e985e9c5146105bb578063f2fde38b1461060457600080fd5b806395d89b41146104fd5780639f15df1214610512578063a22cb46514610532578063b88d4fde1461055257600080fd5b806370a08231116100dc57806370a082311461048a578063715018a6146104aa5780637cb64759146104bf5780638da5cb5b146104df57600080fd5b8063614bfc55146104235780636352211e146104395780636bde2627146104595780636c0360eb1461047557600080fd5b806327b6fb331161019057806332cb6b0c1161015f57806332cb6b0c146103985780633ccfd60b146103ae57806342842e0e146103c35780634f6ccce7146103e357806355f804b31461040357600080fd5b806327b6fb33146103275780632a234e57146103475780632eb4a7ab146103625780632f745c591461037857600080fd5b8063095ea7b3116101cc578063095ea7b3146102b057806318160ddd146102d25780631ff8f602146102e757806323b872dd1461030757600080fd5b806301ffc9a7146101fe578063027752401461023357806306fdde0314610256578063081812fc14610278575b600080fd5b34801561020a57600080fd5b5061021e6102193660046122b8565b610624565b60405190151581526020015b60405180910390f35b34801561023f57600080fd5b50610248600281565b60405190815260200161022a565b34801561026257600080fd5b5061026b610691565b60405161022a919061232d565b34801561028457600080fd5b50610298610293366004612340565b610723565b6040516001600160a01b03909116815260200161022a565b3480156102bc57600080fd5b506102d06102cb366004612375565b6107b3565b005b3480156102de57600080fd5b50600154610248565b3480156102f357600080fd5b5061024861030236600461239f565b6108ca565b34801561031357600080fd5b506102d06103223660046123ba565b6108d5565b34801561033357600080fd5b506102d0610342366004612340565b6108e0565b34801561035357600080fd5b5061024866e6ed27d666800081565b34801561036e57600080fd5b50610248600b5481565b34801561038457600080fd5b50610248610393366004612375565b61090f565b3480156103a457600080fd5b50610248610d0581565b3480156103ba57600080fd5b506102d0610a86565b3480156103cf57600080fd5b506102d06103de3660046123ba565b610de3565b3480156103ef57600080fd5b506102486103fe366004612340565b610dfe565b34801561040f57600080fd5b506102d061041e3660046123f6565b610e67565b34801561042f57600080fd5b50610248600a5481565b34801561044557600080fd5b50610298610454366004612340565b610e9e565b34801561046557600080fd5b5061024867011c37937e08000081565b34801561048157600080fd5b5061026b610eb0565b34801561049657600080fd5b506102486104a536600461239f565b610f3e565b3480156104b657600080fd5b506102d0610fcf565b3480156104cb57600080fd5b506102d06104da366004612340565b611005565b3480156104eb57600080fd5b506000546001600160a01b0316610298565b34801561050957600080fd5b5061026b611034565b34801561051e57600080fd5b506102d061052d366004612468565b611043565b34801561053e57600080fd5b506102d061054d366004612494565b6110dc565b34801561055e57600080fd5b506102d061056d3660046124e6565b6111a0565b6102d06105803660046125c2565b6111d9565b34801561059157600080fd5b5061026b6105a0366004612340565b6114ae565b3480156105b157600080fd5b5061024860085481565b3480156105c757600080fd5b5061021e6105d6366004612641565b6001600160a01b03918216600090815260076020908152604080832093909416825291909152205460ff1690565b34801561061057600080fd5b506102d061061f36600461239f565b61157b565b60006001600160e01b031982166380ac58cd60e01b148061065557506001600160e01b03198216635b5e139f60e01b145b8061067057506001600160e01b0319821663780e9d6360e01b145b8061068b57506301ffc9a760e01b6001600160e01b03198316145b92915050565b6060600280546106a09061266b565b80601f01602080910402602001604051908101604052809291908181526020018280546106cc9061266b565b80156107195780601f106106ee57610100808354040283529160200191610719565b820191906000526020600020905b8154815290600101906020018083116106fc57829003601f168201915b5050505050905090565b6000610730826001541190565b6107975760405162461bcd60e51b815260206004820152602d60248201527f455243373231413a20617070726f76656420717565727920666f72206e6f6e6560448201526c3c34b9ba32b73a103a37b5b2b760991b60648201526084015b60405180910390fd5b506000908152600660205260409020546001600160a01b031690565b60006107be82610e9e565b9050806001600160a01b0316836001600160a01b03160361082c5760405162461bcd60e51b815260206004820152602260248201527f455243373231413a20617070726f76616c20746f2063757272656e74206f776e60448201526132b960f11b606482015260840161078e565b336001600160a01b0382161480610848575061084881336105d6565b6108ba5760405162461bcd60e51b815260206004820152603960248201527f455243373231413a20617070726f76652063616c6c6572206973206e6f74206f60448201527f776e6572206e6f7220617070726f76656420666f7220616c6c00000000000000606482015260840161078e565b6108c5838383611616565b505050565b600061068b82611672565b6108c5838383611710565b6000546001600160a01b0316331461090a5760405162461bcd60e51b815260040161078e906126a5565b600a55565b600061091a83610f3e565b82106109735760405162461bcd60e51b815260206004820152602260248201527f455243373231413a206f776e657220696e646578206f7574206f6620626f756e604482015261647360f01b606482015260840161078e565b600061097e60015490565b905060008060005b83811015610a26576000818152600460209081526040918290208251808401909352546001600160a01b038116808452600160a01b90910467ffffffffffffffff1691830191909152156109d957805192505b876001600160a01b0316836001600160a01b031603610a1357868403610a055750935061068b92505050565b83610a0f816126f0565b9450505b5080610a1e816126f0565b915050610986565b5060405162461bcd60e51b815260206004820152602e60248201527f455243373231413a20756e61626c6520746f2067657420746f6b656e206f662060448201526d0deeedccae440c4f240d2dcc8caf60931b606482015260840161078e565b6000546001600160a01b03163314610ab05760405162461bcd60e51b815260040161078e906126a5565b600260095403610b025760405162461bcd60e51b815260206004820152601f60248201527f5265656e7472616e637947756172643a207265656e7472616e742063616c6c00604482015260640161078e565b6002600955610d05610b1360015490565b10610b4b5760405162461bcd60e51b815260206004820152600860248201526714d3d31117d3d55560c21b604482015260640161078e565b6000610b5a620186a04761271f565b905060007318b94d7dac879511b0f2ee2947073b57fa11fb08610b7f836161a8612733565b604051600081818185875af1925050503d8060008114610bbb576040519150601f19603f3d011682016040523d82523d6000602084013e610bc0565b606091505b509091506000905073ec4f373a70d5bb5371df8a33951b898b7219f82c610be9846161a8612733565b604051600081818185875af1925050503d8060008114610c25576040519150601f19603f3d011682016040523d82523d6000602084013e610c2a565b606091505b5090915060009050734494949245c3c432177c66adf32e272477d6aafc610c53856161a8612733565b604051600081818185875af1925050503d8060008114610c8f576040519150601f19603f3d011682016040523d82523d6000602084013e610c94565b606091505b5090915060009050736e1af0e043c18ead53a5b9886d4901dd6b67a22f610cbd86612bd9612733565b604051600081818185875af1925050503d8060008114610cf9576040519150601f19603f3d011682016040523d82523d6000602084013e610cfe565b606091505b509091506000905073e0c5123b0fd1a7d94bb8d84bbaf1026b699c6dc6610d2787612bd9612733565b604051600081818185875af1925050503d8060008114610d63576040519150601f19603f3d011682016040523d82523d6000602084013e610d68565b606091505b50909150600090507362a6958e4fbff46c0ecc64e2efde83f75d609dd2610d91886109f6612733565b604051600081818185875af1925050503d8060008114610dcd576040519150601f19603f3d011682016040523d82523d6000602084013e610dd2565b606091505b505060016009555050505050505050565b6108c5838383604051806020016040528060008152506111a0565b6000610e0960015490565b8210610e635760405162461bcd60e51b815260206004820152602360248201527f455243373231413a20676c6f62616c20696e646578206f7574206f6620626f756044820152626e647360e81b606482015260840161078e565b5090565b6000546001600160a01b03163314610e915760405162461bcd60e51b815260040161078e906126a5565b600c6108c5828483612798565b6000610ea982611a98565b5192915050565b600c8054610ebd9061266b565b80601f0160208091040260200160405190810160405280929190818152602001828054610ee99061266b565b8015610f365780601f10610f0b57610100808354040283529160200191610f36565b820191906000526020600020905b815481529060010190602001808311610f1957829003601f168201915b505050505081565b60006001600160a01b038216610faa5760405162461bcd60e51b815260206004820152602b60248201527f455243373231413a2062616c616e636520717565727920666f7220746865207a60448201526a65726f206164647265737360a81b606482015260840161078e565b506001600160a01b03166000908152600560205260409020546001600160801b031690565b6000546001600160a01b03163314610ff95760405162461bcd60e51b815260040161078e906126a5565b6110036000611c42565b565b6000546001600160a01b0316331461102f5760405162461bcd60e51b815260040161078e906126a5565b600b55565b6060600380546106a09061266b565b6000546001600160a01b0316331461106d5760405162461bcd60e51b815260040161078e906126a5565b610d058261107a60015490565b6110849190612859565b11156110ce5760405162461bcd60e51b81526020600482015260196024820152784d494e545f455843454544535f544f54414c5f535550504c5960381b604482015260640161078e565b6110d88183611c92565b5050565b336001600160a01b038316036111345760405162461bcd60e51b815260206004820152601a60248201527f455243373231413a20617070726f766520746f2063616c6c6572000000000000604482015260640161078e565b3360008181526007602090815260408083206001600160a01b03871680855290835292819020805460ff191686151590811790915590519081529192917f17307eab39ab6107e8899845ad3d59bd9653f200f220920489ca2b5937696c31910160405180910390a35050565b6111ab848484611710565b6111b784848484611cac565b6111d35760405162461bcd60e51b815260040161078e90612871565b50505050565b610d05836111e660015490565b6111f09190612859565b111561123a5760405162461bcd60e51b81526020600482015260196024820152784d494e545f455843454544535f544f54414c5f535550504c5960381b604482015260640161078e565b600a5460011461127d5760405162461bcd60e51b815260206004820152600e60248201526d13525395125391d7d4105554d15160921b604482015260640161078e565b60008311801561128e575060028311155b6112ed5760405162461bcd60e51b815260206004820152602a60248201527f4d494e545f455843454544535f4c494d49545f414c4c4f5745445f5045525f546044820152692920a729a0a1aa24a7a760b11b606482015260840161078e565b336000908152600d602052604090205415801561130f575061130f8282611dae565b1561140c57336000908152600d6020526040902054600290611332908590612859565b11156113915760405162461bcd60e51b815260206004820152602860248201527f4d494e545f455843454544535f4c494d49545f414c4c4f5745445f464f525f5760448201526712125511531254d560c21b606482015260840161078e565b346113a38466e6ed27d6668000612733565b11156113e25760405162461bcd60e51b815260206004820152600e60248201526d414d4f554e545f544f4f5f4c4f5760901b604482015260640161078e565b336000908152600d602052604081208054859290611401908490612859565b909155506114a49050565b3461141f8467011c37937e080000612733565b111561145e5760405162461bcd60e51b815260206004820152600e60248201526d414d4f554e545f544f4f5f4c4f5760901b604482015260640161078e565b3233146114a45760405162461bcd60e51b815260206004820152601460248201527353454e4445525f49535f4e4f545f414e5f454f4160601b604482015260640161078e565b6108c53384611c92565b60606114bb826001541190565b61151f5760405162461bcd60e51b815260206004820152602f60248201527f4552433732314d657461646174613a2055524920717565727920666f72206e6f60448201526e3732bc34b9ba32b73a103a37b5b2b760891b606482015260840161078e565b6000611529611e2d565b905060008151116115495760405180602001604052806000815250611574565b8061155384611e3c565b6040516020016115649291906128c4565b6040516020818303038152906040525b9392505050565b6000546001600160a01b031633146115a55760405162461bcd60e51b815260040161078e906126a5565b6001600160a01b03811661160a5760405162461bcd60e51b815260206004820152602660248201527f4f776e61626c653a206e6577206f776e657220697320746865207a65726f206160448201526564647265737360d01b606482015260840161078e565b61161381611c42565b50565b60008281526006602052604080822080546001600160a01b0319166001600160a01b0387811691821790925591518593918516917f8c5be1e5ebec7d5bd14f71427d1e84f3dd0314c0f7b2291e5b200ac8c7c3b92591a4505050565b60006001600160a01b0382166116e45760405162461bcd60e51b815260206004820152603160248201527f455243373231413a206e756d626572206d696e74656420717565727920666f7260448201527020746865207a65726f206164647265737360781b606482015260840161078e565b506001600160a01b0316600090815260056020526040902054600160801b90046001600160801b031690565b600061171b82611a98565b80519091506000906001600160a01b0316336001600160a01b0316148061175257503361174784610723565b6001600160a01b0316145b806117645750815161176490336105d6565b9050806117ce5760405162461bcd60e51b815260206004820152603260248201527f455243373231413a207472616e736665722063616c6c6572206973206e6f74206044820152711bdddb995c881b9bdc88185c1c1c9bdd995960721b606482015260840161078e565b846001600160a01b031682600001516001600160a01b0316146118425760405162461bcd60e51b815260206004820152602660248201527f455243373231413a207472616e736665722066726f6d20696e636f72726563746044820152651037bbb732b960d11b606482015260840161078e565b6001600160a01b0384166118a65760405162461bcd60e51b815260206004820152602560248201527f455243373231413a207472616e7366657220746f20746865207a65726f206164604482015264647265737360d81b606482015260840161078e565b6118b66000848460000151611616565b6001600160a01b03851660009081526005602052604081208054600192906118e89084906001600160801b03166128f3565b82546101009290920a6001600160801b038181021990931691831602179091556001600160a01b038616600090815260056020526040812080546001945090926119349185911661291b565b82546001600160801b039182166101009390930a9283029190920219909116179055506040805180820182526001600160a01b03808716825267ffffffffffffffff428116602080850191825260008981526004909152948520935184549151909216600160a01b026001600160e01b031990911691909216171790556119bc846001612859565b6000818152600460205260409020549091506001600160a01b0316611a4e576119e6816001541190565b15611a4e5760408051808201825284516001600160a01b03908116825260208087015167ffffffffffffffff9081168285019081526000878152600490935294909120925183549451909116600160a01b026001600160e01b03199094169116179190911790555b83856001600160a01b0316876001600160a01b03167fddf252ad1be2c89b69c2b068fc378daa952ba7f163c4a11628f55a4df523b3ef60405160405180910390a45b505050505050565b6040805180820190915260008082526020820152611ab7826001541190565b611b165760405162461bcd60e51b815260206004820152602a60248201527f455243373231413a206f776e657220717565727920666f72206e6f6e657869736044820152693a32b73a103a37b5b2b760b11b606482015260840161078e565b60007f00000000000000000000000000000000000000000000000000000000000000008310611b7757611b697f00000000000000000000000000000000000000000000000000000000000000008461293d565b611b74906001612859565b90505b825b818110611be1576000818152600460209081526040918290208251808401909352546001600160a01b038116808452600160a01b90910467ffffffffffffffff169183019190915215611bce57949350505050565b5080611bd981612954565b915050611b79565b5060405162461bcd60e51b815260206004820152602f60248201527f455243373231413a20756e61626c6520746f2064657465726d696e652074686560448201526e1037bbb732b91037b3103a37b5b2b760891b606482015260840161078e565b600080546001600160a01b038381166001600160a01b0319831681178455604051919092169283917f8be0079c531659141344cd1fd0a4f28419497f9722a3daafe3b4186f6b6457e09190a35050565b6110d8828260405180602001604052806000815250611f3d565b60006001600160a01b0384163b15611da257604051630a85bd0160e11b81526001600160a01b0385169063150b7a0290611cf090339089908890889060040161296b565b6020604051808303816000875af1925050508015611d2b575060408051601f3d908101601f19168201909252611d28918101906129a8565b60015b611d88573d808015611d59576040519150601f19603f3d011682016040523d82523d6000602084013e611d5e565b606091505b508051600003611d805760405162461bcd60e51b815260040161078e90612871565b805181602001fd5b6001600160e01b031916630a85bd0160e11b149050611da6565b5060015b949350505050565b6040516bffffffffffffffffffffffff193360601b1660208201526000908190603401604051602081830303815290604052805190602001209050611da6600b54828686808060200260200160405190810160405280939291908181526020018383602002808284376000920191909152509294939250506122189050565b6060600c80546106a09061266b565b606081600003611e635750506040805180820190915260018152600360fc1b602082015290565b8160005b8115611e8d5780611e77816126f0565b9150611e869050600a8361271f565b9150611e67565b60008167ffffffffffffffff811115611ea857611ea86124d0565b6040519080825280601f01601f191660200182016040528015611ed2576020820181803683370190505b5090505b8415611da657611ee760018361293d565b9150611ef4600a866129c5565b611eff906030612859565b60f81b818381518110611f1457611f146129d9565b60200101906001600160f81b031916908160001a905350611f36600a8661271f565b9450611ed6565b6001546001600160a01b038416611fa05760405162461bcd60e51b815260206004820152602160248201527f455243373231413a206d696e7420746f20746865207a65726f206164647265736044820152607360f81b606482015260840161078e565b611fab816001541190565b15611ff85760405162461bcd60e51b815260206004820152601d60248201527f455243373231413a20746f6b656e20616c7265616479206d696e746564000000604482015260640161078e565b7f00000000000000000000000000000000000000000000000000000000000000008311156120735760405162461bcd60e51b815260206004820152602260248201527f455243373231413a207175616e7469747920746f206d696e7420746f6f2068696044820152610ced60f31b606482015260840161078e565b6001600160a01b0384166000908152600560209081526040918290208251808401845290546001600160801b038082168352600160801b90910416918101919091528151808301909252805190919081906120cf90879061291b565b6001600160801b031681526020018583602001516120ed919061291b565b6001600160801b039081169091526001600160a01b0380881660008181526005602090815260408083208751978301518716600160801b0297909616969096179094558451808601865291825267ffffffffffffffff4281168386019081528883526004909552948120915182549451909516600160a01b026001600160e01b031990941694909216939093179190911790915582905b8581101561220d5760405182906001600160a01b038916906000907fddf252ad1be2c89b69c2b068fc378daa952ba7f163c4a11628f55a4df523b3ef908290a46121d16000888488611cac565b6121ed5760405162461bcd60e51b815260040161078e90612871565b816121f7816126f0565b9250508080612205906126f0565b915050612184565b506001819055611a90565b600082612225858461222e565b14949350505050565b600081815b845181101561229a576000858281518110612250576122506129d9565b602002602001015190508083116122765760008381526020829052604090209250612287565b600081815260208490526040902092505b5080612292816126f0565b915050612233565b509392505050565b6001600160e01b03198116811461161357600080fd5b6000602082840312156122ca57600080fd5b8135611574816122a2565b60005b838110156122f05781810151838201526020016122d8565b838111156111d35750506000910152565b600081518084526123198160208601602086016122d5565b601f01601f19169290920160200192915050565b6020815260006115746020830184612301565b60006020828403121561235257600080fd5b5035919050565b80356001600160a01b038116811461237057600080fd5b919050565b6000806040838503121561238857600080fd5b61239183612359565b946020939093013593505050565b6000602082840312156123b157600080fd5b61157482612359565b6000806000606084860312156123cf57600080fd5b6123d884612359565b92506123e660208501612359565b9150604084013590509250925092565b6000806020838503121561240957600080fd5b823567ffffffffffffffff8082111561242157600080fd5b818501915085601f83011261243557600080fd5b81358181111561244457600080fd5b86602082850101111561245657600080fd5b60209290920196919550909350505050565b6000806040838503121561247b57600080fd5b8235915061248b60208401612359565b90509250929050565b600080604083850312156124a757600080fd5b6124b083612359565b9150602083013580151581146124c557600080fd5b809150509250929050565b634e487b7160e01b600052604160045260246000fd5b600080600080608085870312156124fc57600080fd5b61250585612359565b935061251360208601612359565b925060408501359150606085013567ffffffffffffffff8082111561253757600080fd5b818701915087601f83011261254b57600080fd5b81358181111561255d5761255d6124d0565b604051601f8201601f19908116603f01168101908382118183101715612585576125856124d0565b816040528281528a602084870101111561259e57600080fd5b82602086016020830137600060208483010152809550505050505092959194509250565b6000806000604084860312156125d757600080fd5b83359250602084013567ffffffffffffffff808211156125f657600080fd5b818601915086601f83011261260a57600080fd5b81358181111561261957600080fd5b8760208260051b850101111561262e57600080fd5b6020830194508093505050509250925092565b6000806040838503121561265457600080fd5b61265d83612359565b915061248b60208401612359565b600181811c9082168061267f57607f821691505b60208210810361269f57634e487b7160e01b600052602260045260246000fd5b50919050565b6020808252818101527f4f776e61626c653a2063616c6c6572206973206e6f7420746865206f776e6572604082015260600190565b634e487b7160e01b600052601160045260246000fd5b600060018201612702576127026126da565b5060010190565b634e487b7160e01b600052601260045260246000fd5b60008261272e5761272e612709565b500490565b600081600019048311821515161561274d5761274d6126da565b500290565b601f8211156108c557600081815260208120601f850160051c810160208610156127795750805b601f850160051c820191505b81811015611a9057828155600101612785565b67ffffffffffffffff8311156127b0576127b06124d0565b6127c4836127be835461266b565b83612752565b6000601f8411600181146127f857600085156127e05750838201355b600019600387901b1c1916600186901b178355612852565b600083815260209020601f19861690835b828110156128295786850135825560209485019460019092019101612809565b50868210156128465760001960f88860031b161c19848701351681555b505060018560011b0183555b5050505050565b6000821982111561286c5761286c6126da565b500190565b60208082526033908201527f455243373231413a207472616e7366657220746f206e6f6e204552433732315260408201527232b1b2b4bb32b91034b6b83632b6b2b73a32b960691b606082015260800190565b600083516128d68184602088016122d5565b8351908301906128ea8183602088016122d5565b01949350505050565b60006001600160801b0383811690831681811015612913576129136126da565b039392505050565b60006001600160801b038083168185168083038211156128ea576128ea6126da565b60008282101561294f5761294f6126da565b500390565b600081612963576129636126da565b506000190190565b6001600160a01b038581168252841660208201526040810183905260806060820181905260009061299e90830184612301565b9695505050505050565b6000602082840312156129ba57600080fd5b8151611574816122a2565b6000826129d4576129d4612709565b500690565b634e487b7160e01b600052603260045260246000fdfea264697066735822122096f77f159fb784008eb2b8fabc48b47d9dee305887b53ba48459088c409429e664736f6c634300080f0033",
  "immutableReferences": {
    "1029": [
      {
        "length": 32,
        "start": 6938
      },
      {
        "length": 32,
        "start": 6980
      },
      {
        "length": 32,
        "start": 8186
      }
    ]
  },
  "source": "// SPDX-License-Identifier: MIT\npragma solidity ^0.8.15;\n\n/*\n    \n    \n    \n\n     / 2022 / V1.0\n     \n*/\n\nimport \"@openzeppelin/contracts/utils/cryptography/MerkleProof.sol\";\nimport \"@openzeppelin/contracts/security/ReentrancyGuard.sol\";\nimport \"@openzeppelin/contracts/access/Ownable.sol\";\nimport \"./ERC721A.sol\";\n\ncontract Heiki is Ownable, ERC721A, ReentrancyGuard {\n    using MerkleProof for bytes32[];\n\n    uint256 public constant MAX_SUPPLY = 3333;\n    uint256 public constant MINT_LIMIT = 2;\n\n    uint256 public constant PRESALE_MINT_PRICE = 0.065 ether;\n    uint256 public constant PUBLIC_MINT_PRICE = 0.08 ether;\n\n    /// @dev Inactive = 0; Active = 1\n    uint256 public saleFlag;\n\n    bytes32 public merkleRoot;\n    string public baseURI;\n    \n    mapping(address => uint256) private whitelistMints;\n\n    constructor() ERC721A(\"Heiki\", \"HEIKI\", 50, MAX_SUPPLY) {}\n\n    function verifyProof(bytes32[] calldata _proof) internal view returns (bool) {\n        bytes32 leaf = keccak256(abi.encodePacked(msg.sender));\n        return _proof.verify(merkleRoot, leaf);\n    }\n\n    function setBaseURI(string calldata _base) external onlyOwner {\n        baseURI = _base;\n    }\n\n    function getNMinted(address owner) public view returns (uint256) {\n        return _numberMinted(owner);\n    }\n\n    function _baseURI() internal view virtual override returns (string memory) {\n        return baseURI;\n    }\n\n    function setSaleFlag(uint256 _flag) external onlyOwner {\n        saleFlag = _flag;\n    }\n\n    function setMerkleRoot(bytes32 _new) external onlyOwner {\n        merkleRoot = _new;\n    }\n\n    function mint(uint256 _quantity, bytes32[] calldata _proof) external payable {\n        require(totalSupply() + _quantity <= MAX_SUPPLY, \"MINT_EXCEEDS_TOTAL_SUPPLY\");\n\n        require(saleFlag == 1, \"MINTING_PAUSED\");\n        require(_quantity > 0 && _quantity <= MINT_LIMIT, \"MINT_EXCEEDS_LIMIT_ALLOWED_PER_TRANSACTION\");\n\n        if(whitelistMints[msg.sender] == 0 && verifyProof(_proof)){\n            require(whitelistMints[msg.sender] + _quantity <= MINT_LIMIT, \"MINT_EXCEEDS_LIMIT_ALLOWED_FOR_WHITELIST\");\n            require(PRESALE_MINT_PRICE * _quantity <= msg.value, \"AMOUNT_TOO_LOW\");\n            whitelistMints[msg.sender] += _quantity;\n        } else {\n            require(PUBLIC_MINT_PRICE * _quantity <= msg.value, \"AMOUNT_TOO_LOW\");\n            require(tx.origin == msg.sender, \"SENDER_IS_NOT_AN_EOA\");\n        }\n\n        _safeMint(msg.sender, _quantity);\n    }\n\n    function mintOwner(uint256 _quantity, address _to) external onlyOwner {\n        require(totalSupply() + _quantity <= MAX_SUPPLY, \"MINT_EXCEEDS_TOTAL_SUPPLY\");\n\n        _safeMint(_to, _quantity);\n    }\n\n    /** @notice\n     * ALLOCATIONS:\n     *  - Community Multisig: 25% (Signers: Bitquence, sOwner1, sOwner2 / 2 of 2 signatures)\n     *  - Owners: 50%\n     *  - Developpers: 22.45%\n     *  - Artist: 2.55%\n     */\n    function withdraw() external onlyOwner nonReentrant {\n        require(totalSupply() < MAX_SUPPLY, \"SOLD_OUT\");\n        \n        uint256 balanceDividend = address(this).balance / 100000;\n\n        (bool sComm,) = address(0x18B94d7dac879511B0f2Ee2947073b57fa11Fb08).call{value: balanceDividend * 25000}(\"\");\n        (bool sOwner1,) = address(0xEC4f373A70d5Bb5371df8A33951B898B7219f82C).call{value: balanceDividend * 25000}(\"\");\n        (bool sOwner2,) = address(0x4494949245C3C432177C66adf32e272477D6aaFc).call{value: balanceDividend * 25000}(\"\");\n        (bool sDev1,) = address(0x6e1af0E043C18eAd53A5B9886D4901Dd6B67a22f).call{value: balanceDividend * 11225}(\"\");\n        (bool sDev2,) = address(0xe0C5123B0FD1A7D94bB8D84bBAF1026B699C6dC6).call{value: balanceDividend * 11225}(\"\");\n        (bool sArt,) = address(0x62A6958E4FBff46C0ECc64E2eFDE83F75D609DD2).call{value: balanceDividend * 2550}(\"\");\n    }\n}\n",
  "sourcePath": "/Users/macpc/Projects/TomoeGozenSmartContract/contracts/Heikiv2.sol",
  "compiler": {
    "name": "solc",
    "version": "0.8.15+commit.e14f2714.Emscripten.clang"
  },
  "schemaVersion": "3.4.7",
  "updatedAt": "2022-06-24T14:50:33.519Z",
  "networkType": "ethereum",
  "devdoc": {
    "kind": "dev",
    "methods": {
      "approve(address,uint256)": {
        "details": "See {IERC721-approve}."
      },
      "balanceOf(address)": {
        "details": "See {IERC721-balanceOf}."
      },
      "getApproved(uint256)": {
        "details": "See {IERC721-getApproved}."
      },
      "isApprovedForAll(address,address)": {
        "details": "See {IERC721-isApprovedForAll}."
      },
      "name()": {
        "details": "See {IERC721Metadata-name}."
      },
      "owner()": {
        "details": "Returns the address of the current owner."
      },
      "ownerOf(uint256)": {
        "details": "See {IERC721-ownerOf}."
      },
      "renounceOwnership()": {
        "details": "Leaves the contract without owner. It will not be possible to call `onlyOwner` functions anymore. Can only be called by the current owner. NOTE: Renouncing ownership will leave the contract without an owner, thereby removing any functionality that is only available to the owner."
      },
      "safeTransferFrom(address,address,uint256)": {
        "details": "See {IERC721-safeTransferFrom}."
      },
      "safeTransferFrom(address,address,uint256,bytes)": {
        "details": "See {IERC721-safeTransferFrom}."
      },
      "setApprovalForAll(address,bool)": {
        "details": "See {IERC721-setApprovalForAll}."
      },
      "supportsInterface(bytes4)": {
        "details": "See {IERC165-supportsInterface}."
      },
      "symbol()": {
        "details": "See {IERC721Metadata-symbol}."
      },
      "tokenByIndex(uint256)": {
        "details": "See {IERC721Enumerable-tokenByIndex}."
      },
      "tokenOfOwnerByIndex(address,uint256)": {
        "details": "See {IERC721Enumerable-tokenOfOwnerByIndex}. This read function is O(collectionSize). If calling from a separate contract, be sure to test gas first. It may also degrade with extremely large collection sizes (e.g >> 10000), test for your use case."
      },
      "tokenURI(uint256)": {
        "details": "See {IERC721Metadata-tokenURI}."
      },
      "totalSupply()": {
        "details": "See {IERC721Enumerable-totalSupply}."
      },
      "transferFrom(address,address,uint256)": {
        "details": "See {IERC721-transferFrom}."
      },
      "transferOwnership(address)": {
        "details": "Transfers ownership of the contract to a new account (`newOwner`). Can only be called by the current owner."
      }
    },
    "stateVariables": {
      "saleFlag": {
        "details": "Inactive = 0; Active = 1"
      }
    },
    "version": 1
  },
  "userdoc": {
    "kind": "user",
    "methods": {
      "withdraw()": {
        "notice": "ALLOCATIONS:  - Community Multisig: 25% (Signers: Bitquence, sOwner1, sOwner2 / 2 of 2 signatures)  - Owners: 50%  - Developpers: 22.45%  - Artist: 2.55%"
      }
    },
    "version": 1
  }
}