{
  "contractName": "Heiki",
  "abi": [
    {
      "inputs": [],
      "stateMutability": "nonpayable",
      "type": "constructor"
    },
    {
      "anonymous": false,
      "inputs": [
        {
          "indexed": true,
          "internalType": "address",
          "name": "owner",
          "type": "address"
        },
        {
          "indexed": true,
          "internalType": "address",
          "name": "approved",
          "type": "address"
        },
        {
          "indexed": true,
          "internalType": "uint256",
          "name": "tokenId",
          "type": "uint256"
        }
      ],
      "name": "Approval",
      "type": "event"
    },
    {
      "anonymous": false,
      "inputs": [
        {
          "indexed": true,
          "internalType": "address",
          "name": "owner",
          "type": "address"
        },
        {
          "indexed": true,
          "internalType": "address",
          "name": "operator",
          "type": "address"
        },
        {
          "indexed": false,
          "internalType": "bool",
          "name": "approved",
          "type": "bool"
        }
      ],
      "name": "ApprovalForAll",
      "type": "event"
    },
    {
      "anonymous": false,
      "inputs": [
        {
          "indexed": true,
          "internalType": "address",
          "name": "previousOwner",
          "type": "address"
        },
        {
          "indexed": true,
          "internalType": "address",
          "name": "newOwner",
          "type": "address"
        }
      ],
      "name": "OwnershipTransferred",
      "type": "event"
    },
    {
      "anonymous": false,
      "inputs": [
        {
          "indexed": true,
          "internalType": "address",
          "name": "from",
          "type": "address"
        },
        {
          "indexed": true,
          "internalType": "address",
          "name": "to",
          "type": "address"
        },
        {
          "indexed": true,
          "internalType": "uint256",
          "name": "tokenId",
          "type": "uint256"
        }
      ],
      "name": "Transfer",
      "type": "event"
    },
    {
      "inputs": [],
      "name": "MAX_SUPPLY",
      "outputs": [
        {
          "internalType": "uint256",
          "name": "",
          "type": "uint256"
        }
      ],
      "stateMutability": "view",
      "type": "function",
      "constant": true
    },
    {
      "inputs": [],
      "name": "MINT_LIMIT",
      "outputs": [
        {
          "internalType": "uint256",
          "name": "",
          "type": "uint256"
        }
      ],
      "stateMutability": "view",
      "type": "function",
      "constant": true
    },
    {
      "inputs": [],
      "name": "PRESALE_MINT_PRICE",
      "outputs": [
        {
          "internalType": "uint256",
          "name": "",
          "type": "uint256"
        }
      ],
      "stateMutability": "view",
      "type": "function",
      "constant": true
    },
    {
      "inputs": [],
      "name": "PUBLIC_MINT_PRICE",
      "outputs": [
        {
          "internalType": "uint256",
          "name": "",
          "type": "uint256"
        }
      ],
      "stateMutability": "view",
      "type": "function",
      "constant": true
    },
    {
      "inputs": [
        {
          "internalType": "address",
          "name": "to",
          "type": "address"
        },
        {
          "internalType": "uint256",
          "name": "tokenId",
          "type": "uint256"
        }
      ],
      "name": "approve",
      "outputs": [],
      "stateMutability": "nonpayable",
      "type": "function"
    },
    {
      "inputs": [
        {
          "internalType": "address",
          "name": "owner",
          "type": "address"
        }
      ],
      "name": "balanceOf",
      "outputs": [
        {
          "internalType": "uint256",
          "name": "",
          "type": "uint256"
        }
      ],
      "stateMutability": "view",
      "type": "function",
      "constant": true
    },
    {
      "inputs": [],
      "name": "baseURI",
      "outputs": [
        {
          "internalType": "string",
          "name": "",
          "type": "string"
        }
      ],
      "stateMutability": "view",
      "type": "function",
      "constant": true
    },
    {
      "inputs": [
        {
          "internalType": "uint256",
          "name": "tokenId",
          "type": "uint256"
        }
      ],
      "name": "getApproved",
      "outputs": [
        {
          "internalType": "address",
          "name": "",
          "type": "address"
        }
      ],
      "stateMutability": "view",
      "type": "function",
      "constant": true
    },
    {
      "inputs": [
        {
          "internalType": "address",
          "name": "owner",
          "type": "address"
        },
        {
          "internalType": "address",
          "name": "operator",
          "type": "address"
        }
      ],
      "name": "isApprovedForAll",
      "outputs": [
        {
          "internalType": "bool",
          "name": "",
          "type": "bool"
        }
      ],
      "stateMutability": "view",
      "type": "function",
      "constant": true
    },
    {
      "inputs": [],
      "name": "merkleRoot",
      "outputs": [
        {
          "internalType": "bytes32",
          "name": "",
          "type": "bytes32"
        }
      ],
      "stateMutability": "view",
      "type": "function",
      "constant": true
    },
    {
      "inputs": [],
      "name": "name",
      "outputs": [
        {
          "internalType": "string",
          "name": "",
          "type": "string"
        }
      ],
      "stateMutability": "view",
      "type": "function",
      "constant": true
    },
    {
      "inputs": [],
      "name": "nextOwnerToExplicitlySet",
      "outputs": [
        {
          "internalType": "uint256",
          "name": "",
          "type": "uint256"
        }
      ],
      "stateMutability": "view",
      "type": "function",
      "constant": true
    },
    {
      "inputs": [],
      "name": "owner",
      "outputs": [
        {
          "internalType": "address",
          "name": "",
          "type": "address"
        }
      ],
      "stateMutability": "view",
      "type": "function",
      "constant": true
    },
    {
      "inputs": [
        {
          "internalType": "uint256",
          "name": "tokenId",
          "type": "uint256"
        }
      ],
      "name": "ownerOf",
      "outputs": [
        {
          "internalType": "address",
          "name": "",
          "type": "address"
        }
      ],
      "stateMutability": "view",
      "type": "function",
      "constant": true
    },
    {
      "inputs": [],
      "name": "renounceOwnership",
      "outputs": [],
      "stateMutability": "nonpayable",
      "type": "function"
    },
    {
      "inputs": [
        {
          "internalType": "address",
          "name": "from",
          "type": "address"
        },
        {
          "internalType": "address",
          "name": "to",
          "type": "address"
        },
        {
          "internalType": "uint256",
          "name": "tokenId",
          "type": "uint256"
        }
      ],
      "name": "safeTransferFrom",
      "outputs": [],
      "stateMutability": "nonpayable",
      "type": "function"
    },
    {
      "inputs": [
        {
          "internalType": "address",
          "name": "from",
          "type": "address"
        },
        {
          "internalType": "address",
          "name": "to",
          "type": "address"
        },
        {
          "internalType": "uint256",
          "name": "tokenId",
          "type": "uint256"
        },
        {
          "internalType": "bytes",
          "name": "_data",
          "type": "bytes"
        }
      ],
      "name": "safeTransferFrom",
      "outputs": [],
      "stateMutability": "nonpayable",
      "type": "function"
    },
    {
      "inputs": [],
      "name": "saleFlag",
      "outputs": [
        {
          "internalType": "uint256",
          "name": "",
          "type": "uint256"
        }
      ],
      "stateMutability": "view",
      "type": "function",
      "constant": true
    },
    {
      "inputs": [
        {
          "internalType": "address",
          "name": "operator",
          "type": "address"
        },
        {
          "internalType": "bool",
          "name": "approved",
          "type": "bool"
        }
      ],
      "name": "setApprovalForAll",
      "outputs": [],
      "stateMutability": "nonpayable",
      "type": "function"
    },
    {
      "inputs": [
        {
          "internalType": "bytes4",
          "name": "interfaceId",
          "type": "bytes4"
        }
      ],
      "name": "supportsInterface",
      "outputs": [
        {
          "internalType": "bool",
          "name": "",
          "type": "bool"
        }
      ],
      "stateMutability": "view",
      "type": "function",
      "constant": true
    },
    {
      "inputs": [],
      "name": "symbol",
      "outputs": [
        {
          "internalType": "string",
          "name": "",
          "type": "string"
        }
      ],
      "stateMutability": "view",
      "type": "function",
      "constant": true
    },
    {
      "inputs": [
        {
          "internalType": "uint256",
          "name": "index",
          "type": "uint256"
        }
      ],
      "name": "tokenByIndex",
      "outputs": [
        {
          "internalType": "uint256",
          "name": "",
          "type": "uint256"
        }
      ],
      "stateMutability": "view",
      "type": "function",
      "constant": true
    },
    {
      "inputs": [
        {
          "internalType": "address",
          "name": "owner",
          "type": "address"
        },
        {
          "internalType": "uint256",
          "name": "index",
          "type": "uint256"
        }
      ],
      "name": "tokenOfOwnerByIndex",
      "outputs": [
        {
          "internalType": "uint256",
          "name": "",
          "type": "uint256"
        }
      ],
      "stateMutability": "view",
      "type": "function",
      "constant": true
    },
    {
      "inputs": [
        {
          "internalType": "uint256",
          "name": "tokenId",
          "type": "uint256"
        }
      ],
      "name": "tokenURI",
      "outputs": [
        {
          "internalType": "string",
          "name": "",
          "type": "string"
        }
      ],
      "stateMutability": "view",
      "type": "function",
      "constant": true
    },
    {
      "inputs": [],
      "name": "totalSupply",
      "outputs": [
        {
          "internalType": "uint256",
          "name": "",
          "type": "uint256"
        }
      ],
      "stateMutability": "view",
      "type": "function",
      "constant": true
    },
    {
      "inputs": [
        {
          "internalType": "address",
          "name": "from",
          "type": "address"
        },
        {
          "internalType": "address",
          "name": "to",
          "type": "address"
        },
        {
          "internalType": "uint256",
          "name": "tokenId",
          "type": "uint256"
        }
      ],
      "name": "transferFrom",
      "outputs": [],
      "stateMutability": "nonpayable",
      "type": "function"
    },
    {
      "inputs": [
        {
          "internalType": "address",
          "name": "newOwner",
          "type": "address"
        }
      ],
      "name": "transferOwnership",
      "outputs": [],
      "stateMutability": "nonpayable",
      "type": "function"
    },
    {
      "inputs": [
        {
          "internalType": "address",
          "name": "owner",
          "type": "address"
        }
      ],
      "name": "getNMinted",
      "outputs": [
        {
          "internalType": "uint256",
          "name": "",
          "type": "uint256"
        }
      ],
      "stateMutability": "view",
      "type": "function",
      "constant": true
    },
    {
      "inputs": [
        {
          "internalType": "string",
          "name": "_base",
          "type": "string"
        }
      ],
      "name": "setBaseURI",
      "outputs": [],
      "stateMutability": "nonpayable",
      "type": "function"
    },
    {
      "inputs": [
        {
          "internalType": "uint256",
          "name": "_flag",
          "type": "uint256"
        }
      ],
      "name": "setSaleFlag",
      "outputs": [],
      "stateMutability": "nonpayable",
      "type": "function"
    },
    {
      "inputs": [
        {
          "internalType": "bytes32",
          "name": "_new",
          "type": "bytes32"
        }
      ],
      "name": "setMerkleRoot",
      "outputs": [],
      "stateMutability": "nonpayable",
      "type": "function"
    },
    {
      "inputs": [
        {
          "internalType": "uint256",
          "name": "_quantity",
          "type": "uint256"
        }
      ],
      "name": "mint",
      "outputs": [],
      "stateMutability": "payable",
      "type": "function",
      "payable": true
    },
    {
      "inputs": [
        {
          "internalType": "uint256",
          "name": "_quantity",
          "type": "uint256"
        },
        {
          "internalType": "bytes32[]",
          "name": "_proof",
          "type": "bytes32[]"
        }
      ],
      "name": "mintWhitelist",
      "outputs": [],
      "stateMutability": "payable",
      "type": "function",
      "payable": true
    },
    {
      "inputs": [
        {
          "internalType": "uint256",
          "name": "_quantity",
          "type": "uint256"
        },
        {
          "internalType": "address",
          "name": "_to",
          "type": "address"
        }
      ],
      "name": "mintOwner",
      "outputs": [],
      "stateMutability": "nonpayable",
      "type": "function"
    },
    {
      "inputs": [],
      "name": "withdraw",
      "outputs": [],
      "stateMutability": "nonpayable",
      "type": "function"
    }
  ],
  "bytecode": "0x60c0604052600060015560006008553480156200001b57600080fd5b50604051806040016040528060058152602001644865696b6960d81b815250604051806040016040528060058152602001644845494b4960d81b8152506032610d0562000077620000716200017a60201b60201c565b6200017e565b60008111620000e45760405162461bcd60e51b815260206004820152602e60248201527f455243373231413a20636f6c6c656374696f6e206d757374206861766520612060448201526d6e6f6e7a65726f20737570706c7960901b60648201526084015b60405180910390fd5b60008211620001465760405162461bcd60e51b815260206004820152602760248201527f455243373231413a206d61782062617463682073697a65206d757374206265206044820152666e6f6e7a65726f60c81b6064820152608401620000db565b600262000154858262000273565b50600362000163848262000273565b5060a091909152608052505060016009556200033f565b3390565b600080546001600160a01b038381166001600160a01b0319831681178455604051919092169283917f8be0079c531659141344cd1fd0a4f28419497f9722a3daafe3b4186f6b6457e09190a35050565b634e487b7160e01b600052604160045260246000fd5b600181811c90821680620001f957607f821691505b6020821081036200021a57634e487b7160e01b600052602260045260246000fd5b50919050565b601f8211156200026e57600081815260208120601f850160051c81016020861015620002495750805b601f850160051c820191505b818110156200026a5782815560010162000255565b5050505b505050565b81516001600160401b038111156200028f576200028f620001ce565b620002a781620002a08454620001e4565b8462000220565b602080601f831160018114620002df5760008415620002c65750858301515b600019600386901b1c1916600185901b1785556200026a565b600085815260208120601f198616915b828110156200031057888601518255948401946001909101908401620002ef565b50858210156200032f5787850151600019600388901b60f8161c191681555b5050505050600190811b01905550565b60805160a051612abf6200037060003960008181611bcd01528181611bf70152612029015260005050612abf6000f3fe6080604052600436106102045760003560e01c806355f804b31161011857806395d89b41116100a0578063b88d4fde1161006f578063b88d4fde14610583578063c87b56dd146105a3578063d7224ba0146105c3578063e985e9c5146105d9578063f2fde38b1461062257600080fd5b806395d89b411461051b5780639f15df1214610530578063a0712d6814610550578063a22cb4651461056357600080fd5b80636c0360eb116100e75780636c0360eb1461049357806370a08231146104a8578063715018a6146104c85780637cb64759146104dd5780638da5cb5b146104fd57600080fd5b806355f804b314610421578063614bfc55146104415780636352211e146104575780636bde26271461047757600080fd5b806323b872dd1161019b5780632f745c591161016a5780632f745c591461039657806332cb6b0c146103b65780633ccfd60b146103cc57806342842e0e146103e15780634f6ccce71461040157600080fd5b806323b872dd1461032557806327b6fb33146103455780632a234e57146103655780632eb4a7ab1461038057600080fd5b8063081812fc116101d7578063081812fc14610298578063095ea7b3146102d057806318160ddd146102f05780631ff8f6021461030557600080fd5b806301ffc9a714610209578063027752401461023e578063061431a81461026157806306fdde0314610276575b600080fd5b34801561021557600080fd5b506102296102243660046122d1565b610642565b60405190151581526020015b60405180910390f35b34801561024a57600080fd5b50610253600281565b604051908152602001610235565b61027461026f3660046122ee565b6106af565b005b34801561028257600080fd5b5061028b6108ac565b60405161023591906123c5565b3480156102a457600080fd5b506102b86102b33660046123d8565b61093e565b6040516001600160a01b039091168152602001610235565b3480156102dc57600080fd5b506102746102eb36600461240d565b6109c9565b3480156102fc57600080fd5b50600154610253565b34801561031157600080fd5b50610253610320366004612437565b610adb565b34801561033157600080fd5b50610274610340366004612452565b610ae6565b34801561035157600080fd5b506102746103603660046123d8565b610af1565b34801561037157600080fd5b5061025366e6ed27d666800081565b34801561038c57600080fd5b50610253600b5481565b3480156103a257600080fd5b506102536103b136600461240d565b610b20565b3480156103c257600080fd5b50610253610d0581565b3480156103d857600080fd5b50610274610c97565b3480156103ed57600080fd5b506102746103fc366004612452565b610faf565b34801561040d57600080fd5b5061025361041c3660046123d8565b610fca565b34801561042d57600080fd5b5061027461043c36600461248e565b611033565b34801561044d57600080fd5b50610253600a5481565b34801561046357600080fd5b506102b86104723660046123d8565b61106a565b34801561048357600080fd5b5061025367011c37937e08000081565b34801561049f57600080fd5b5061028b61107c565b3480156104b457600080fd5b506102536104c3366004612437565b61110a565b3480156104d457600080fd5b5061027461119b565b3480156104e957600080fd5b506102746104f83660046123d8565b6111d1565b34801561050957600080fd5b506000546001600160a01b03166102b8565b34801561052757600080fd5b5061028b611200565b34801561053c57600080fd5b5061027461054b366004612500565b61120f565b61027461055e3660046123d8565b61127c565b34801561056f57600080fd5b5061027461057e36600461252c565b6113c6565b34801561058f57600080fd5b5061027461059e36600461257e565b61148a565b3480156105af57600080fd5b5061028b6105be3660046123d8565b6114c3565b3480156105cf57600080fd5b5061025360085481565b3480156105e557600080fd5b506102296105f436600461265a565b6001600160a01b03918216600090815260076020908152604080832093909416825291909152205460ff1690565b34801561062e57600080fd5b5061027461063d366004612437565b611590565b60006001600160e01b031982166380ac58cd60e01b148061067357506001600160e01b03198216635b5e139f60e01b145b8061068e57506001600160e01b0319821663780e9d6360e01b145b806106a957506301ffc9a760e01b6001600160e01b03198316145b92915050565b610d05836106bc60015490565b6106c6919061269a565b11156106ed5760405162461bcd60e51b81526004016106e4906126b2565b60405180910390fd5b600a546001146107305760405162461bcd60e51b815260206004820152600e60248201526d13525395125391d7d4105554d15160921b60448201526064016106e4565b61073a8282611628565b61077d5760405162461bcd60e51b815260206004820152601460248201527324a72b20a624a22fa6a2a925a622afa82927a7a360611b60448201526064016106e4565b336000908152600d602052604090205460029061079b90859061269a565b11156107fa5760405162461bcd60e51b815260206004820152602860248201527f4d494e545f455843454544535f4c494d49545f414c4c4f5745445f464f525f5760448201526712125511531254d560c21b60648201526084016106e4565b60008311801561080b575060028311155b6108275760405162461bcd60e51b81526004016106e4906126e9565b346108398466e6ed27d6668000612733565b11156108785760405162461bcd60e51b815260206004820152600e60248201526d414d4f554e545f544f4f5f4c4f5760901b60448201526064016106e4565b336000908152600d60205260408120805485929061089790849061269a565b909155506108a7905033846116af565b505050565b6060600280546108bb90612752565b80601f01602080910402602001604051908101604052809291908181526020018280546108e790612752565b80156109345780601f1061090957610100808354040283529160200191610934565b820191906000526020600020905b81548152906001019060200180831161091757829003601f168201915b5050505050905090565b600061094b826001541190565b6109ad5760405162461bcd60e51b815260206004820152602d60248201527f455243373231413a20617070726f76656420717565727920666f72206e6f6e6560448201526c3c34b9ba32b73a103a37b5b2b760991b60648201526084016106e4565b506000908152600660205260409020546001600160a01b031690565b60006109d48261106a565b9050806001600160a01b0316836001600160a01b031603610a425760405162461bcd60e51b815260206004820152602260248201527f455243373231413a20617070726f76616c20746f2063757272656e74206f776e60448201526132b960f11b60648201526084016106e4565b336001600160a01b0382161480610a5e5750610a5e81336105f4565b610ad05760405162461bcd60e51b815260206004820152603960248201527f455243373231413a20617070726f76652063616c6c6572206973206e6f74206f60448201527f776e6572206e6f7220617070726f76656420666f7220616c6c0000000000000060648201526084016106e4565b6108a78383836116c9565b60006106a982611725565b6108a78383836117c3565b6000546001600160a01b03163314610b1b5760405162461bcd60e51b81526004016106e49061278c565b600a55565b6000610b2b8361110a565b8210610b845760405162461bcd60e51b815260206004820152602260248201527f455243373231413a206f776e657220696e646578206f7574206f6620626f756e604482015261647360f01b60648201526084016106e4565b6000610b8f60015490565b905060008060005b83811015610c37576000818152600460209081526040918290208251808401909352546001600160a01b038116808452600160a01b90910467ffffffffffffffff169183019190915215610bea57805192505b876001600160a01b0316836001600160a01b031603610c2457868403610c16575093506106a992505050565b83610c20816127c1565b9450505b5080610c2f816127c1565b915050610b97565b5060405162461bcd60e51b815260206004820152602e60248201527f455243373231413a20756e61626c6520746f2067657420746f6b656e206f662060448201526d0deeedccae440c4f240d2dcc8caf60931b60648201526084016106e4565b6000546001600160a01b03163314610cc15760405162461bcd60e51b81526004016106e49061278c565b600260095403610d135760405162461bcd60e51b815260206004820152601f60248201527f5265656e7472616e637947756172643a207265656e7472616e742063616c6c0060448201526064016106e4565b60026009556000610d27620186a0476127f0565b90506000725957b04afa8a1b65c4632753d2c4da6d84b64f610d4b836161a8612733565b604051600081818185875af1925050503d8060008114610d87576040519150601f19603f3d011682016040523d82523d6000602084013e610d8c565b606091505b509091506000905073ec4f373a70d5bb5371df8a33951b898b7219f82c610db5846161a8612733565b604051600081818185875af1925050503d8060008114610df1576040519150601f19603f3d011682016040523d82523d6000602084013e610df6565b606091505b5090915060009050734494949245c3c432177c66adf32e272477d6aafc610e1f856161a8612733565b604051600081818185875af1925050503d8060008114610e5b576040519150601f19603f3d011682016040523d82523d6000602084013e610e60565b606091505b5090915060009050736e1af0e043c18ead53a5b9886d4901dd6b67a22f610e8986612bd9612733565b604051600081818185875af1925050503d8060008114610ec5576040519150601f19603f3d011682016040523d82523d6000602084013e610eca565b606091505b509091506000905073e0c5123b0fd1a7d94bb8d84bbaf1026b699c6dc6610ef387612bd9612733565b604051600081818185875af1925050503d8060008114610f2f576040519150601f19603f3d011682016040523d82523d6000602084013e610f34565b606091505b509091506000905073e8f46fad3478eea1c67ec027952b5120aa8848b2610f5d886109f6612733565b604051600081818185875af1925050503d8060008114610f99576040519150601f19603f3d011682016040523d82523d6000602084013e610f9e565b606091505b505060016009555050505050505050565b6108a78383836040518060200160405280600081525061148a565b6000610fd560015490565b821061102f5760405162461bcd60e51b815260206004820152602360248201527f455243373231413a20676c6f62616c20696e646578206f7574206f6620626f756044820152626e647360e81b60648201526084016106e4565b5090565b6000546001600160a01b0316331461105d5760405162461bcd60e51b81526004016106e49061278c565b600c6108a782848361284a565b600061107582611b4b565b5192915050565b600c805461108990612752565b80601f01602080910402602001604051908101604052809291908181526020018280546110b590612752565b80156111025780601f106110d757610100808354040283529160200191611102565b820191906000526020600020905b8154815290600101906020018083116110e557829003601f168201915b505050505081565b60006001600160a01b0382166111765760405162461bcd60e51b815260206004820152602b60248201527f455243373231413a2062616c616e636520717565727920666f7220746865207a60448201526a65726f206164647265737360a81b60648201526084016106e4565b506001600160a01b03166000908152600560205260409020546001600160801b031690565b6000546001600160a01b031633146111c55760405162461bcd60e51b81526004016106e49061278c565b6111cf6000611cf5565b565b6000546001600160a01b031633146111fb5760405162461bcd60e51b81526004016106e49061278c565b600b55565b6060600380546108bb90612752565b6000546001600160a01b031633146112395760405162461bcd60e51b81526004016106e49061278c565b610d058261124660015490565b611250919061269a565b111561126e5760405162461bcd60e51b81526004016106e4906126b2565b61127881836116af565b5050565b610d058161128960015490565b611293919061269a565b11156112b15760405162461bcd60e51b81526004016106e4906126b2565b600a546002146112f45760405162461bcd60e51b815260206004820152600e60248201526d13525395125391d7d4105554d15160921b60448201526064016106e4565b600081118015611305575060028111155b6113215760405162461bcd60e51b81526004016106e4906126e9565b346113348267011c37937e080000612733565b11156113735760405162461bcd60e51b815260206004820152600e60248201526d414d4f554e545f544f4f5f4c4f5760901b60448201526064016106e4565b3233146113b95760405162461bcd60e51b815260206004820152601460248201527353454e4445525f49535f4e4f545f414e5f454f4160601b60448201526064016106e4565b6113c333826116af565b50565b336001600160a01b0383160361141e5760405162461bcd60e51b815260206004820152601a60248201527f455243373231413a20617070726f766520746f2063616c6c657200000000000060448201526064016106e4565b3360008181526007602090815260408083206001600160a01b03871680855290835292819020805460ff191686151590811790915590519081529192917f17307eab39ab6107e8899845ad3d59bd9653f200f220920489ca2b5937696c31910160405180910390a35050565b6114958484846117c3565b6114a184848484611d45565b6114bd5760405162461bcd60e51b81526004016106e49061290b565b50505050565b60606114d0826001541190565b6115345760405162461bcd60e51b815260206004820152602f60248201527f4552433732314d657461646174613a2055524920717565727920666f72206e6f60448201526e3732bc34b9ba32b73a103a37b5b2b760891b60648201526084016106e4565b600061153e611e46565b9050600081511161155e5760405180602001604052806000815250611589565b8061156884611e55565b60405160200161157992919061295e565b6040516020818303038152906040525b9392505050565b6000546001600160a01b031633146115ba5760405162461bcd60e51b81526004016106e49061278c565b6001600160a01b03811661161f5760405162461bcd60e51b815260206004820152602660248201527f4f776e61626c653a206e6577206f776e657220697320746865207a65726f206160448201526564647265737360d01b60648201526084016106e4565b6113c381611cf5565b6040516bffffffffffffffffffffffff193360601b16602082015260009081906034016040516020818303038152906040528051906020012090506116a7600b5482868680806020026020016040519081016040528093929190818152602001838360200280828437600092019190915250929493925050611f569050565b949350505050565b611278828260405180602001604052806000815250611f6c565b60008281526006602052604080822080546001600160a01b0319166001600160a01b0387811691821790925591518593918516917f8c5be1e5ebec7d5bd14f71427d1e84f3dd0314c0f7b2291e5b200ac8c7c3b92591a4505050565b60006001600160a01b0382166117975760405162461bcd60e51b815260206004820152603160248201527f455243373231413a206e756d626572206d696e74656420717565727920666f7260448201527020746865207a65726f206164647265737360781b60648201526084016106e4565b506001600160a01b0316600090815260056020526040902054600160801b90046001600160801b031690565b60006117ce82611b4b565b80519091506000906001600160a01b0316336001600160a01b031614806118055750336117fa8461093e565b6001600160a01b0316145b806118175750815161181790336105f4565b9050806118815760405162461bcd60e51b815260206004820152603260248201527f455243373231413a207472616e736665722063616c6c6572206973206e6f74206044820152711bdddb995c881b9bdc88185c1c1c9bdd995960721b60648201526084016106e4565b846001600160a01b031682600001516001600160a01b0316146118f55760405162461bcd60e51b815260206004820152602660248201527f455243373231413a207472616e736665722066726f6d20696e636f72726563746044820152651037bbb732b960d11b60648201526084016106e4565b6001600160a01b0384166119595760405162461bcd60e51b815260206004820152602560248201527f455243373231413a207472616e7366657220746f20746865207a65726f206164604482015264647265737360d81b60648201526084016106e4565b61196960008484600001516116c9565b6001600160a01b038516600090815260056020526040812080546001929061199b9084906001600160801b031661298d565b82546101009290920a6001600160801b038181021990931691831602179091556001600160a01b038616600090815260056020526040812080546001945090926119e7918591166129b5565b82546001600160801b039182166101009390930a9283029190920219909116179055506040805180820182526001600160a01b03808716825267ffffffffffffffff428116602080850191825260008981526004909152948520935184549151909216600160a01b026001600160e01b03199091169190921617179055611a6f84600161269a565b6000818152600460205260409020549091506001600160a01b0316611b0157611a99816001541190565b15611b015760408051808201825284516001600160a01b03908116825260208087015167ffffffffffffffff9081168285019081526000878152600490935294909120925183549451909116600160a01b026001600160e01b03199094169116179190911790555b83856001600160a01b0316876001600160a01b03167fddf252ad1be2c89b69c2b068fc378daa952ba7f163c4a11628f55a4df523b3ef60405160405180910390a45b505050505050565b6040805180820190915260008082526020820152611b6a826001541190565b611bc95760405162461bcd60e51b815260206004820152602a60248201527f455243373231413a206f776e657220717565727920666f72206e6f6e657869736044820152693a32b73a103a37b5b2b760b11b60648201526084016106e4565b60007f00000000000000000000000000000000000000000000000000000000000000008310611c2a57611c1c7f0000000000000000000000000000000000000000000000000000000000000000846129d7565b611c2790600161269a565b90505b825b818110611c94576000818152600460209081526040918290208251808401909352546001600160a01b038116808452600160a01b90910467ffffffffffffffff169183019190915215611c8157949350505050565b5080611c8c816129ee565b915050611c2c565b5060405162461bcd60e51b815260206004820152602f60248201527f455243373231413a20756e61626c6520746f2064657465726d696e652074686560448201526e1037bbb732b91037b3103a37b5b2b760891b60648201526084016106e4565b600080546001600160a01b038381166001600160a01b0319831681178455604051919092169283917f8be0079c531659141344cd1fd0a4f28419497f9722a3daafe3b4186f6b6457e09190a35050565b60006001600160a01b0384163b15611e3b57604051630a85bd0160e11b81526001600160a01b0385169063150b7a0290611d89903390899088908890600401612a05565b6020604051808303816000875af1925050508015611dc4575060408051601f3d908101601f19168201909252611dc191810190612a42565b60015b611e21573d808015611df2576040519150601f19603f3d011682016040523d82523d6000602084013e611df7565b606091505b508051600003611e195760405162461bcd60e51b81526004016106e49061290b565b805181602001fd5b6001600160e01b031916630a85bd0160e11b1490506116a7565b506001949350505050565b6060600c80546108bb90612752565b606081600003611e7c5750506040805180820190915260018152600360fc1b602082015290565b8160005b8115611ea65780611e90816127c1565b9150611e9f9050600a836127f0565b9150611e80565b60008167ffffffffffffffff811115611ec157611ec1612568565b6040519080825280601f01601f191660200182016040528015611eeb576020820181803683370190505b5090505b84156116a757611f006001836129d7565b9150611f0d600a86612a5f565b611f1890603061269a565b60f81b818381518110611f2d57611f2d612a73565b60200101906001600160f81b031916908160001a905350611f4f600a866127f0565b9450611eef565b600082611f638584612247565b14949350505050565b6001546001600160a01b038416611fcf5760405162461bcd60e51b815260206004820152602160248201527f455243373231413a206d696e7420746f20746865207a65726f206164647265736044820152607360f81b60648201526084016106e4565b611fda816001541190565b156120275760405162461bcd60e51b815260206004820152601d60248201527f455243373231413a20746f6b656e20616c7265616479206d696e74656400000060448201526064016106e4565b7f00000000000000000000000000000000000000000000000000000000000000008311156120a25760405162461bcd60e51b815260206004820152602260248201527f455243373231413a207175616e7469747920746f206d696e7420746f6f2068696044820152610ced60f31b60648201526084016106e4565b6001600160a01b0384166000908152600560209081526040918290208251808401845290546001600160801b038082168352600160801b90910416918101919091528151808301909252805190919081906120fe9087906129b5565b6001600160801b0316815260200185836020015161211c91906129b5565b6001600160801b039081169091526001600160a01b0380881660008181526005602090815260408083208751978301518716600160801b0297909616969096179094558451808601865291825267ffffffffffffffff4281168386019081528883526004909552948120915182549451909516600160a01b026001600160e01b031990941694909216939093179190911790915582905b8581101561223c5760405182906001600160a01b038916906000907fddf252ad1be2c89b69c2b068fc378daa952ba7f163c4a11628f55a4df523b3ef908290a46122006000888488611d45565b61221c5760405162461bcd60e51b81526004016106e49061290b565b81612226816127c1565b9250508080612234906127c1565b9150506121b3565b506001819055611b43565b600081815b84518110156122b357600085828151811061226957612269612a73565b6020026020010151905080831161228f57600083815260208290526040902092506122a0565b600081815260208490526040902092505b50806122ab816127c1565b91505061224c565b509392505050565b6001600160e01b0319811681146113c357600080fd5b6000602082840312156122e357600080fd5b8135611589816122bb565b60008060006040848603121561230357600080fd5b83359250602084013567ffffffffffffffff8082111561232257600080fd5b818601915086601f83011261233657600080fd5b81358181111561234557600080fd5b8760208260051b850101111561235a57600080fd5b6020830194508093505050509250925092565b60005b83811015612388578181015183820152602001612370565b838111156114bd5750506000910152565b600081518084526123b181602086016020860161236d565b601f01601f19169290920160200192915050565b6020815260006115896020830184612399565b6000602082840312156123ea57600080fd5b5035919050565b80356001600160a01b038116811461240857600080fd5b919050565b6000806040838503121561242057600080fd5b612429836123f1565b946020939093013593505050565b60006020828403121561244957600080fd5b611589826123f1565b60008060006060848603121561246757600080fd5b612470846123f1565b925061247e602085016123f1565b9150604084013590509250925092565b600080602083850312156124a157600080fd5b823567ffffffffffffffff808211156124b957600080fd5b818501915085601f8301126124cd57600080fd5b8135818111156124dc57600080fd5b8660208285010111156124ee57600080fd5b60209290920196919550909350505050565b6000806040838503121561251357600080fd5b82359150612523602084016123f1565b90509250929050565b6000806040838503121561253f57600080fd5b612548836123f1565b91506020830135801515811461255d57600080fd5b809150509250929050565b634e487b7160e01b600052604160045260246000fd5b6000806000806080858703121561259457600080fd5b61259d856123f1565b93506125ab602086016123f1565b925060408501359150606085013567ffffffffffffffff808211156125cf57600080fd5b818701915087601f8301126125e357600080fd5b8135818111156125f5576125f5612568565b604051601f8201601f19908116603f0116810190838211818310171561261d5761261d612568565b816040528281528a602084870101111561263657600080fd5b82602086016020830137600060208483010152809550505050505092959194509250565b6000806040838503121561266d57600080fd5b612676836123f1565b9150612523602084016123f1565b634e487b7160e01b600052601160045260246000fd5b600082198211156126ad576126ad612684565b500190565b60208082526019908201527f4d494e545f455843454544535f544f54414c5f535550504c5900000000000000604082015260600190565b6020808252602a908201527f4d494e545f455843454544535f4c494d49545f414c4c4f5745445f5045525f546040820152692920a729a0a1aa24a7a760b11b606082015260800190565b600081600019048311821515161561274d5761274d612684565b500290565b600181811c9082168061276657607f821691505b60208210810361278657634e487b7160e01b600052602260045260246000fd5b50919050565b6020808252818101527f4f776e61626c653a2063616c6c6572206973206e6f7420746865206f776e6572604082015260600190565b6000600182016127d3576127d3612684565b5060010190565b634e487b7160e01b600052601260045260246000fd5b6000826127ff576127ff6127da565b500490565b601f8211156108a757600081815260208120601f850160051c8101602086101561282b5750805b601f850160051c820191505b81811015611b4357828155600101612837565b67ffffffffffffffff83111561286257612862612568565b612876836128708354612752565b83612804565b6000601f8411600181146128aa57600085156128925750838201355b600019600387901b1c1916600186901b178355612904565b600083815260209020601f19861690835b828110156128db57868501358255602094850194600190920191016128bb565b50868210156128f85760001960f88860031b161c19848701351681555b505060018560011b0183555b5050505050565b60208082526033908201527f455243373231413a207472616e7366657220746f206e6f6e204552433732315260408201527232b1b2b4bb32b91034b6b83632b6b2b73a32b960691b606082015260800190565b6000835161297081846020880161236d565b83519083019061298481836020880161236d565b01949350505050565b60006001600160801b03838116908316818110156129ad576129ad612684565b039392505050565b60006001600160801b0380831681851680830382111561298457612984612684565b6000828210156129e9576129e9612684565b500390565b6000816129fd576129fd612684565b506000190190565b6001600160a01b0385811682528416602082015260408101839052608060608201819052600090612a3890830184612399565b9695505050505050565b600060208284031215612a5457600080fd5b8151611589816122bb565b600082612a6e57612a6e6127da565b500690565b634e487b7160e01b600052603260045260246000fdfea2646970667358221220ca30f33f5d99628720d138a26a66e60e3fdef366ac24c9decfe6cd0f6fd1188464736f6c634300080f0033",
  "immutableReferences": {
    "1029": [
      {
        "length": 32,
        "start": 7117
      },
      {
        "length": 32,
        "start": 7159
      },
      {
        "length": 32,
        "start": 8233
      }
    ]
  },
  "source": "// SPDX-License-Identifier: MIT\npragma solidity ^0.8.15;\n\n/*\n    \n    \n    \n\n     / 2022 / V1.0\n     \n*/\n\nimport \"@openzeppelin/contracts/utils/cryptography/MerkleProof.sol\";\nimport \"@openzeppelin/contracts/security/ReentrancyGuard.sol\";\nimport \"@openzeppelin/contracts/access/Ownable.sol\";\nimport \"./ERC721A.sol\";\n\ncontract Heiki is Ownable, ERC721A, ReentrancyGuard {\n    using MerkleProof for bytes32[];\n\n    uint256 public constant MAX_SUPPLY = 3333;\n    uint256 public constant MINT_LIMIT = 2;\n\n    uint256 public constant PRESALE_MINT_PRICE = 0.065 ether;\n    uint256 public constant PUBLIC_MINT_PRICE = 0.08 ether;\n\n    /// @dev Inactive = 0; Presale = 1; Public = 2\n    uint256 public saleFlag;\n\n    bytes32 public merkleRoot;\n    string public baseURI;\n    \n    mapping(address => uint256) private whitelistMints;\n\n    constructor() ERC721A(\"Heiki\", \"HEIKI\", 50, MAX_SUPPLY) {}\n\n    function verifyProof(bytes32[] calldata _proof) internal view returns (bool) {\n        bytes32 leaf = keccak256(abi.encodePacked(msg.sender));\n        return _proof.verify(merkleRoot, leaf);\n    }\n\n    function getNMinted(address owner) public view returns (uint256) {\n        return _numberMinted(owner);\n    }\n\n    function setBaseURI(string calldata _base) external onlyOwner {\n        baseURI = _base;\n    }\n\n    function _baseURI() internal view virtual override returns (string memory) {\n        return baseURI;\n    }\n\n    function setSaleFlag(uint256 _flag) external onlyOwner {\n        saleFlag = _flag;\n    }\n\n    function setMerkleRoot(bytes32 _new) external onlyOwner {\n        merkleRoot = _new;\n    }\n\n    function mint(uint256 _quantity) external payable {\n        require(totalSupply() + _quantity <= MAX_SUPPLY, \"MINT_EXCEEDS_TOTAL_SUPPLY\");\n\n        require(saleFlag == 2, \"MINTING_PAUSED\");\n        require(_quantity > 0 && _quantity <= MINT_LIMIT, \"MINT_EXCEEDS_LIMIT_ALLOWED_PER_TRANSACTION\");\n        require(PUBLIC_MINT_PRICE * _quantity <= msg.value, \"AMOUNT_TOO_LOW\");\n        require(tx.origin == msg.sender, \"SENDER_IS_NOT_AN_EOA\");\n\n        _safeMint(msg.sender, _quantity);\n    }\n\n    function mintWhitelist(uint256 _quantity, bytes32[] calldata _proof) external payable {\n        require(totalSupply() + _quantity <= MAX_SUPPLY, \"MINT_EXCEEDS_TOTAL_SUPPLY\");\n\n        require(saleFlag == 1, \"MINTING_PAUSED\");\n        require(verifyProof(_proof), \"INVALID_MERKLE_PROOF\");\n        require(whitelistMints[msg.sender] + _quantity <= MINT_LIMIT, \"MINT_EXCEEDS_LIMIT_ALLOWED_FOR_WHITELIST\");\n        require(_quantity > 0 && _quantity <= MINT_LIMIT, \"MINT_EXCEEDS_LIMIT_ALLOWED_PER_TRANSACTION\");\n        require(PRESALE_MINT_PRICE * _quantity <= msg.value, \"AMOUNT_TOO_LOW\");\n\n        whitelistMints[msg.sender] += _quantity;\n\n        _safeMint(msg.sender, _quantity);\n    }\n\n    function mintOwner(uint256 _quantity, address _to) external onlyOwner {\n        require(totalSupply() + _quantity <= MAX_SUPPLY, \"MINT_EXCEEDS_TOTAL_SUPPLY\");\n\n        _safeMint(_to, _quantity);\n    }\n\n    /** @notice\n     * ALLOCATIONS:\n     *  - Community Multisig: 25% (Signers: Bitquence, sOwner1, sOwner2 / 2 of 2 signatures)\n     *  - Owners: 50%\n     *  - Developpers: 22.45%\n     *  - Artist: 2.55%\n     */\n    function withdraw() external onlyOwner nonReentrant {        \n        uint256 balanceDividend = address(this).balance / 100000;\n\n        (bool sComm,) = address(0x005957b04Afa8A1B65C4632753d2C4dA6d84b64f).call{value: balanceDividend * 25000}(\"\");\n        (bool sOwner1,) = address(0xEC4f373A70d5Bb5371df8A33951B898B7219f82C).call{value: balanceDividend * 25000}(\"\");\n        (bool sOwner2,) = address(0x4494949245C3C432177C66adf32e272477D6aaFc).call{value: balanceDividend * 25000}(\"\");\n        (bool sDev1,) = address(0x6e1af0E043C18eAd53A5B9886D4901Dd6B67a22f).call{value: balanceDividend * 11225}(\"\");\n        (bool sDev2,) = address(0xe0C5123B0FD1A7D94bB8D84bBAF1026B699C6dC6).call{value: balanceDividend * 11225}(\"\");\n        (bool sArt,) = address(0xe8f46FaD3478EEa1c67eC027952B5120aA8848B2).call{value: balanceDividend * 2550}(\"\");\n    }\n}\n",
  "sourcePath": "/Users/macpc/Projects/TomoeGozenSmartContract/contracts/Heiki.sol",
  "compiler": {
    "name": "solc",
    "version": "0.8.15+commit.e14f2714.Emscripten.clang"
  },
  "schemaVersion": "3.4.7",
  "updatedAt": "2022-06-24T15:12:01.795Z",
  "networkType": "ethereum",
  "devdoc": {
    "kind": "dev",
    "methods": {
      "approve(address,uint256)": {
        "details": "See {IERC721-approve}."
      },
      "balanceOf(address)": {
        "details": "See {IERC721-balanceOf}."
      },
      "getApproved(uint256)": {
        "details": "See {IERC721-getApproved}."
      },
      "isApprovedForAll(address,address)": {
        "details": "See {IERC721-isApprovedForAll}."
      },
      "name()": {
        "details": "See {IERC721Metadata-name}."
      },
      "owner()": {
        "details": "Returns the address of the current owner."
      },
      "ownerOf(uint256)": {
        "details": "See {IERC721-ownerOf}."
      },
      "renounceOwnership()": {
        "details": "Leaves the contract without owner. It will not be possible to call `onlyOwner` functions anymore. Can only be called by the current owner. NOTE: Renouncing ownership will leave the contract without an owner, thereby removing any functionality that is only available to the owner."
      },
      "safeTransferFrom(address,address,uint256)": {
        "details": "See {IERC721-safeTransferFrom}."
      },
      "safeTransferFrom(address,address,uint256,bytes)": {
        "details": "See {IERC721-safeTransferFrom}."
      },
      "setApprovalForAll(address,bool)": {
        "details": "See {IERC721-setApprovalForAll}."
      },
      "supportsInterface(bytes4)": {
        "details": "See {IERC165-supportsInterface}."
      },
      "symbol()": {
        "details": "See {IERC721Metadata-symbol}."
      },
      "tokenByIndex(uint256)": {
        "details": "See {IERC721Enumerable-tokenByIndex}."
      },
      "tokenOfOwnerByIndex(address,uint256)": {
        "details": "See {IERC721Enumerable-tokenOfOwnerByIndex}. This read function is O(collectionSize). If calling from a separate contract, be sure to test gas first. It may also degrade with extremely large collection sizes (e.g >> 10000), test for your use case."
      },
      "tokenURI(uint256)": {
        "details": "See {IERC721Metadata-tokenURI}."
      },
      "totalSupply()": {
        "details": "See {IERC721Enumerable-totalSupply}."
      },
      "transferFrom(address,address,uint256)": {
        "details": "See {IERC721-transferFrom}."
      },
      "transferOwnership(address)": {
        "details": "Transfers ownership of the contract to a new account (`newOwner`). Can only be called by the current owner."
      }
    },
    "stateVariables": {
      "saleFlag": {
        "details": "Inactive = 0; Presale = 1; Public = 2"
      }
    },
    "version": 1
  },
  "userdoc": {
    "kind": "user",
    "methods": {
      "withdraw()": {
        "notice": "ALLOCATIONS:  - Community Multisig: 25% (Signers: Bitquence, sOwner1, sOwner2 / 2 of 2 signatures)  - Owners: 50%  - Developpers: 22.45%  - Artist: 2.55%"
      }
    },
    "version": 1
  }
}