{
  "contractName": "Alphav3",
  "abi": [
    {
      "inputs": [],
      "stateMutability": "nonpayable",
      "type": "constructor"
    },
    {
      "anonymous": false,
      "inputs": [
        {
          "indexed": true,
          "internalType": "address",
          "name": "owner",
          "type": "address"
        },
        {
          "indexed": true,
          "internalType": "address",
          "name": "approved",
          "type": "address"
        },
        {
          "indexed": true,
          "internalType": "uint256",
          "name": "tokenId",
          "type": "uint256"
        }
      ],
      "name": "Approval",
      "type": "event"
    },
    {
      "anonymous": false,
      "inputs": [
        {
          "indexed": true,
          "internalType": "address",
          "name": "owner",
          "type": "address"
        },
        {
          "indexed": true,
          "internalType": "address",
          "name": "operator",
          "type": "address"
        },
        {
          "indexed": false,
          "internalType": "bool",
          "name": "approved",
          "type": "bool"
        }
      ],
      "name": "ApprovalForAll",
      "type": "event"
    },
    {
      "anonymous": false,
      "inputs": [
        {
          "indexed": true,
          "internalType": "address",
          "name": "previousOwner",
          "type": "address"
        },
        {
          "indexed": true,
          "internalType": "address",
          "name": "newOwner",
          "type": "address"
        }
      ],
      "name": "OwnershipTransferred",
      "type": "event"
    },
    {
      "anonymous": false,
      "inputs": [
        {
          "indexed": true,
          "internalType": "address",
          "name": "from",
          "type": "address"
        },
        {
          "indexed": true,
          "internalType": "address",
          "name": "to",
          "type": "address"
        },
        {
          "indexed": true,
          "internalType": "uint256",
          "name": "tokenId",
          "type": "uint256"
        }
      ],
      "name": "Transfer",
      "type": "event"
    },
    {
      "inputs": [],
      "name": "MAX_SUPPLY",
      "outputs": [
        {
          "internalType": "uint256",
          "name": "",
          "type": "uint256"
        }
      ],
      "stateMutability": "view",
      "type": "function",
      "constant": true
    },
    {
      "inputs": [],
      "name": "MINT_LIMIT",
      "outputs": [
        {
          "internalType": "uint256",
          "name": "",
          "type": "uint256"
        }
      ],
      "stateMutability": "view",
      "type": "function",
      "constant": true
    },
    {
      "inputs": [],
      "name": "PRESALE_MINT_PRICE",
      "outputs": [
        {
          "internalType": "uint256",
          "name": "",
          "type": "uint256"
        }
      ],
      "stateMutability": "view",
      "type": "function",
      "constant": true
    },
    {
      "inputs": [],
      "name": "PUBLIC_MINT_PRICE",
      "outputs": [
        {
          "internalType": "uint256",
          "name": "",
          "type": "uint256"
        }
      ],
      "stateMutability": "view",
      "type": "function",
      "constant": true
    },
    {
      "inputs": [
        {
          "internalType": "address",
          "name": "to",
          "type": "address"
        },
        {
          "internalType": "uint256",
          "name": "tokenId",
          "type": "uint256"
        }
      ],
      "name": "approve",
      "outputs": [],
      "stateMutability": "nonpayable",
      "type": "function"
    },
    {
      "inputs": [
        {
          "internalType": "address",
          "name": "owner",
          "type": "address"
        }
      ],
      "name": "balanceOf",
      "outputs": [
        {
          "internalType": "uint256",
          "name": "",
          "type": "uint256"
        }
      ],
      "stateMutability": "view",
      "type": "function",
      "constant": true
    },
    {
      "inputs": [],
      "name": "baseURI",
      "outputs": [
        {
          "internalType": "string",
          "name": "",
          "type": "string"
        }
      ],
      "stateMutability": "view",
      "type": "function",
      "constant": true
    },
    {
      "inputs": [
        {
          "internalType": "uint256",
          "name": "tokenId",
          "type": "uint256"
        }
      ],
      "name": "getApproved",
      "outputs": [
        {
          "internalType": "address",
          "name": "",
          "type": "address"
        }
      ],
      "stateMutability": "view",
      "type": "function",
      "constant": true
    },
    {
      "inputs": [
        {
          "internalType": "address",
          "name": "owner",
          "type": "address"
        },
        {
          "internalType": "address",
          "name": "operator",
          "type": "address"
        }
      ],
      "name": "isApprovedForAll",
      "outputs": [
        {
          "internalType": "bool",
          "name": "",
          "type": "bool"
        }
      ],
      "stateMutability": "view",
      "type": "function",
      "constant": true
    },
    {
      "inputs": [],
      "name": "merkleRoot",
      "outputs": [
        {
          "internalType": "bytes32",
          "name": "",
          "type": "bytes32"
        }
      ],
      "stateMutability": "view",
      "type": "function",
      "constant": true
    },
    {
      "inputs": [],
      "name": "name",
      "outputs": [
        {
          "internalType": "string",
          "name": "",
          "type": "string"
        }
      ],
      "stateMutability": "view",
      "type": "function",
      "constant": true
    },
    {
      "inputs": [],
      "name": "nextOwnerToExplicitlySet",
      "outputs": [
        {
          "internalType": "uint256",
          "name": "",
          "type": "uint256"
        }
      ],
      "stateMutability": "view",
      "type": "function",
      "constant": true
    },
    {
      "inputs": [],
      "name": "owner",
      "outputs": [
        {
          "internalType": "address",
          "name": "",
          "type": "address"
        }
      ],
      "stateMutability": "view",
      "type": "function",
      "constant": true
    },
    {
      "inputs": [
        {
          "internalType": "uint256",
          "name": "tokenId",
          "type": "uint256"
        }
      ],
      "name": "ownerOf",
      "outputs": [
        {
          "internalType": "address",
          "name": "",
          "type": "address"
        }
      ],
      "stateMutability": "view",
      "type": "function",
      "constant": true
    },
    {
      "inputs": [],
      "name": "renounceOwnership",
      "outputs": [],
      "stateMutability": "nonpayable",
      "type": "function"
    },
    {
      "inputs": [
        {
          "internalType": "address",
          "name": "from",
          "type": "address"
        },
        {
          "internalType": "address",
          "name": "to",
          "type": "address"
        },
        {
          "internalType": "uint256",
          "name": "tokenId",
          "type": "uint256"
        }
      ],
      "name": "safeTransferFrom",
      "outputs": [],
      "stateMutability": "nonpayable",
      "type": "function"
    },
    {
      "inputs": [
        {
          "internalType": "address",
          "name": "from",
          "type": "address"
        },
        {
          "internalType": "address",
          "name": "to",
          "type": "address"
        },
        {
          "internalType": "uint256",
          "name": "tokenId",
          "type": "uint256"
        },
        {
          "internalType": "bytes",
          "name": "_data",
          "type": "bytes"
        }
      ],
      "name": "safeTransferFrom",
      "outputs": [],
      "stateMutability": "nonpayable",
      "type": "function"
    },
    {
      "inputs": [],
      "name": "saleFlag",
      "outputs": [
        {
          "internalType": "uint256",
          "name": "",
          "type": "uint256"
        }
      ],
      "stateMutability": "view",
      "type": "function",
      "constant": true
    },
    {
      "inputs": [
        {
          "internalType": "address",
          "name": "operator",
          "type": "address"
        },
        {
          "internalType": "bool",
          "name": "approved",
          "type": "bool"
        }
      ],
      "name": "setApprovalForAll",
      "outputs": [],
      "stateMutability": "nonpayable",
      "type": "function"
    },
    {
      "inputs": [
        {
          "internalType": "bytes4",
          "name": "interfaceId",
          "type": "bytes4"
        }
      ],
      "name": "supportsInterface",
      "outputs": [
        {
          "internalType": "bool",
          "name": "",
          "type": "bool"
        }
      ],
      "stateMutability": "view",
      "type": "function",
      "constant": true
    },
    {
      "inputs": [],
      "name": "symbol",
      "outputs": [
        {
          "internalType": "string",
          "name": "",
          "type": "string"
        }
      ],
      "stateMutability": "view",
      "type": "function",
      "constant": true
    },
    {
      "inputs": [
        {
          "internalType": "uint256",
          "name": "index",
          "type": "uint256"
        }
      ],
      "name": "tokenByIndex",
      "outputs": [
        {
          "internalType": "uint256",
          "name": "",
          "type": "uint256"
        }
      ],
      "stateMutability": "view",
      "type": "function",
      "constant": true
    },
    {
      "inputs": [
        {
          "internalType": "address",
          "name": "owner",
          "type": "address"
        },
        {
          "internalType": "uint256",
          "name": "index",
          "type": "uint256"
        }
      ],
      "name": "tokenOfOwnerByIndex",
      "outputs": [
        {
          "internalType": "uint256",
          "name": "",
          "type": "uint256"
        }
      ],
      "stateMutability": "view",
      "type": "function",
      "constant": true
    },
    {
      "inputs": [
        {
          "internalType": "uint256",
          "name": "tokenId",
          "type": "uint256"
        }
      ],
      "name": "tokenURI",
      "outputs": [
        {
          "internalType": "string",
          "name": "",
          "type": "string"
        }
      ],
      "stateMutability": "view",
      "type": "function",
      "constant": true
    },
    {
      "inputs": [],
      "name": "totalSupply",
      "outputs": [
        {
          "internalType": "uint256",
          "name": "",
          "type": "uint256"
        }
      ],
      "stateMutability": "view",
      "type": "function",
      "constant": true
    },
    {
      "inputs": [
        {
          "internalType": "address",
          "name": "from",
          "type": "address"
        },
        {
          "internalType": "address",
          "name": "to",
          "type": "address"
        },
        {
          "internalType": "uint256",
          "name": "tokenId",
          "type": "uint256"
        }
      ],
      "name": "transferFrom",
      "outputs": [],
      "stateMutability": "nonpayable",
      "type": "function"
    },
    {
      "inputs": [
        {
          "internalType": "address",
          "name": "newOwner",
          "type": "address"
        }
      ],
      "name": "transferOwnership",
      "outputs": [],
      "stateMutability": "nonpayable",
      "type": "function"
    },
    {
      "inputs": [
        {
          "internalType": "address",
          "name": "owner",
          "type": "address"
        }
      ],
      "name": "getNMinted",
      "outputs": [
        {
          "internalType": "uint256",
          "name": "",
          "type": "uint256"
        }
      ],
      "stateMutability": "view",
      "type": "function",
      "constant": true
    },
    {
      "inputs": [
        {
          "internalType": "string",
          "name": "_base",
          "type": "string"
        }
      ],
      "name": "setBaseURI",
      "outputs": [],
      "stateMutability": "nonpayable",
      "type": "function"
    },
    {
      "inputs": [
        {
          "internalType": "uint256",
          "name": "_flag",
          "type": "uint256"
        }
      ],
      "name": "setSaleFlag",
      "outputs": [],
      "stateMutability": "nonpayable",
      "type": "function"
    },
    {
      "inputs": [
        {
          "internalType": "bytes32",
          "name": "_new",
          "type": "bytes32"
        }
      ],
      "name": "setMerkleRoot",
      "outputs": [],
      "stateMutability": "nonpayable",
      "type": "function"
    },
    {
      "inputs": [
        {
          "internalType": "uint256",
          "name": "_quantity",
          "type": "uint256"
        }
      ],
      "name": "mint",
      "outputs": [],
      "stateMutability": "payable",
      "type": "function",
      "payable": true
    },
    {
      "inputs": [
        {
          "internalType": "uint256",
          "name": "_quantity",
          "type": "uint256"
        },
        {
          "internalType": "bytes32[]",
          "name": "_proof",
          "type": "bytes32[]"
        }
      ],
      "name": "mintWhitelist",
      "outputs": [],
      "stateMutability": "payable",
      "type": "function",
      "payable": true
    },
    {
      "inputs": [
        {
          "internalType": "uint256",
          "name": "_quantity",
          "type": "uint256"
        },
        {
          "internalType": "address",
          "name": "_to",
          "type": "address"
        }
      ],
      "name": "mintOwner",
      "outputs": [],
      "stateMutability": "nonpayable",
      "type": "function"
    },
    {
      "inputs": [],
      "name": "withdraw",
      "outputs": [],
      "stateMutability": "nonpayable",
      "type": "function"
    }
  ],
  "bytecode": "0x60c0604052600060015560006008553480156200001b57600080fd5b5060405180604001604052806007815260200166416c706861763360c81b81525060405180604001604052806007815260200166414c504841563360c81b8152506032610d056200007b620000756200017e60201b60201c565b62000182565b60008111620000e85760405162461bcd60e51b815260206004820152602e60248201527f455243373231413a20636f6c6c656374696f6e206d757374206861766520612060448201526d6e6f6e7a65726f20737570706c7960901b60648201526084015b60405180910390fd5b600082116200014a5760405162461bcd60e51b815260206004820152602760248201527f455243373231413a206d61782062617463682073697a65206d757374206265206044820152666e6f6e7a65726f60c81b6064820152608401620000df565b600262000158858262000277565b50600362000167848262000277565b5060a0919091526080525050600160095562000343565b3390565b600080546001600160a01b038381166001600160a01b0319831681178455604051919092169283917f8be0079c531659141344cd1fd0a4f28419497f9722a3daafe3b4186f6b6457e09190a35050565b634e487b7160e01b600052604160045260246000fd5b600181811c90821680620001fd57607f821691505b6020821081036200021e57634e487b7160e01b600052602260045260246000fd5b50919050565b601f8211156200027257600081815260208120601f850160051c810160208610156200024d5750805b601f850160051c820191505b818110156200026e5782815560010162000259565b5050505b505050565b81516001600160401b03811115620002935762000293620001d2565b620002ab81620002a48454620001e8565b8462000224565b602080601f831160018114620002e35760008415620002ca5750858301515b600019600386901b1c1916600185901b1785556200026e565b600085815260208120601f198616915b828110156200031457888601518255948401946001909101908401620002f3565b5085821015620003335787850151600019600388901b60f8161c191681555b5050505050600190811b01905550565b60805160a051612b046200037460003960008181611c1201528181611c3c015261206e015260005050612b046000f3fe6080604052600436106102045760003560e01c806355f804b31161011857806395d89b41116100a0578063b88d4fde1161006f578063b88d4fde14610583578063c87b56dd146105a3578063d7224ba0146105c3578063e985e9c5146105d9578063f2fde38b1461062257600080fd5b806395d89b411461051b5780639f15df1214610530578063a0712d6814610550578063a22cb4651461056357600080fd5b80636c0360eb116100e75780636c0360eb1461049357806370a08231146104a8578063715018a6146104c85780637cb64759146104dd5780638da5cb5b146104fd57600080fd5b806355f804b314610421578063614bfc55146104415780636352211e146104575780636bde26271461047757600080fd5b806323b872dd1161019b5780632f745c591161016a5780632f745c591461039657806332cb6b0c146103b65780633ccfd60b146103cc57806342842e0e146103e15780634f6ccce71461040157600080fd5b806323b872dd1461032557806327b6fb33146103455780632a234e57146103655780632eb4a7ab1461038057600080fd5b8063081812fc116101d7578063081812fc14610298578063095ea7b3146102d057806318160ddd146102f05780631ff8f6021461030557600080fd5b806301ffc9a714610209578063027752401461023e578063061431a81461026157806306fdde0314610276575b600080fd5b34801561021557600080fd5b50610229610224366004612316565b610642565b60405190151581526020015b60405180910390f35b34801561024a57600080fd5b50610253600281565b604051908152602001610235565b61027461026f366004612333565b6106af565b005b34801561028257600080fd5b5061028b6108ac565b604051610235919061240a565b3480156102a457600080fd5b506102b86102b336600461241d565b61093e565b6040516001600160a01b039091168152602001610235565b3480156102dc57600080fd5b506102746102eb366004612452565b6109c9565b3480156102fc57600080fd5b50600154610253565b34801561031157600080fd5b5061025361032036600461247c565b610adb565b34801561033157600080fd5b50610274610340366004612497565b610ae6565b34801561035157600080fd5b5061027461036036600461241d565b610af1565b34801561037157600080fd5b5061025366e6ed27d666800081565b34801561038c57600080fd5b50610253600b5481565b3480156103a257600080fd5b506102536103b1366004612452565b610b20565b3480156103c257600080fd5b50610253610d0581565b3480156103d857600080fd5b50610274610c97565b3480156103ed57600080fd5b506102746103fc366004612497565b610ff4565b34801561040d57600080fd5b5061025361041c36600461241d565b61100f565b34801561042d57600080fd5b5061027461043c3660046124d3565b611078565b34801561044d57600080fd5b50610253600a5481565b34801561046357600080fd5b506102b861047236600461241d565b6110af565b34801561048357600080fd5b5061025367011c37937e08000081565b34801561049f57600080fd5b5061028b6110c1565b3480156104b457600080fd5b506102536104c336600461247c565b61114f565b3480156104d457600080fd5b506102746111e0565b3480156104e957600080fd5b506102746104f836600461241d565b611216565b34801561050957600080fd5b506000546001600160a01b03166102b8565b34801561052757600080fd5b5061028b611245565b34801561053c57600080fd5b5061027461054b366004612545565b611254565b61027461055e36600461241d565b6112c1565b34801561056f57600080fd5b5061027461057e366004612571565b61140b565b34801561058f57600080fd5b5061027461059e3660046125c3565b6114cf565b3480156105af57600080fd5b5061028b6105be36600461241d565b611508565b3480156105cf57600080fd5b5061025360085481565b3480156105e557600080fd5b506102296105f436600461269f565b6001600160a01b03918216600090815260076020908152604080832093909416825291909152205460ff1690565b34801561062e57600080fd5b5061027461063d36600461247c565b6115d5565b60006001600160e01b031982166380ac58cd60e01b148061067357506001600160e01b03198216635b5e139f60e01b145b8061068e57506001600160e01b0319821663780e9d6360e01b145b806106a957506301ffc9a760e01b6001600160e01b03198316145b92915050565b610d05836106bc60015490565b6106c691906126df565b11156106ed5760405162461bcd60e51b81526004016106e4906126f7565b60405180910390fd5b600a546001146107305760405162461bcd60e51b815260206004820152600e60248201526d13525395125391d7d4105554d15160921b60448201526064016106e4565b61073a828261166d565b61077d5760405162461bcd60e51b815260206004820152601460248201527324a72b20a624a22fa6a2a925a622afa82927a7a360611b60448201526064016106e4565b336000908152600d602052604090205460029061079b9085906126df565b11156107fa5760405162461bcd60e51b815260206004820152602860248201527f4d494e545f455843454544535f4c494d49545f414c4c4f5745445f464f525f5760448201526712125511531254d560c21b60648201526084016106e4565b60008311801561080b575060028311155b6108275760405162461bcd60e51b81526004016106e49061272e565b346108398466e6ed27d6668000612778565b11156108785760405162461bcd60e51b815260206004820152600e60248201526d414d4f554e545f544f4f5f4c4f5760901b60448201526064016106e4565b336000908152600d6020526040812080548592906108979084906126df565b909155506108a7905033846116f4565b505050565b6060600280546108bb90612797565b80601f01602080910402602001604051908101604052809291908181526020018280546108e790612797565b80156109345780601f1061090957610100808354040283529160200191610934565b820191906000526020600020905b81548152906001019060200180831161091757829003601f168201915b5050505050905090565b600061094b826001541190565b6109ad5760405162461bcd60e51b815260206004820152602d60248201527f455243373231413a20617070726f76656420717565727920666f72206e6f6e6560448201526c3c34b9ba32b73a103a37b5b2b760991b60648201526084016106e4565b506000908152600660205260409020546001600160a01b031690565b60006109d4826110af565b9050806001600160a01b0316836001600160a01b031603610a425760405162461bcd60e51b815260206004820152602260248201527f455243373231413a20617070726f76616c20746f2063757272656e74206f776e60448201526132b960f11b60648201526084016106e4565b336001600160a01b0382161480610a5e5750610a5e81336105f4565b610ad05760405162461bcd60e51b815260206004820152603960248201527f455243373231413a20617070726f76652063616c6c6572206973206e6f74206f60448201527f776e6572206e6f7220617070726f76656420666f7220616c6c0000000000000060648201526084016106e4565b6108a783838361170e565b60006106a98261176a565b6108a7838383611808565b6000546001600160a01b03163314610b1b5760405162461bcd60e51b81526004016106e4906127d1565b600a55565b6000610b2b8361114f565b8210610b845760405162461bcd60e51b815260206004820152602260248201527f455243373231413a206f776e657220696e646578206f7574206f6620626f756e604482015261647360f01b60648201526084016106e4565b6000610b8f60015490565b905060008060005b83811015610c37576000818152600460209081526040918290208251808401909352546001600160a01b038116808452600160a01b90910467ffffffffffffffff169183019190915215610bea57805192505b876001600160a01b0316836001600160a01b031603610c2457868403610c16575093506106a992505050565b83610c2081612806565b9450505b5080610c2f81612806565b915050610b97565b5060405162461bcd60e51b815260206004820152602e60248201527f455243373231413a20756e61626c6520746f2067657420746f6b656e206f662060448201526d0deeedccae440c4f240d2dcc8caf60931b60648201526084016106e4565b6000546001600160a01b03163314610cc15760405162461bcd60e51b81526004016106e4906127d1565b600260095403610d135760405162461bcd60e51b815260206004820152601f60248201527f5265656e7472616e637947756172643a207265656e7472616e742063616c6c0060448201526064016106e4565b6002600955610d05610d2460015490565b10610d5c5760405162461bcd60e51b815260206004820152600860248201526714d3d31117d3d55560c21b60448201526064016106e4565b6000610d6b620186a047612835565b905060007318b94d7dac879511b0f2ee2947073b57fa11fb08610d90836161a8612778565b604051600081818185875af1925050503d8060008114610dcc576040519150601f19603f3d011682016040523d82523d6000602084013e610dd1565b606091505b509091506000905073ec4f373a70d5bb5371df8a33951b898b7219f82c610dfa846161a8612778565b604051600081818185875af1925050503d8060008114610e36576040519150601f19603f3d011682016040523d82523d6000602084013e610e3b565b606091505b5090915060009050734494949245c3c432177c66adf32e272477d6aafc610e64856161a8612778565b604051600081818185875af1925050503d8060008114610ea0576040519150601f19603f3d011682016040523d82523d6000602084013e610ea5565b606091505b5090915060009050736e1af0e043c18ead53a5b9886d4901dd6b67a22f610ece86612bd9612778565b604051600081818185875af1925050503d8060008114610f0a576040519150601f19603f3d011682016040523d82523d6000602084013e610f0f565b606091505b509091506000905073e0c5123b0fd1a7d94bb8d84bbaf1026b699c6dc6610f3887612bd9612778565b604051600081818185875af1925050503d8060008114610f74576040519150601f19603f3d011682016040523d82523d6000602084013e610f79565b606091505b50909150600090507362a6958e4fbff46c0ecc64e2efde83f75d609dd2610fa2886109f6612778565b604051600081818185875af1925050503d8060008114610fde576040519150601f19603f3d011682016040523d82523d6000602084013e610fe3565b606091505b505060016009555050505050505050565b6108a7838383604051806020016040528060008152506114cf565b600061101a60015490565b82106110745760405162461bcd60e51b815260206004820152602360248201527f455243373231413a20676c6f62616c20696e646578206f7574206f6620626f756044820152626e647360e81b60648201526084016106e4565b5090565b6000546001600160a01b031633146110a25760405162461bcd60e51b81526004016106e4906127d1565b600c6108a782848361288f565b60006110ba82611b90565b5192915050565b600c80546110ce90612797565b80601f01602080910402602001604051908101604052809291908181526020018280546110fa90612797565b80156111475780601f1061111c57610100808354040283529160200191611147565b820191906000526020600020905b81548152906001019060200180831161112a57829003601f168201915b505050505081565b60006001600160a01b0382166111bb5760405162461bcd60e51b815260206004820152602b60248201527f455243373231413a2062616c616e636520717565727920666f7220746865207a60448201526a65726f206164647265737360a81b60648201526084016106e4565b506001600160a01b03166000908152600560205260409020546001600160801b031690565b6000546001600160a01b0316331461120a5760405162461bcd60e51b81526004016106e4906127d1565b6112146000611d3a565b565b6000546001600160a01b031633146112405760405162461bcd60e51b81526004016106e4906127d1565b600b55565b6060600380546108bb90612797565b6000546001600160a01b0316331461127e5760405162461bcd60e51b81526004016106e4906127d1565b610d058261128b60015490565b61129591906126df565b11156112b35760405162461bcd60e51b81526004016106e4906126f7565b6112bd81836116f4565b5050565b610d05816112ce60015490565b6112d891906126df565b11156112f65760405162461bcd60e51b81526004016106e4906126f7565b600a546002146113395760405162461bcd60e51b815260206004820152600e60248201526d13525395125391d7d4105554d15160921b60448201526064016106e4565b60008111801561134a575060028111155b6113665760405162461bcd60e51b81526004016106e49061272e565b346113798267011c37937e080000612778565b11156113b85760405162461bcd60e51b815260206004820152600e60248201526d414d4f554e545f544f4f5f4c4f5760901b60448201526064016106e4565b3233146113fe5760405162461bcd60e51b815260206004820152601460248201527353454e4445525f49535f4e4f545f414e5f454f4160601b60448201526064016106e4565b61140833826116f4565b50565b336001600160a01b038316036114635760405162461bcd60e51b815260206004820152601a60248201527f455243373231413a20617070726f766520746f2063616c6c657200000000000060448201526064016106e4565b3360008181526007602090815260408083206001600160a01b03871680855290835292819020805460ff191686151590811790915590519081529192917f17307eab39ab6107e8899845ad3d59bd9653f200f220920489ca2b5937696c31910160405180910390a35050565b6114da848484611808565b6114e684848484611d8a565b6115025760405162461bcd60e51b81526004016106e490612950565b50505050565b6060611515826001541190565b6115795760405162461bcd60e51b815260206004820152602f60248201527f4552433732314d657461646174613a2055524920717565727920666f72206e6f60448201526e3732bc34b9ba32b73a103a37b5b2b760891b60648201526084016106e4565b6000611583611e8b565b905060008151116115a357604051806020016040528060008152506115ce565b806115ad84611e9a565b6040516020016115be9291906129a3565b6040516020818303038152906040525b9392505050565b6000546001600160a01b031633146115ff5760405162461bcd60e51b81526004016106e4906127d1565b6001600160a01b0381166116645760405162461bcd60e51b815260206004820152602660248201527f4f776e61626c653a206e6577206f776e657220697320746865207a65726f206160448201526564647265737360d01b60648201526084016106e4565b61140881611d3a565b6040516bffffffffffffffffffffffff193360601b16602082015260009081906034016040516020818303038152906040528051906020012090506116ec600b5482868680806020026020016040519081016040528093929190818152602001838360200280828437600092019190915250929493925050611f9b9050565b949350505050565b6112bd828260405180602001604052806000815250611fb1565b60008281526006602052604080822080546001600160a01b0319166001600160a01b0387811691821790925591518593918516917f8c5be1e5ebec7d5bd14f71427d1e84f3dd0314c0f7b2291e5b200ac8c7c3b92591a4505050565b60006001600160a01b0382166117dc5760405162461bcd60e51b815260206004820152603160248201527f455243373231413a206e756d626572206d696e74656420717565727920666f7260448201527020746865207a65726f206164647265737360781b60648201526084016106e4565b506001600160a01b0316600090815260056020526040902054600160801b90046001600160801b031690565b600061181382611b90565b80519091506000906001600160a01b0316336001600160a01b0316148061184a57503361183f8461093e565b6001600160a01b0316145b8061185c5750815161185c90336105f4565b9050806118c65760405162461bcd60e51b815260206004820152603260248201527f455243373231413a207472616e736665722063616c6c6572206973206e6f74206044820152711bdddb995c881b9bdc88185c1c1c9bdd995960721b60648201526084016106e4565b846001600160a01b031682600001516001600160a01b03161461193a5760405162461bcd60e51b815260206004820152602660248201527f455243373231413a207472616e736665722066726f6d20696e636f72726563746044820152651037bbb732b960d11b60648201526084016106e4565b6001600160a01b03841661199e5760405162461bcd60e51b815260206004820152602560248201527f455243373231413a207472616e7366657220746f20746865207a65726f206164604482015264647265737360d81b60648201526084016106e4565b6119ae600084846000015161170e565b6001600160a01b03851660009081526005602052604081208054600192906119e09084906001600160801b03166129d2565b82546101009290920a6001600160801b038181021990931691831602179091556001600160a01b03861660009081526005602052604081208054600194509092611a2c918591166129fa565b82546001600160801b039182166101009390930a9283029190920219909116179055506040805180820182526001600160a01b03808716825267ffffffffffffffff428116602080850191825260008981526004909152948520935184549151909216600160a01b026001600160e01b03199091169190921617179055611ab48460016126df565b6000818152600460205260409020549091506001600160a01b0316611b4657611ade816001541190565b15611b465760408051808201825284516001600160a01b03908116825260208087015167ffffffffffffffff9081168285019081526000878152600490935294909120925183549451909116600160a01b026001600160e01b03199094169116179190911790555b83856001600160a01b0316876001600160a01b03167fddf252ad1be2c89b69c2b068fc378daa952ba7f163c4a11628f55a4df523b3ef60405160405180910390a45b505050505050565b6040805180820190915260008082526020820152611baf826001541190565b611c0e5760405162461bcd60e51b815260206004820152602a60248201527f455243373231413a206f776e657220717565727920666f72206e6f6e657869736044820152693a32b73a103a37b5b2b760b11b60648201526084016106e4565b60007f00000000000000000000000000000000000000000000000000000000000000008310611c6f57611c617f000000000000000000000000000000000000000000000000000000000000000084612a1c565b611c6c9060016126df565b90505b825b818110611cd9576000818152600460209081526040918290208251808401909352546001600160a01b038116808452600160a01b90910467ffffffffffffffff169183019190915215611cc657949350505050565b5080611cd181612a33565b915050611c71565b5060405162461bcd60e51b815260206004820152602f60248201527f455243373231413a20756e61626c6520746f2064657465726d696e652074686560448201526e1037bbb732b91037b3103a37b5b2b760891b60648201526084016106e4565b600080546001600160a01b038381166001600160a01b0319831681178455604051919092169283917f8be0079c531659141344cd1fd0a4f28419497f9722a3daafe3b4186f6b6457e09190a35050565b60006001600160a01b0384163b15611e8057604051630a85bd0160e11b81526001600160a01b0385169063150b7a0290611dce903390899088908890600401612a4a565b6020604051808303816000875af1925050508015611e09575060408051601f3d908101601f19168201909252611e0691810190612a87565b60015b611e66573d808015611e37576040519150601f19603f3d011682016040523d82523d6000602084013e611e3c565b606091505b508051600003611e5e5760405162461bcd60e51b81526004016106e490612950565b805181602001fd5b6001600160e01b031916630a85bd0160e11b1490506116ec565b506001949350505050565b6060600c80546108bb90612797565b606081600003611ec15750506040805180820190915260018152600360fc1b602082015290565b8160005b8115611eeb5780611ed581612806565b9150611ee49050600a83612835565b9150611ec5565b60008167ffffffffffffffff811115611f0657611f066125ad565b6040519080825280601f01601f191660200182016040528015611f30576020820181803683370190505b5090505b84156116ec57611f45600183612a1c565b9150611f52600a86612aa4565b611f5d9060306126df565b60f81b818381518110611f7257611f72612ab8565b60200101906001600160f81b031916908160001a905350611f94600a86612835565b9450611f34565b600082611fa8858461228c565b14949350505050565b6001546001600160a01b0384166120145760405162461bcd60e51b815260206004820152602160248201527f455243373231413a206d696e7420746f20746865207a65726f206164647265736044820152607360f81b60648201526084016106e4565b61201f816001541190565b1561206c5760405162461bcd60e51b815260206004820152601d60248201527f455243373231413a20746f6b656e20616c7265616479206d696e74656400000060448201526064016106e4565b7f00000000000000000000000000000000000000000000000000000000000000008311156120e75760405162461bcd60e51b815260206004820152602260248201527f455243373231413a207175616e7469747920746f206d696e7420746f6f2068696044820152610ced60f31b60648201526084016106e4565b6001600160a01b0384166000908152600560209081526040918290208251808401845290546001600160801b038082168352600160801b90910416918101919091528151808301909252805190919081906121439087906129fa565b6001600160801b0316815260200185836020015161216191906129fa565b6001600160801b039081169091526001600160a01b0380881660008181526005602090815260408083208751978301518716600160801b0297909616969096179094558451808601865291825267ffffffffffffffff4281168386019081528883526004909552948120915182549451909516600160a01b026001600160e01b031990941694909216939093179190911790915582905b858110156122815760405182906001600160a01b038916906000907fddf252ad1be2c89b69c2b068fc378daa952ba7f163c4a11628f55a4df523b3ef908290a46122456000888488611d8a565b6122615760405162461bcd60e51b81526004016106e490612950565b8161226b81612806565b925050808061227990612806565b9150506121f8565b506001819055611b88565b600081815b84518110156122f85760008582815181106122ae576122ae612ab8565b602002602001015190508083116122d457600083815260208290526040902092506122e5565b600081815260208490526040902092505b50806122f081612806565b915050612291565b509392505050565b6001600160e01b03198116811461140857600080fd5b60006020828403121561232857600080fd5b81356115ce81612300565b60008060006040848603121561234857600080fd5b83359250602084013567ffffffffffffffff8082111561236757600080fd5b818601915086601f83011261237b57600080fd5b81358181111561238a57600080fd5b8760208260051b850101111561239f57600080fd5b6020830194508093505050509250925092565b60005b838110156123cd5781810151838201526020016123b5565b838111156115025750506000910152565b600081518084526123f68160208601602086016123b2565b601f01601f19169290920160200192915050565b6020815260006115ce60208301846123de565b60006020828403121561242f57600080fd5b5035919050565b80356001600160a01b038116811461244d57600080fd5b919050565b6000806040838503121561246557600080fd5b61246e83612436565b946020939093013593505050565b60006020828403121561248e57600080fd5b6115ce82612436565b6000806000606084860312156124ac57600080fd5b6124b584612436565b92506124c360208501612436565b9150604084013590509250925092565b600080602083850312156124e657600080fd5b823567ffffffffffffffff808211156124fe57600080fd5b818501915085601f83011261251257600080fd5b81358181111561252157600080fd5b86602082850101111561253357600080fd5b60209290920196919550909350505050565b6000806040838503121561255857600080fd5b8235915061256860208401612436565b90509250929050565b6000806040838503121561258457600080fd5b61258d83612436565b9150602083013580151581146125a257600080fd5b809150509250929050565b634e487b7160e01b600052604160045260246000fd5b600080600080608085870312156125d957600080fd5b6125e285612436565b93506125f060208601612436565b925060408501359150606085013567ffffffffffffffff8082111561261457600080fd5b818701915087601f83011261262857600080fd5b81358181111561263a5761263a6125ad565b604051601f8201601f19908116603f01168101908382118183101715612662576126626125ad565b816040528281528a602084870101111561267b57600080fd5b82602086016020830137600060208483010152809550505050505092959194509250565b600080604083850312156126b257600080fd5b6126bb83612436565b915061256860208401612436565b634e487b7160e01b600052601160045260246000fd5b600082198211156126f2576126f26126c9565b500190565b60208082526019908201527f4d494e545f455843454544535f544f54414c5f535550504c5900000000000000604082015260600190565b6020808252602a908201527f4d494e545f455843454544535f4c494d49545f414c4c4f5745445f5045525f546040820152692920a729a0a1aa24a7a760b11b606082015260800190565b6000816000190483118215151615612792576127926126c9565b500290565b600181811c908216806127ab57607f821691505b6020821081036127cb57634e487b7160e01b600052602260045260246000fd5b50919050565b6020808252818101527f4f776e61626c653a2063616c6c6572206973206e6f7420746865206f776e6572604082015260600190565b600060018201612818576128186126c9565b5060010190565b634e487b7160e01b600052601260045260246000fd5b6000826128445761284461281f565b500490565b601f8211156108a757600081815260208120601f850160051c810160208610156128705750805b601f850160051c820191505b81811015611b885782815560010161287c565b67ffffffffffffffff8311156128a7576128a76125ad565b6128bb836128b58354612797565b83612849565b6000601f8411600181146128ef57600085156128d75750838201355b600019600387901b1c1916600186901b178355612949565b600083815260209020601f19861690835b828110156129205786850135825560209485019460019092019101612900565b508682101561293d5760001960f88860031b161c19848701351681555b505060018560011b0183555b5050505050565b60208082526033908201527f455243373231413a207472616e7366657220746f206e6f6e204552433732315260408201527232b1b2b4bb32b91034b6b83632b6b2b73a32b960691b606082015260800190565b600083516129b58184602088016123b2565b8351908301906129c98183602088016123b2565b01949350505050565b60006001600160801b03838116908316818110156129f2576129f26126c9565b039392505050565b60006001600160801b038083168185168083038211156129c9576129c96126c9565b600082821015612a2e57612a2e6126c9565b500390565b600081612a4257612a426126c9565b506000190190565b6001600160a01b0385811682528416602082015260408101839052608060608201819052600090612a7d908301846123de565b9695505050505050565b600060208284031215612a9957600080fd5b81516115ce81612300565b600082612ab357612ab361281f565b500690565b634e487b7160e01b600052603260045260246000fdfea26469706673582212205fe0bc8dc9950069d84ca25d85da3ccdaee120198049ca3044af7772f1041e7e64736f6c634300080f0033",
  "immutableReferences": {
    "1435": [
      {
        "length": 32,
        "start": 7186
      },
      {
        "length": 32,
        "start": 7228
      },
      {
        "length": 32,
        "start": 8302
      }
    ]
  },
  "source": "// SPDX-License-Identifier: MIT\npragma solidity ^0.8.15;\n\nimport \"@openzeppelin/contracts/utils/cryptography/MerkleProof.sol\";\nimport \"@openzeppelin/contracts/security/ReentrancyGuard.sol\";\nimport \"@openzeppelin/contracts/access/Ownable.sol\";\nimport \"./ERC721A.sol\";\n\ncontract Alphav3 is Ownable, ERC721A, ReentrancyGuard {\n    using MerkleProof for bytes32[];\n\n    uint256 public constant MAX_SUPPLY = 3333;\n    uint256 public constant MINT_LIMIT = 2;\n\n    uint256 public constant PRESALE_MINT_PRICE = 0.065 ether;\n    uint256 public constant PUBLIC_MINT_PRICE = 0.08 ether;\n\n    /// @dev Inactive = 0; Presale = 1; Public = 2\n    uint256 public saleFlag;\n\n    bytes32 public merkleRoot;\n    string public baseURI;\n    \n    mapping(address => uint256) private whitelistMints;\n\n    constructor() ERC721A(\"Alphav3\", \"ALPHAV3\", 50, MAX_SUPPLY) {}\n\n    function verifyProof(bytes32[] calldata _proof) internal view returns (bool) {\n        bytes32 leaf = keccak256(abi.encodePacked(msg.sender));\n        return _proof.verify(merkleRoot, leaf);\n    }\n\n    function getNMinted(address owner) public view returns (uint256) {\n        return _numberMinted(owner);\n    }\n\n    function setBaseURI(string calldata _base) external onlyOwner {\n        baseURI = _base;\n    }\n\n    function _baseURI() internal view virtual override returns (string memory) {\n        return baseURI;\n    }\n\n    function setSaleFlag(uint256 _flag) external onlyOwner {\n        saleFlag = _flag;\n    }\n\n    function setMerkleRoot(bytes32 _new) external onlyOwner {\n        merkleRoot = _new;\n    }\n\n    function mint(uint256 _quantity) external payable {\n        require(totalSupply() + _quantity <= MAX_SUPPLY, \"MINT_EXCEEDS_TOTAL_SUPPLY\");\n\n        require(saleFlag == 2, \"MINTING_PAUSED\");\n        require(_quantity > 0 && _quantity <= MINT_LIMIT, \"MINT_EXCEEDS_LIMIT_ALLOWED_PER_TRANSACTION\");\n        require(PUBLIC_MINT_PRICE * _quantity <= msg.value, \"AMOUNT_TOO_LOW\");\n        require(tx.origin == msg.sender, \"SENDER_IS_NOT_AN_EOA\");\n\n        _safeMint(msg.sender, _quantity);\n    }\n\n    function mintWhitelist(uint256 _quantity, bytes32[] calldata _proof) external payable {\n        require(totalSupply() + _quantity <= MAX_SUPPLY, \"MINT_EXCEEDS_TOTAL_SUPPLY\");\n\n        require(saleFlag == 1, \"MINTING_PAUSED\");\n        require(verifyProof(_proof), \"INVALID_MERKLE_PROOF\");\n        require(whitelistMints[msg.sender] + _quantity <= MINT_LIMIT, \"MINT_EXCEEDS_LIMIT_ALLOWED_FOR_WHITELIST\");\n        require(_quantity > 0 && _quantity <= MINT_LIMIT, \"MINT_EXCEEDS_LIMIT_ALLOWED_PER_TRANSACTION\");\n        require(PRESALE_MINT_PRICE * _quantity <= msg.value, \"AMOUNT_TOO_LOW\");\n\n        whitelistMints[msg.sender] += _quantity;\n\n        _safeMint(msg.sender, _quantity);\n    }\n\n    function mintOwner(uint256 _quantity, address _to) external onlyOwner {\n        require(totalSupply() + _quantity <= MAX_SUPPLY, \"MINT_EXCEEDS_TOTAL_SUPPLY\");\n\n        _safeMint(_to, _quantity);\n    }\n\n    /** @notice\n     * ALLOCATIONS:\n     *  - Community Multisig: 25% (Signers: Bitquence, sOwner1, sOwner2 / 2 of 2 signatures)\n     *  - Owners: 50%\n     *  - Developpers: 22.45%\n     *  - Artist: 2.55%\n     */\n    function withdraw() external onlyOwner nonReentrant {\n        require(totalSupply() < MAX_SUPPLY, \"SOLD_OUT\");\n        \n        uint256 balanceDividend = address(this).balance / 100000;\n\n        (bool sComm,) = address(0x18B94d7dac879511B0f2Ee2947073b57fa11Fb08).call{value: balanceDividend * 25000}(\"\");\n        (bool sOwner1,) = address(0xEC4f373A70d5Bb5371df8A33951B898B7219f82C).call{value: balanceDividend * 25000}(\"\");\n        (bool sOwner2,) = address(0x4494949245C3C432177C66adf32e272477D6aaFc).call{value: balanceDividend * 25000}(\"\");\n        (bool sDev1,) = address(0x6e1af0E043C18eAd53A5B9886D4901Dd6B67a22f).call{value: balanceDividend * 11225}(\"\");\n        (bool sDev2,) = address(0xe0C5123B0FD1A7D94bB8D84bBAF1026B699C6dC6).call{value: balanceDividend * 11225}(\"\");\n        (bool sArt,) = address(0x62A6958E4FBff46C0ECc64E2eFDE83F75D609DD2).call{value: balanceDividend * 2550}(\"\");\n    }\n}\n",
  "sourcePath": "/Users/macpc/Projects/TomoeGozenSmartContract/contracts/Alphav3.sol",
  "compiler": {
    "name": "solc",
    "version": "0.8.15+commit.e14f2714.Emscripten.clang"
  },
  "schemaVersion": "3.4.7",
  "updatedAt": "2022-06-22T15:21:18.145Z",
  "networkType": "ethereum",
  "devdoc": {
    "kind": "dev",
    "methods": {
      "approve(address,uint256)": {
        "details": "See {IERC721-approve}."
      },
      "balanceOf(address)": {
        "details": "See {IERC721-balanceOf}."
      },
      "getApproved(uint256)": {
        "details": "See {IERC721-getApproved}."
      },
      "isApprovedForAll(address,address)": {
        "details": "See {IERC721-isApprovedForAll}."
      },
      "name()": {
        "details": "See {IERC721Metadata-name}."
      },
      "owner()": {
        "details": "Returns the address of the current owner."
      },
      "ownerOf(uint256)": {
        "details": "See {IERC721-ownerOf}."
      },
      "renounceOwnership()": {
        "details": "Leaves the contract without owner. It will not be possible to call `onlyOwner` functions anymore. Can only be called by the current owner. NOTE: Renouncing ownership will leave the contract without an owner, thereby removing any functionality that is only available to the owner."
      },
      "safeTransferFrom(address,address,uint256)": {
        "details": "See {IERC721-safeTransferFrom}."
      },
      "safeTransferFrom(address,address,uint256,bytes)": {
        "details": "See {IERC721-safeTransferFrom}."
      },
      "setApprovalForAll(address,bool)": {
        "details": "See {IERC721-setApprovalForAll}."
      },
      "supportsInterface(bytes4)": {
        "details": "See {IERC165-supportsInterface}."
      },
      "symbol()": {
        "details": "See {IERC721Metadata-symbol}."
      },
      "tokenByIndex(uint256)": {
        "details": "See {IERC721Enumerable-tokenByIndex}."
      },
      "tokenOfOwnerByIndex(address,uint256)": {
        "details": "See {IERC721Enumerable-tokenOfOwnerByIndex}. This read function is O(collectionSize). If calling from a separate contract, be sure to test gas first. It may also degrade with extremely large collection sizes (e.g >> 10000), test for your use case."
      },
      "tokenURI(uint256)": {
        "details": "See {IERC721Metadata-tokenURI}."
      },
      "totalSupply()": {
        "details": "See {IERC721Enumerable-totalSupply}."
      },
      "transferFrom(address,address,uint256)": {
        "details": "See {IERC721-transferFrom}."
      },
      "transferOwnership(address)": {
        "details": "Transfers ownership of the contract to a new account (`newOwner`). Can only be called by the current owner."
      }
    },
    "stateVariables": {
      "saleFlag": {
        "details": "Inactive = 0; Presale = 1; Public = 2"
      }
    },
    "version": 1
  },
  "userdoc": {
    "kind": "user",
    "methods": {
      "withdraw()": {
        "notice": "ALLOCATIONS:  - Community Multisig: 25% (Signers: Bitquence, sOwner1, sOwner2 / 2 of 2 signatures)  - Owners: 50%  - Developpers: 22.45%  - Artist: 2.55%"
      }
    },
    "version": 1
  }
}