{
  "contractName": "AlphaTest",
  "abi": [
    {
      "inputs": [],
      "stateMutability": "nonpayable",
      "type": "constructor"
    },
    {
      "anonymous": false,
      "inputs": [
        {
          "indexed": true,
          "internalType": "address",
          "name": "owner",
          "type": "address"
        },
        {
          "indexed": true,
          "internalType": "address",
          "name": "approved",
          "type": "address"
        },
        {
          "indexed": true,
          "internalType": "uint256",
          "name": "tokenId",
          "type": "uint256"
        }
      ],
      "name": "Approval",
      "type": "event"
    },
    {
      "anonymous": false,
      "inputs": [
        {
          "indexed": true,
          "internalType": "address",
          "name": "owner",
          "type": "address"
        },
        {
          "indexed": true,
          "internalType": "address",
          "name": "operator",
          "type": "address"
        },
        {
          "indexed": false,
          "internalType": "bool",
          "name": "approved",
          "type": "bool"
        }
      ],
      "name": "ApprovalForAll",
      "type": "event"
    },
    {
      "anonymous": false,
      "inputs": [
        {
          "indexed": true,
          "internalType": "address",
          "name": "previousOwner",
          "type": "address"
        },
        {
          "indexed": true,
          "internalType": "address",
          "name": "newOwner",
          "type": "address"
        }
      ],
      "name": "OwnershipTransferred",
      "type": "event"
    },
    {
      "anonymous": false,
      "inputs": [
        {
          "indexed": true,
          "internalType": "address",
          "name": "from",
          "type": "address"
        },
        {
          "indexed": true,
          "internalType": "address",
          "name": "to",
          "type": "address"
        },
        {
          "indexed": true,
          "internalType": "uint256",
          "name": "tokenId",
          "type": "uint256"
        }
      ],
      "name": "Transfer",
      "type": "event"
    },
    {
      "inputs": [],
      "name": "MAX_SUPPLY",
      "outputs": [
        {
          "internalType": "uint256",
          "name": "",
          "type": "uint256"
        }
      ],
      "stateMutability": "view",
      "type": "function",
      "constant": true
    },
    {
      "inputs": [],
      "name": "MINT_PRICE",
      "outputs": [
        {
          "internalType": "uint256",
          "name": "",
          "type": "uint256"
        }
      ],
      "stateMutability": "view",
      "type": "function",
      "constant": true
    },
    {
      "inputs": [],
      "name": "PRESALE_MINT_LIMIT",
      "outputs": [
        {
          "internalType": "uint256",
          "name": "",
          "type": "uint256"
        }
      ],
      "stateMutability": "view",
      "type": "function",
      "constant": true
    },
    {
      "inputs": [],
      "name": "PUBLIC_MINT_LIMIT",
      "outputs": [
        {
          "internalType": "uint256",
          "name": "",
          "type": "uint256"
        }
      ],
      "stateMutability": "view",
      "type": "function",
      "constant": true
    },
    {
      "inputs": [
        {
          "internalType": "address",
          "name": "to",
          "type": "address"
        },
        {
          "internalType": "uint256",
          "name": "tokenId",
          "type": "uint256"
        }
      ],
      "name": "approve",
      "outputs": [],
      "stateMutability": "nonpayable",
      "type": "function"
    },
    {
      "inputs": [
        {
          "internalType": "address",
          "name": "owner",
          "type": "address"
        }
      ],
      "name": "balanceOf",
      "outputs": [
        {
          "internalType": "uint256",
          "name": "",
          "type": "uint256"
        }
      ],
      "stateMutability": "view",
      "type": "function",
      "constant": true
    },
    {
      "inputs": [],
      "name": "baseURI",
      "outputs": [
        {
          "internalType": "string",
          "name": "",
          "type": "string"
        }
      ],
      "stateMutability": "view",
      "type": "function",
      "constant": true
    },
    {
      "inputs": [
        {
          "internalType": "uint256",
          "name": "tokenId",
          "type": "uint256"
        }
      ],
      "name": "getApproved",
      "outputs": [
        {
          "internalType": "address",
          "name": "",
          "type": "address"
        }
      ],
      "stateMutability": "view",
      "type": "function",
      "constant": true
    },
    {
      "inputs": [
        {
          "internalType": "address",
          "name": "owner",
          "type": "address"
        },
        {
          "internalType": "address",
          "name": "operator",
          "type": "address"
        }
      ],
      "name": "isApprovedForAll",
      "outputs": [
        {
          "internalType": "bool",
          "name": "",
          "type": "bool"
        }
      ],
      "stateMutability": "view",
      "type": "function",
      "constant": true
    },
    {
      "inputs": [],
      "name": "merkleRoot",
      "outputs": [
        {
          "internalType": "bytes32",
          "name": "",
          "type": "bytes32"
        }
      ],
      "stateMutability": "view",
      "type": "function",
      "constant": true
    },
    {
      "inputs": [],
      "name": "name",
      "outputs": [
        {
          "internalType": "string",
          "name": "",
          "type": "string"
        }
      ],
      "stateMutability": "view",
      "type": "function",
      "constant": true
    },
    {
      "inputs": [],
      "name": "nextOwnerToExplicitlySet",
      "outputs": [
        {
          "internalType": "uint256",
          "name": "",
          "type": "uint256"
        }
      ],
      "stateMutability": "view",
      "type": "function",
      "constant": true
    },
    {
      "inputs": [],
      "name": "owner",
      "outputs": [
        {
          "internalType": "address",
          "name": "",
          "type": "address"
        }
      ],
      "stateMutability": "view",
      "type": "function",
      "constant": true
    },
    {
      "inputs": [
        {
          "internalType": "uint256",
          "name": "tokenId",
          "type": "uint256"
        }
      ],
      "name": "ownerOf",
      "outputs": [
        {
          "internalType": "address",
          "name": "",
          "type": "address"
        }
      ],
      "stateMutability": "view",
      "type": "function",
      "constant": true
    },
    {
      "inputs": [],
      "name": "renounceOwnership",
      "outputs": [],
      "stateMutability": "nonpayable",
      "type": "function"
    },
    {
      "inputs": [
        {
          "internalType": "address",
          "name": "from",
          "type": "address"
        },
        {
          "internalType": "address",
          "name": "to",
          "type": "address"
        },
        {
          "internalType": "uint256",
          "name": "tokenId",
          "type": "uint256"
        }
      ],
      "name": "safeTransferFrom",
      "outputs": [],
      "stateMutability": "nonpayable",
      "type": "function"
    },
    {
      "inputs": [
        {
          "internalType": "address",
          "name": "from",
          "type": "address"
        },
        {
          "internalType": "address",
          "name": "to",
          "type": "address"
        },
        {
          "internalType": "uint256",
          "name": "tokenId",
          "type": "uint256"
        },
        {
          "internalType": "bytes",
          "name": "_data",
          "type": "bytes"
        }
      ],
      "name": "safeTransferFrom",
      "outputs": [],
      "stateMutability": "nonpayable",
      "type": "function"
    },
    {
      "inputs": [],
      "name": "saleFlag",
      "outputs": [
        {
          "internalType": "uint256",
          "name": "",
          "type": "uint256"
        }
      ],
      "stateMutability": "view",
      "type": "function",
      "constant": true
    },
    {
      "inputs": [
        {
          "internalType": "address",
          "name": "operator",
          "type": "address"
        },
        {
          "internalType": "bool",
          "name": "approved",
          "type": "bool"
        }
      ],
      "name": "setApprovalForAll",
      "outputs": [],
      "stateMutability": "nonpayable",
      "type": "function"
    },
    {
      "inputs": [
        {
          "internalType": "bytes4",
          "name": "interfaceId",
          "type": "bytes4"
        }
      ],
      "name": "supportsInterface",
      "outputs": [
        {
          "internalType": "bool",
          "name": "",
          "type": "bool"
        }
      ],
      "stateMutability": "view",
      "type": "function",
      "constant": true
    },
    {
      "inputs": [],
      "name": "symbol",
      "outputs": [
        {
          "internalType": "string",
          "name": "",
          "type": "string"
        }
      ],
      "stateMutability": "view",
      "type": "function",
      "constant": true
    },
    {
      "inputs": [
        {
          "internalType": "uint256",
          "name": "index",
          "type": "uint256"
        }
      ],
      "name": "tokenByIndex",
      "outputs": [
        {
          "internalType": "uint256",
          "name": "",
          "type": "uint256"
        }
      ],
      "stateMutability": "view",
      "type": "function",
      "constant": true
    },
    {
      "inputs": [
        {
          "internalType": "address",
          "name": "owner",
          "type": "address"
        },
        {
          "internalType": "uint256",
          "name": "index",
          "type": "uint256"
        }
      ],
      "name": "tokenOfOwnerByIndex",
      "outputs": [
        {
          "internalType": "uint256",
          "name": "",
          "type": "uint256"
        }
      ],
      "stateMutability": "view",
      "type": "function",
      "constant": true
    },
    {
      "inputs": [
        {
          "internalType": "uint256",
          "name": "tokenId",
          "type": "uint256"
        }
      ],
      "name": "tokenURI",
      "outputs": [
        {
          "internalType": "string",
          "name": "",
          "type": "string"
        }
      ],
      "stateMutability": "view",
      "type": "function",
      "constant": true
    },
    {
      "inputs": [],
      "name": "totalSupply",
      "outputs": [
        {
          "internalType": "uint256",
          "name": "",
          "type": "uint256"
        }
      ],
      "stateMutability": "view",
      "type": "function",
      "constant": true
    },
    {
      "inputs": [
        {
          "internalType": "address",
          "name": "from",
          "type": "address"
        },
        {
          "internalType": "address",
          "name": "to",
          "type": "address"
        },
        {
          "internalType": "uint256",
          "name": "tokenId",
          "type": "uint256"
        }
      ],
      "name": "transferFrom",
      "outputs": [],
      "stateMutability": "nonpayable",
      "type": "function"
    },
    {
      "inputs": [
        {
          "internalType": "address",
          "name": "newOwner",
          "type": "address"
        }
      ],
      "name": "transferOwnership",
      "outputs": [],
      "stateMutability": "nonpayable",
      "type": "function"
    },
    {
      "inputs": [
        {
          "internalType": "string",
          "name": "_base",
          "type": "string"
        }
      ],
      "name": "setBaseURI",
      "outputs": [],
      "stateMutability": "nonpayable",
      "type": "function"
    },
    {
      "inputs": [
        {
          "internalType": "uint256",
          "name": "_flag",
          "type": "uint256"
        }
      ],
      "name": "setSaleFlag",
      "outputs": [],
      "stateMutability": "nonpayable",
      "type": "function"
    },
    {
      "inputs": [
        {
          "internalType": "bytes32",
          "name": "_new",
          "type": "bytes32"
        }
      ],
      "name": "setMerkleRoot",
      "outputs": [],
      "stateMutability": "nonpayable",
      "type": "function"
    },
    {
      "inputs": [
        {
          "internalType": "uint256",
          "name": "_quantity",
          "type": "uint256"
        }
      ],
      "name": "mint",
      "outputs": [],
      "stateMutability": "payable",
      "type": "function",
      "payable": true
    },
    {
      "inputs": [
        {
          "internalType": "uint256",
          "name": "_quantity",
          "type": "uint256"
        },
        {
          "internalType": "bytes32[]",
          "name": "_proof",
          "type": "bytes32[]"
        }
      ],
      "name": "mintWhitelist",
      "outputs": [],
      "stateMutability": "payable",
      "type": "function",
      "payable": true
    },
    {
      "inputs": [
        {
          "internalType": "uint256",
          "name": "_quantity",
          "type": "uint256"
        },
        {
          "internalType": "address",
          "name": "_to",
          "type": "address"
        }
      ],
      "name": "mintOwner",
      "outputs": [],
      "stateMutability": "nonpayable",
      "type": "function"
    },
    {
      "inputs": [],
      "name": "withdraw",
      "outputs": [],
      "stateMutability": "nonpayable",
      "type": "function"
    }
  ],
  "bytecode": "0x60c0604052600060015560006008553480156200001b57600080fd5b506040518060400160405280600a815260200169105b1c1a184815195cdd60b21b81525060405180604001604052806004815260200163414c544560e01b81525060026122b86200007b620000756200018860201b60201c565b6200018c565b60008111620000e85760405162461bcd60e51b815260206004820152602e60248201527f455243373231413a20636f6c6c656374696f6e206d757374206861766520612060448201526d6e6f6e7a65726f20737570706c7960901b60648201526084015b60405180910390fd5b600082116200014a5760405162461bcd60e51b815260206004820152602760248201527f455243373231413a206d61782062617463682073697a65206d757374206265206044820152666e6f6e7a65726f60c81b6064820152608401620000df565b83516200015f906002906020870190620001dc565b50825162000175906003906020860190620001dc565b5060a09190915260805250620002bf9050565b3390565b600080546001600160a01b038381166001600160a01b0319831681178455604051919092169283917f8be0079c531659141344cd1fd0a4f28419497f9722a3daafe3b4186f6b6457e09190a35050565b828054620001ea9062000282565b90600052602060002090601f0160209004810192826200020e576000855562000259565b82601f106200022957805160ff191683800117855562000259565b8280016001018555821562000259579182015b82811115620002595782518255916020019190600101906200023c565b50620002679291506200026b565b5090565b5b808211156200026757600081556001016200026c565b600181811c908216806200029757607f821691505b60208210811415620002b957634e487b7160e01b600052602260045260246000fd5b50919050565b60805160a051612997620002f060003960008181611ae701528181611b110152611f3d0152600050506129976000f3fe6080604052600436106101f95760003560e01c80636c0360eb1161010d578063a22cb465116100a0578063c87b56dd1161006f578063c87b56dd14610559578063d7224ba014610579578063e985e9c51461058f578063f2fde38b146105d8578063f5ebec801461052857600080fd5b8063a22cb465146104e8578063b88d4fde14610508578063bceae77b14610528578063c002d23d1461053d57600080fd5b80638da5cb5b116100dc5780638da5cb5b1461048257806395d89b41146104a05780639f15df12146104b5578063a0712d68146104d557600080fd5b80636c0360eb1461041857806370a082311461042d578063715018a61461044d5780637cb647591461046257600080fd5b80632eb4a7ab1161019057806342842e0e1161015f57806342842e0e146103825780634f6ccce7146103a257806355f804b3146103c2578063614bfc55146103e25780636352211e146103f857600080fd5b80632eb4a7ab146103215780632f745c591461033757806332cb6b0c146103575780633ccfd60b1461036d57600080fd5b8063095ea7b3116101cc578063095ea7b3146102a257806318160ddd146102c257806323b872dd146102e157806327b6fb331461030157600080fd5b806301ffc9a7146101fe578063061431a81461023357806306fdde0314610248578063081812fc1461026a575b600080fd5b34801561020a57600080fd5b5061021e6102193660046122ad565b6105f8565b60405190151581526020015b60405180910390f35b6102466102413660046122ca565b610665565b005b34801561025457600080fd5b5061025d610863565b60405161022a91906123a1565b34801561027657600080fd5b5061028a6102853660046123b4565b6108f5565b6040516001600160a01b03909116815260200161022a565b3480156102ae57600080fd5b506102466102bd3660046123e9565b610980565b3480156102ce57600080fd5b506001545b60405190815260200161022a565b3480156102ed57600080fd5b506102466102fc366004612413565b610a93565b34801561030d57600080fd5b5061024661031c3660046123b4565b610a9e565b34801561032d57600080fd5b506102d3600a5481565b34801561034357600080fd5b506102d36103523660046123e9565b610acd565b34801561036357600080fd5b506102d36122b881565b34801561037957600080fd5b50610246610c46565b34801561038e57600080fd5b5061024661039d366004612413565b610f67565b3480156103ae57600080fd5b506102d36103bd3660046123b4565b610f82565b3480156103ce57600080fd5b506102466103dd36600461244f565b610feb565b3480156103ee57600080fd5b506102d360095481565b34801561040457600080fd5b5061028a6104133660046123b4565b611021565b34801561042457600080fd5b5061025d611033565b34801561043957600080fd5b506102d36104483660046124c1565b6110c1565b34801561045957600080fd5b50610246611152565b34801561046e57600080fd5b5061024661047d3660046123b4565b611188565b34801561048e57600080fd5b506000546001600160a01b031661028a565b3480156104ac57600080fd5b5061025d6111b7565b3480156104c157600080fd5b506102466104d03660046124dc565b6111c6565b6102466104e33660046123b4565b611233565b3480156104f457600080fd5b50610246610503366004612508565b61137d565b34801561051457600080fd5b5061024661052336600461255a565b611442565b34801561053457600080fd5b506102d3600281565b34801561054957600080fd5b506102d367011c37937e08000081565b34801561056557600080fd5b5061025d6105743660046123b4565b61147b565b34801561058557600080fd5b506102d360085481565b34801561059b57600080fd5b5061021e6105aa366004612636565b6001600160a01b03918216600090815260076020908152604080832093909416825291909152205460ff1690565b3480156105e457600080fd5b506102466105f33660046124c1565b611548565b60006001600160e01b031982166380ac58cd60e01b148061062957506001600160e01b03198216635b5e139f60e01b145b8061064457506001600160e01b0319821663780e9d6360e01b145b8061065f57506301ffc9a760e01b6001600160e01b03198316145b92915050565b6122b88361067260015490565b61067c9190612676565b11156106a35760405162461bcd60e51b815260040161069a9061268e565b60405180910390fd5b6009546001146106e65760405162461bcd60e51b815260206004820152600e60248201526d13525395125391d7d4105554d15160921b604482015260640161069a565b6106f082826115e0565b6107335760405162461bcd60e51b815260206004820152601460248201527324a72b20a624a22fa6a2a925a622afa82927a7a360611b604482015260640161069a565b336000908152600c6020526040902054600290610751908590612676565b11156107b05760405162461bcd60e51b815260206004820152602860248201527f4d494e545f455843454544535f4c494d49545f414c4c4f5745445f464f525f5760448201526712125511531254d560c21b606482015260840161069a565b6000831180156107c1575060028311155b6107dd5760405162461bcd60e51b815260040161069a906126c5565b346107f08467011c37937e08000061270f565b111561082f5760405162461bcd60e51b815260206004820152600e60248201526d414d4f554e545f544f4f5f4c4f5760901b604482015260640161069a565b336000908152600c60205260408120805485929061084e908490612676565b9091555061085e90503384611667565b505050565b6060600280546108729061272e565b80601f016020809104026020016040519081016040528092919081815260200182805461089e9061272e565b80156108eb5780601f106108c0576101008083540402835291602001916108eb565b820191906000526020600020905b8154815290600101906020018083116108ce57829003601f168201915b5050505050905090565b6000610902826001541190565b6109645760405162461bcd60e51b815260206004820152602d60248201527f455243373231413a20617070726f76656420717565727920666f72206e6f6e6560448201526c3c34b9ba32b73a103a37b5b2b760991b606482015260840161069a565b506000908152600660205260409020546001600160a01b031690565b600061098b82611021565b9050806001600160a01b0316836001600160a01b031614156109fa5760405162461bcd60e51b815260206004820152602260248201527f455243373231413a20617070726f76616c20746f2063757272656e74206f776e60448201526132b960f11b606482015260840161069a565b336001600160a01b0382161480610a165750610a1681336105aa565b610a885760405162461bcd60e51b815260206004820152603960248201527f455243373231413a20617070726f76652063616c6c6572206973206e6f74206f60448201527f776e6572206e6f7220617070726f76656420666f7220616c6c00000000000000606482015260840161069a565b61085e838383611681565b61085e8383836116dd565b6000546001600160a01b03163314610ac85760405162461bcd60e51b815260040161069a90612769565b600955565b6000610ad8836110c1565b8210610b315760405162461bcd60e51b815260206004820152602260248201527f455243373231413a206f776e657220696e646578206f7574206f6620626f756e604482015261647360f01b606482015260840161069a565b6000610b3c60015490565b905060008060005b83811015610be6576000818152600460209081526040918290208251808401909352546001600160a01b038116808452600160a01b90910467ffffffffffffffff169183019190915215610b9757805192505b876001600160a01b0316836001600160a01b03161415610bd35786841415610bc55750935061065f92505050565b83610bcf8161279e565b9450505b5080610bde8161279e565b915050610b44565b5060405162461bcd60e51b815260206004820152602e60248201527f455243373231413a20756e61626c6520746f2067657420746f6b656e206f662060448201526d0deeedccae440c4f240d2dcc8caf60931b606482015260840161069a565b6000546001600160a01b03163314610c705760405162461bcd60e51b815260040161069a90612769565b6000610c7e6103e8476127cf565b9050600073217fad637779d98966b77435c71982d1cc5e2f86610ca38361012c61270f565b604051600081818185875af1925050503d8060008114610cdf576040519150601f19603f3d011682016040523d82523d6000602084013e610ce4565b606091505b509091506000905073217fad637779d98966b77435c71982d1cc5e2f86610d0c8460a861270f565b604051600081818185875af1925050503d8060008114610d48576040519150601f19603f3d011682016040523d82523d6000602084013e610d4d565b606091505b509091506000905073217fad637779d98966b77435c71982d1cc5e2f86610d758560a861270f565b604051600081818185875af1925050503d8060008114610db1576040519150601f19603f3d011682016040523d82523d6000602084013e610db6565b606091505b509091506000905073e8d1fcb2c6c8b4a5c281fc2fbfe8e2fc0fdf8ecb610dde86607161270f565b604051600081818185875af1925050503d8060008114610e1a576040519150601f19603f3d011682016040523d82523d6000602084013e610e1f565b606091505b509091506000905073e8d1fcb2c6c8b4a5c281fc2fbfe8e2fc0fdf8ecb610e4787607161270f565b604051600081818185875af1925050503d8060008114610e83576040519150601f19603f3d011682016040523d82523d6000602084013e610e88565b606091505b50909150600090507396b3bfda6f2ba9d1bb573c97530e82187267d26f610eb088607161270f565b604051600081818185875af1925050503d8060008114610eec576040519150601f19603f3d011682016040523d82523d6000602084013e610ef1565b606091505b50909150600090507396b3bfda6f2ba9d1bb573c97530e82187267d26f610f1989601961270f565b604051600081818185875af1925050503d8060008114610f55576040519150601f19603f3d011682016040523d82523d6000602084013e610f5a565b606091505b5050505050505050505050565b61085e83838360405180602001604052806000815250611442565b6000610f8d60015490565b8210610fe75760405162461bcd60e51b815260206004820152602360248201527f455243373231413a20676c6f62616c20696e646578206f7574206f6620626f756044820152626e647360e81b606482015260840161069a565b5090565b6000546001600160a01b031633146110155760405162461bcd60e51b815260040161069a90612769565b61085e600b8383612207565b600061102c82611a65565b5192915050565b600b80546110409061272e565b80601f016020809104026020016040519081016040528092919081815260200182805461106c9061272e565b80156110b95780601f1061108e576101008083540402835291602001916110b9565b820191906000526020600020905b81548152906001019060200180831161109c57829003601f168201915b505050505081565b60006001600160a01b03821661112d5760405162461bcd60e51b815260206004820152602b60248201527f455243373231413a2062616c616e636520717565727920666f7220746865207a60448201526a65726f206164647265737360a81b606482015260840161069a565b506001600160a01b03166000908152600560205260409020546001600160801b031690565b6000546001600160a01b0316331461117c5760405162461bcd60e51b815260040161069a90612769565b6111866000611c0f565b565b6000546001600160a01b031633146111b25760405162461bcd60e51b815260040161069a90612769565b600a55565b6060600380546108729061272e565b6000546001600160a01b031633146111f05760405162461bcd60e51b815260040161069a90612769565b6122b8826111fd60015490565b6112079190612676565b11156112255760405162461bcd60e51b815260040161069a9061268e565b61122f8183611667565b5050565b6122b88161124060015490565b61124a9190612676565b11156112685760405162461bcd60e51b815260040161069a9061268e565b6009546002146112ab5760405162461bcd60e51b815260206004820152600e60248201526d13525395125391d7d4105554d15160921b604482015260640161069a565b6000811180156112bc575060028111155b6112d85760405162461bcd60e51b815260040161069a906126c5565b346112eb8267011c37937e08000061270f565b111561132a5760405162461bcd60e51b815260206004820152600e60248201526d414d4f554e545f544f4f5f4c4f5760901b604482015260640161069a565b3233146113705760405162461bcd60e51b815260206004820152601460248201527353454e4445525f49535f4e4f545f414e5f454f4160601b604482015260640161069a565b61137a3382611667565b50565b6001600160a01b0382163314156113d65760405162461bcd60e51b815260206004820152601a60248201527f455243373231413a20617070726f766520746f2063616c6c6572000000000000604482015260640161069a565b3360008181526007602090815260408083206001600160a01b03871680855290835292819020805460ff191686151590811790915590519081529192917f17307eab39ab6107e8899845ad3d59bd9653f200f220920489ca2b5937696c31910160405180910390a35050565b61144d8484846116dd565b61145984848484611c5f565b6114755760405162461bcd60e51b815260040161069a906127e3565b50505050565b6060611488826001541190565b6114ec5760405162461bcd60e51b815260206004820152602f60248201527f4552433732314d657461646174613a2055524920717565727920666f72206e6f60448201526e3732bc34b9ba32b73a103a37b5b2b760891b606482015260840161069a565b60006114f6611d5d565b905060008151116115165760405180602001604052806000815250611541565b8061152084611d6c565b604051602001611531929190612836565b6040516020818303038152906040525b9392505050565b6000546001600160a01b031633146115725760405162461bcd60e51b815260040161069a90612769565b6001600160a01b0381166115d75760405162461bcd60e51b815260206004820152602660248201527f4f776e61626c653a206e6577206f776e657220697320746865207a65726f206160448201526564647265737360d01b606482015260840161069a565b61137a81611c0f565b6040516bffffffffffffffffffffffff193360601b166020820152600090819060340160405160208183030381529060405280519060200120905061165f600a5482868680806020026020016040519081016040528093929190818152602001838360200280828437600092019190915250929493925050611e6a9050565b949350505050565b61122f828260405180602001604052806000815250611e80565b60008281526006602052604080822080546001600160a01b0319166001600160a01b0387811691821790925591518593918516917f8c5be1e5ebec7d5bd14f71427d1e84f3dd0314c0f7b2291e5b200ac8c7c3b92591a4505050565b60006116e882611a65565b80519091506000906001600160a01b0316336001600160a01b0316148061171f575033611714846108f5565b6001600160a01b0316145b806117315750815161173190336105aa565b90508061179b5760405162461bcd60e51b815260206004820152603260248201527f455243373231413a207472616e736665722063616c6c6572206973206e6f74206044820152711bdddb995c881b9bdc88185c1c1c9bdd995960721b606482015260840161069a565b846001600160a01b031682600001516001600160a01b03161461180f5760405162461bcd60e51b815260206004820152602660248201527f455243373231413a207472616e736665722066726f6d20696e636f72726563746044820152651037bbb732b960d11b606482015260840161069a565b6001600160a01b0384166118735760405162461bcd60e51b815260206004820152602560248201527f455243373231413a207472616e7366657220746f20746865207a65726f206164604482015264647265737360d81b606482015260840161069a565b6118836000848460000151611681565b6001600160a01b03851660009081526005602052604081208054600192906118b59084906001600160801b0316612865565b82546101009290920a6001600160801b038181021990931691831602179091556001600160a01b038616600090815260056020526040812080546001945090926119019185911661288d565b82546001600160801b039182166101009390930a9283029190920219909116179055506040805180820182526001600160a01b03808716825267ffffffffffffffff428116602080850191825260008981526004909152948520935184549151909216600160a01b026001600160e01b03199091169190921617179055611989846001612676565b6000818152600460205260409020549091506001600160a01b0316611a1b576119b3816001541190565b15611a1b5760408051808201825284516001600160a01b03908116825260208087015167ffffffffffffffff9081168285019081526000878152600490935294909120925183549451909116600160a01b026001600160e01b03199094169116179190911790555b83856001600160a01b0316876001600160a01b03167fddf252ad1be2c89b69c2b068fc378daa952ba7f163c4a11628f55a4df523b3ef60405160405180910390a45b505050505050565b6040805180820190915260008082526020820152611a84826001541190565b611ae35760405162461bcd60e51b815260206004820152602a60248201527f455243373231413a206f776e657220717565727920666f72206e6f6e657869736044820152693a32b73a103a37b5b2b760b11b606482015260840161069a565b60007f00000000000000000000000000000000000000000000000000000000000000008310611b4457611b367f0000000000000000000000000000000000000000000000000000000000000000846128af565b611b41906001612676565b90505b825b818110611bae576000818152600460209081526040918290208251808401909352546001600160a01b038116808452600160a01b90910467ffffffffffffffff169183019190915215611b9b57949350505050565b5080611ba6816128c6565b915050611b46565b5060405162461bcd60e51b815260206004820152602f60248201527f455243373231413a20756e61626c6520746f2064657465726d696e652074686560448201526e1037bbb732b91037b3103a37b5b2b760891b606482015260840161069a565b600080546001600160a01b038381166001600160a01b0319831681178455604051919092169283917f8be0079c531659141344cd1fd0a4f28419497f9722a3daafe3b4186f6b6457e09190a35050565b60006001600160a01b0384163b15611d5257604051630a85bd0160e11b81526001600160a01b0385169063150b7a0290611ca39033908990889088906004016128dd565b6020604051808303816000875af1925050508015611cde575060408051601f3d908101601f19168201909252611cdb9181019061291a565b60015b611d38573d808015611d0c576040519150601f19603f3d011682016040523d82523d6000602084013e611d11565b606091505b508051611d305760405162461bcd60e51b815260040161069a906127e3565b805181602001fd5b6001600160e01b031916630a85bd0160e11b14905061165f565b506001949350505050565b6060600b80546108729061272e565b606081611d905750506040805180820190915260018152600360fc1b602082015290565b8160005b8115611dba5780611da48161279e565b9150611db39050600a836127cf565b9150611d94565b60008167ffffffffffffffff811115611dd557611dd5612544565b6040519080825280601f01601f191660200182016040528015611dff576020820181803683370190505b5090505b841561165f57611e146001836128af565b9150611e21600a86612937565b611e2c906030612676565b60f81b818381518110611e4157611e4161294b565b60200101906001600160f81b031916908160001a905350611e63600a866127cf565b9450611e03565b600082611e77858461215b565b14949350505050565b6001546001600160a01b038416611ee35760405162461bcd60e51b815260206004820152602160248201527f455243373231413a206d696e7420746f20746865207a65726f206164647265736044820152607360f81b606482015260840161069a565b611eee816001541190565b15611f3b5760405162461bcd60e51b815260206004820152601d60248201527f455243373231413a20746f6b656e20616c7265616479206d696e746564000000604482015260640161069a565b7f0000000000000000000000000000000000000000000000000000000000000000831115611fb65760405162461bcd60e51b815260206004820152602260248201527f455243373231413a207175616e7469747920746f206d696e7420746f6f2068696044820152610ced60f31b606482015260840161069a565b6001600160a01b0384166000908152600560209081526040918290208251808401845290546001600160801b038082168352600160801b909104169181019190915281518083019092528051909190819061201290879061288d565b6001600160801b03168152602001858360200151612030919061288d565b6001600160801b039081169091526001600160a01b0380881660008181526005602090815260408083208751978301518716600160801b0297909616969096179094558451808601865291825267ffffffffffffffff4281168386019081528883526004909552948120915182549451909516600160a01b026001600160e01b031990941694909216939093179190911790915582905b858110156121505760405182906001600160a01b038916906000907fddf252ad1be2c89b69c2b068fc378daa952ba7f163c4a11628f55a4df523b3ef908290a46121146000888488611c5f565b6121305760405162461bcd60e51b815260040161069a906127e3565b8161213a8161279e565b92505080806121489061279e565b9150506120c7565b506001819055611a5d565b600081815b84518110156121ff57600085828151811061217d5761217d61294b565b602002602001015190508083116121bf5760408051602081018590529081018290526060016040516020818303038152906040528051906020012092506121ec565b60408051602081018390529081018490526060016040516020818303038152906040528051906020012092505b50806121f78161279e565b915050612160565b509392505050565b8280546122139061272e565b90600052602060002090601f016020900481019282612235576000855561227b565b82601f1061224e5782800160ff1982351617855561227b565b8280016001018555821561227b579182015b8281111561227b578235825591602001919060010190612260565b50610fe79291505b80821115610fe75760008155600101612283565b6001600160e01b03198116811461137a57600080fd5b6000602082840312156122bf57600080fd5b813561154181612297565b6000806000604084860312156122df57600080fd5b83359250602084013567ffffffffffffffff808211156122fe57600080fd5b818601915086601f83011261231257600080fd5b81358181111561232157600080fd5b8760208260051b850101111561233657600080fd5b6020830194508093505050509250925092565b60005b8381101561236457818101518382015260200161234c565b838111156114755750506000910152565b6000815180845261238d816020860160208601612349565b601f01601f19169290920160200192915050565b6020815260006115416020830184612375565b6000602082840312156123c657600080fd5b5035919050565b80356001600160a01b03811681146123e457600080fd5b919050565b600080604083850312156123fc57600080fd5b612405836123cd565b946020939093013593505050565b60008060006060848603121561242857600080fd5b612431846123cd565b925061243f602085016123cd565b9150604084013590509250925092565b6000806020838503121561246257600080fd5b823567ffffffffffffffff8082111561247a57600080fd5b818501915085601f83011261248e57600080fd5b81358181111561249d57600080fd5b8660208285010111156124af57600080fd5b60209290920196919550909350505050565b6000602082840312156124d357600080fd5b611541826123cd565b600080604083850312156124ef57600080fd5b823591506124ff602084016123cd565b90509250929050565b6000806040838503121561251b57600080fd5b612524836123cd565b91506020830135801515811461253957600080fd5b809150509250929050565b634e487b7160e01b600052604160045260246000fd5b6000806000806080858703121561257057600080fd5b612579856123cd565b9350612587602086016123cd565b925060408501359150606085013567ffffffffffffffff808211156125ab57600080fd5b818701915087601f8301126125bf57600080fd5b8135818111156125d1576125d1612544565b604051601f8201601f19908116603f011681019083821181831017156125f9576125f9612544565b816040528281528a602084870101111561261257600080fd5b82602086016020830137600060208483010152809550505050505092959194509250565b6000806040838503121561264957600080fd5b612652836123cd565b91506124ff602084016123cd565b634e487b7160e01b600052601160045260246000fd5b6000821982111561268957612689612660565b500190565b60208082526019908201527f4d494e545f455843454544535f544f54414c5f535550504c5900000000000000604082015260600190565b6020808252602a908201527f4d494e545f455843454544535f4c494d49545f414c4c4f5745445f5045525f546040820152692920a729a0a1aa24a7a760b11b606082015260800190565b600081600019048311821515161561272957612729612660565b500290565b600181811c9082168061274257607f821691505b6020821081141561276357634e487b7160e01b600052602260045260246000fd5b50919050565b6020808252818101527f4f776e61626c653a2063616c6c6572206973206e6f7420746865206f776e6572604082015260600190565b60006000198214156127b2576127b2612660565b5060010190565b634e487b7160e01b600052601260045260246000fd5b6000826127de576127de6127b9565b500490565b60208082526033908201527f455243373231413a207472616e7366657220746f206e6f6e204552433732315260408201527232b1b2b4bb32b91034b6b83632b6b2b73a32b960691b606082015260800190565b60008351612848818460208801612349565b83519083019061285c818360208801612349565b01949350505050565b60006001600160801b038381169083168181101561288557612885612660565b039392505050565b60006001600160801b0380831681851680830382111561285c5761285c612660565b6000828210156128c1576128c1612660565b500390565b6000816128d5576128d5612660565b506000190190565b6001600160a01b038581168252841660208201526040810183905260806060820181905260009061291090830184612375565b9695505050505050565b60006020828403121561292c57600080fd5b815161154181612297565b600082612946576129466127b9565b500690565b634e487b7160e01b600052603260045260246000fdfea2646970667358221220482d01d22033d79fe8d737d941cadc427bdf312fc2192454170f718093267cdb64736f6c634300080b0033",
  "immutableReferences": {
    "1381": [
      {
        "length": 32,
        "start": 6887
      },
      {
        "length": 32,
        "start": 6929
      },
      {
        "length": 32,
        "start": 7997
      }
    ]
  },
  "source": "// SPDX-License-Identifier: MIT\npragma solidity ^0.8.11;\n\nimport \"@openzeppelin/contracts/utils/cryptography/MerkleProof.sol\";\nimport \"@openzeppelin/contracts/access/Ownable.sol\";\nimport \"./ERC721A.sol\";\n\ncontract AlphaTest is Ownable, ERC721A {\n    using MerkleProof for bytes32[];\n\n    uint256 public constant MAX_SUPPLY = 8888;\n    uint256 public constant PUBLIC_MINT_LIMIT = 2;\n    uint256 public constant PRESALE_MINT_LIMIT = 2;\n\n    uint256 public constant MINT_PRICE = 0.08 ether;\n\n    /// @dev Inactive = 0; Presale = 1; Public = 2\n    uint256 public saleFlag;\n\n    bytes32 public merkleRoot;\n    string public baseURI;\n    \n    mapping(address => uint256) private whitelistMints;\n\n    constructor() ERC721A(\"Alpha Test\", \"ALTE\", PUBLIC_MINT_LIMIT, MAX_SUPPLY) {}\n\n    function verifyProof(bytes32[] calldata _proof) internal view returns (bool) {\n        bytes32 leaf = keccak256(abi.encodePacked(msg.sender));\n        return _proof.verify(merkleRoot, leaf);\n    }\n\n    function setBaseURI(string calldata _base) external onlyOwner {\n        baseURI = _base;\n    }\n\n    function _baseURI() internal view virtual override returns (string memory) {\n        return baseURI;\n    }\n\n    function setSaleFlag(uint256 _flag) external onlyOwner {\n        saleFlag = _flag;\n    }\n\n    function setMerkleRoot(bytes32 _new) external onlyOwner {\n        merkleRoot = _new;\n    }\n\n    function mint(uint256 _quantity) external payable {\n        require(totalSupply() + _quantity <= MAX_SUPPLY, \"MINT_EXCEEDS_TOTAL_SUPPLY\");\n\n        require(saleFlag == 2, \"MINTING_PAUSED\");\n        require(_quantity > 0 && _quantity <= PUBLIC_MINT_LIMIT, \"MINT_EXCEEDS_LIMIT_ALLOWED_PER_TRANSACTION\");\n        require(MINT_PRICE * _quantity <= msg.value, \"AMOUNT_TOO_LOW\");\n        require(tx.origin == msg.sender, \"SENDER_IS_NOT_AN_EOA\");\n\n        _safeMint(msg.sender, _quantity);\n    }\n\n    function mintWhitelist(uint256 _quantity, bytes32[] calldata _proof) external payable {\n        require(totalSupply() + _quantity <= MAX_SUPPLY, \"MINT_EXCEEDS_TOTAL_SUPPLY\");\n\n        require(saleFlag == 1, \"MINTING_PAUSED\");\n        require(verifyProof(_proof), \"INVALID_MERKLE_PROOF\");\n        require(whitelistMints[msg.sender] + _quantity <= PRESALE_MINT_LIMIT, \"MINT_EXCEEDS_LIMIT_ALLOWED_FOR_WHITELIST\");\n        require(_quantity > 0 && _quantity <= PRESALE_MINT_LIMIT, \"MINT_EXCEEDS_LIMIT_ALLOWED_PER_TRANSACTION\");\n        require(MINT_PRICE * _quantity <= msg.value, \"AMOUNT_TOO_LOW\");\n\n        whitelistMints[msg.sender] += _quantity;\n\n        _safeMint(msg.sender, _quantity);\n    }\n\n    function mintOwner(uint256 _quantity, address _to) external onlyOwner {\n        require(totalSupply() + _quantity <= MAX_SUPPLY, \"MINT_EXCEEDS_TOTAL_SUPPLY\");\n\n        _safeMint(_to, _quantity);\n    }\n\n    /** @notice\n     * ALLOCATIONS:\n     *  - Community Multisig: 30% (Signers: Bitquence, sOwner1, sOwner2, sMark, sDev1, sDev2 / 4 of 5 signatures)\n     *  - Owners: 33.6%\n     *  - Marketing: 11.3%\n     *  - Developpers: 22.6%\n     *  - Artist: 2.5%\n     */\n    function withdraw() external onlyOwner {\n        uint256 balanceDividend = address(this).balance / 1000;\n\n        (bool sComm,) = address(0x217fAD637779D98966B77435c71982d1cc5E2F86).call{value: balanceDividend * 300}(\"\");\n        (bool sOwner1,) = address(0x217fAD637779D98966B77435c71982d1cc5E2F86).call{value: balanceDividend * 168}(\"\"); // done\n        (bool sOwner2,) = address(0x217fAD637779D98966B77435c71982d1cc5E2F86).call{value: balanceDividend * 168}(\"\");\n        (bool sMark,) = address(0xe8D1FCB2C6C8b4A5c281fC2fBFe8E2fC0fDF8eCb).call{value: balanceDividend * 113}(\"\");\n        (bool sDev1,) = address(0xe8D1FCB2C6C8b4A5c281fC2fBFe8E2fC0fDF8eCb).call{value: balanceDividend * 113}(\"\"); // done\n        (bool sDev2,) = address(0x96B3BfDa6f2ba9d1BB573C97530E82187267d26F).call{value: balanceDividend * 113}(\"\"); // done\n        (bool sArt,) = address(0x96B3BfDa6f2ba9d1BB573C97530E82187267d26F).call{value: balanceDividend * 25}(\"\");\n    }\n}\n",
  "sourcePath": "/home/debian/contract/contracts/AlphaTest.sol",
  "compiler": {
    "name": "solc",
    "version": "0.8.11+commit.d7f03943.Emscripten.clang"
  },
  "schemaVersion": "3.4.4",
  "updatedAt": "2022-02-11T23:38:43.044Z",
  "networkType": "ethereum",
  "devdoc": {
    "kind": "dev",
    "methods": {
      "approve(address,uint256)": {
        "details": "See {IERC721-approve}."
      },
      "balanceOf(address)": {
        "details": "See {IERC721-balanceOf}."
      },
      "getApproved(uint256)": {
        "details": "See {IERC721-getApproved}."
      },
      "isApprovedForAll(address,address)": {
        "details": "See {IERC721-isApprovedForAll}."
      },
      "name()": {
        "details": "See {IERC721Metadata-name}."
      },
      "owner()": {
        "details": "Returns the address of the current owner."
      },
      "ownerOf(uint256)": {
        "details": "See {IERC721-ownerOf}."
      },
      "renounceOwnership()": {
        "details": "Leaves the contract without owner. It will not be possible to call `onlyOwner` functions anymore. Can only be called by the current owner. NOTE: Renouncing ownership will leave the contract without an owner, thereby removing any functionality that is only available to the owner."
      },
      "safeTransferFrom(address,address,uint256)": {
        "details": "See {IERC721-safeTransferFrom}."
      },
      "safeTransferFrom(address,address,uint256,bytes)": {
        "details": "See {IERC721-safeTransferFrom}."
      },
      "setApprovalForAll(address,bool)": {
        "details": "See {IERC721-setApprovalForAll}."
      },
      "supportsInterface(bytes4)": {
        "details": "See {IERC165-supportsInterface}."
      },
      "symbol()": {
        "details": "See {IERC721Metadata-symbol}."
      },
      "tokenByIndex(uint256)": {
        "details": "See {IERC721Enumerable-tokenByIndex}."
      },
      "tokenOfOwnerByIndex(address,uint256)": {
        "details": "See {IERC721Enumerable-tokenOfOwnerByIndex}. This read function is O(collectionSize). If calling from a separate contract, be sure to test gas first. It may also degrade with extremely large collection sizes (e.g >> 10000), test for your use case."
      },
      "tokenURI(uint256)": {
        "details": "See {IERC721Metadata-tokenURI}."
      },
      "totalSupply()": {
        "details": "See {IERC721Enumerable-totalSupply}."
      },
      "transferFrom(address,address,uint256)": {
        "details": "See {IERC721-transferFrom}."
      },
      "transferOwnership(address)": {
        "details": "Transfers ownership of the contract to a new account (`newOwner`). Can only be called by the current owner."
      }
    },
    "stateVariables": {
      "saleFlag": {
        "details": "Inactive = 0; Presale = 1; Public = 2"
      }
    },
    "version": 1
  },
  "userdoc": {
    "kind": "user",
    "methods": {
      "withdraw()": {
        "notice": "ALLOCATIONS:  - Community Multisig: 30% (Signers: Bitquence, sOwner1, sOwner2, sMark, sDev1, sDev2 / 4 of 5 signatures)  - Owners: 33.6%  - Marketing: 11.3%  - Developpers: 22.6%  - Artist: 2.5%"
      }
    },
    "version": 1
  }
}