{
  "contractName": "AlphaTest",
  "abi": [
    {
      "inputs": [],
      "stateMutability": "nonpayable",
      "type": "constructor"
    },
    {
      "anonymous": false,
      "inputs": [
        {
          "indexed": true,
          "internalType": "address",
          "name": "owner",
          "type": "address"
        },
        {
          "indexed": true,
          "internalType": "address",
          "name": "approved",
          "type": "address"
        },
        {
          "indexed": true,
          "internalType": "uint256",
          "name": "tokenId",
          "type": "uint256"
        }
      ],
      "name": "Approval",
      "type": "event"
    },
    {
      "anonymous": false,
      "inputs": [
        {
          "indexed": true,
          "internalType": "address",
          "name": "owner",
          "type": "address"
        },
        {
          "indexed": true,
          "internalType": "address",
          "name": "operator",
          "type": "address"
        },
        {
          "indexed": false,
          "internalType": "bool",
          "name": "approved",
          "type": "bool"
        }
      ],
      "name": "ApprovalForAll",
      "type": "event"
    },
    {
      "anonymous": false,
      "inputs": [
        {
          "indexed": true,
          "internalType": "address",
          "name": "previousOwner",
          "type": "address"
        },
        {
          "indexed": true,
          "internalType": "address",
          "name": "newOwner",
          "type": "address"
        }
      ],
      "name": "OwnershipTransferred",
      "type": "event"
    },
    {
      "anonymous": false,
      "inputs": [
        {
          "indexed": true,
          "internalType": "address",
          "name": "from",
          "type": "address"
        },
        {
          "indexed": true,
          "internalType": "address",
          "name": "to",
          "type": "address"
        },
        {
          "indexed": true,
          "internalType": "uint256",
          "name": "tokenId",
          "type": "uint256"
        }
      ],
      "name": "Transfer",
      "type": "event"
    },
    {
      "inputs": [],
      "name": "MAX_SUPPLY",
      "outputs": [
        {
          "internalType": "uint256",
          "name": "",
          "type": "uint256"
        }
      ],
      "stateMutability": "view",
      "type": "function",
      "constant": true
    },
    {
      "inputs": [],
      "name": "MINT_PRICE",
      "outputs": [
        {
          "internalType": "uint256",
          "name": "",
          "type": "uint256"
        }
      ],
      "stateMutability": "view",
      "type": "function",
      "constant": true
    },
    {
      "inputs": [],
      "name": "PRESALE_MINT_LIMIT",
      "outputs": [
        {
          "internalType": "uint256",
          "name": "",
          "type": "uint256"
        }
      ],
      "stateMutability": "view",
      "type": "function",
      "constant": true
    },
    {
      "inputs": [],
      "name": "PUBLIC_MINT_LIMIT",
      "outputs": [
        {
          "internalType": "uint256",
          "name": "",
          "type": "uint256"
        }
      ],
      "stateMutability": "view",
      "type": "function",
      "constant": true
    },
    {
      "inputs": [
        {
          "internalType": "address",
          "name": "to",
          "type": "address"
        },
        {
          "internalType": "uint256",
          "name": "tokenId",
          "type": "uint256"
        }
      ],
      "name": "approve",
      "outputs": [],
      "stateMutability": "nonpayable",
      "type": "function"
    },
    {
      "inputs": [
        {
          "internalType": "address",
          "name": "owner",
          "type": "address"
        }
      ],
      "name": "balanceOf",
      "outputs": [
        {
          "internalType": "uint256",
          "name": "",
          "type": "uint256"
        }
      ],
      "stateMutability": "view",
      "type": "function",
      "constant": true
    },
    {
      "inputs": [],
      "name": "baseURI",
      "outputs": [
        {
          "internalType": "string",
          "name": "",
          "type": "string"
        }
      ],
      "stateMutability": "view",
      "type": "function",
      "constant": true
    },
    {
      "inputs": [
        {
          "internalType": "uint256",
          "name": "tokenId",
          "type": "uint256"
        }
      ],
      "name": "getApproved",
      "outputs": [
        {
          "internalType": "address",
          "name": "",
          "type": "address"
        }
      ],
      "stateMutability": "view",
      "type": "function",
      "constant": true
    },
    {
      "inputs": [
        {
          "internalType": "address",
          "name": "owner",
          "type": "address"
        },
        {
          "internalType": "address",
          "name": "operator",
          "type": "address"
        }
      ],
      "name": "isApprovedForAll",
      "outputs": [
        {
          "internalType": "bool",
          "name": "",
          "type": "bool"
        }
      ],
      "stateMutability": "view",
      "type": "function",
      "constant": true
    },
    {
      "inputs": [],
      "name": "merkleRoot",
      "outputs": [
        {
          "internalType": "bytes32",
          "name": "",
          "type": "bytes32"
        }
      ],
      "stateMutability": "view",
      "type": "function",
      "constant": true
    },
    {
      "inputs": [],
      "name": "name",
      "outputs": [
        {
          "internalType": "string",
          "name": "",
          "type": "string"
        }
      ],
      "stateMutability": "view",
      "type": "function",
      "constant": true
    },
    {
      "inputs": [],
      "name": "nextOwnerToExplicitlySet",
      "outputs": [
        {
          "internalType": "uint256",
          "name": "",
          "type": "uint256"
        }
      ],
      "stateMutability": "view",
      "type": "function",
      "constant": true
    },
    {
      "inputs": [],
      "name": "owner",
      "outputs": [
        {
          "internalType": "address",
          "name": "",
          "type": "address"
        }
      ],
      "stateMutability": "view",
      "type": "function",
      "constant": true
    },
    {
      "inputs": [
        {
          "internalType": "uint256",
          "name": "tokenId",
          "type": "uint256"
        }
      ],
      "name": "ownerOf",
      "outputs": [
        {
          "internalType": "address",
          "name": "",
          "type": "address"
        }
      ],
      "stateMutability": "view",
      "type": "function",
      "constant": true
    },
    {
      "inputs": [],
      "name": "renounceOwnership",
      "outputs": [],
      "stateMutability": "nonpayable",
      "type": "function"
    },
    {
      "inputs": [
        {
          "internalType": "address",
          "name": "from",
          "type": "address"
        },
        {
          "internalType": "address",
          "name": "to",
          "type": "address"
        },
        {
          "internalType": "uint256",
          "name": "tokenId",
          "type": "uint256"
        }
      ],
      "name": "safeTransferFrom",
      "outputs": [],
      "stateMutability": "nonpayable",
      "type": "function"
    },
    {
      "inputs": [
        {
          "internalType": "address",
          "name": "from",
          "type": "address"
        },
        {
          "internalType": "address",
          "name": "to",
          "type": "address"
        },
        {
          "internalType": "uint256",
          "name": "tokenId",
          "type": "uint256"
        },
        {
          "internalType": "bytes",
          "name": "_data",
          "type": "bytes"
        }
      ],
      "name": "safeTransferFrom",
      "outputs": [],
      "stateMutability": "nonpayable",
      "type": "function"
    },
    {
      "inputs": [],
      "name": "saleFlag",
      "outputs": [
        {
          "internalType": "uint256",
          "name": "",
          "type": "uint256"
        }
      ],
      "stateMutability": "view",
      "type": "function",
      "constant": true
    },
    {
      "inputs": [
        {
          "internalType": "address",
          "name": "operator",
          "type": "address"
        },
        {
          "internalType": "bool",
          "name": "approved",
          "type": "bool"
        }
      ],
      "name": "setApprovalForAll",
      "outputs": [],
      "stateMutability": "nonpayable",
      "type": "function"
    },
    {
      "inputs": [
        {
          "internalType": "bytes4",
          "name": "interfaceId",
          "type": "bytes4"
        }
      ],
      "name": "supportsInterface",
      "outputs": [
        {
          "internalType": "bool",
          "name": "",
          "type": "bool"
        }
      ],
      "stateMutability": "view",
      "type": "function",
      "constant": true
    },
    {
      "inputs": [],
      "name": "symbol",
      "outputs": [
        {
          "internalType": "string",
          "name": "",
          "type": "string"
        }
      ],
      "stateMutability": "view",
      "type": "function",
      "constant": true
    },
    {
      "inputs": [
        {
          "internalType": "uint256",
          "name": "index",
          "type": "uint256"
        }
      ],
      "name": "tokenByIndex",
      "outputs": [
        {
          "internalType": "uint256",
          "name": "",
          "type": "uint256"
        }
      ],
      "stateMutability": "view",
      "type": "function",
      "constant": true
    },
    {
      "inputs": [
        {
          "internalType": "address",
          "name": "owner",
          "type": "address"
        },
        {
          "internalType": "uint256",
          "name": "index",
          "type": "uint256"
        }
      ],
      "name": "tokenOfOwnerByIndex",
      "outputs": [
        {
          "internalType": "uint256",
          "name": "",
          "type": "uint256"
        }
      ],
      "stateMutability": "view",
      "type": "function",
      "constant": true
    },
    {
      "inputs": [
        {
          "internalType": "uint256",
          "name": "tokenId",
          "type": "uint256"
        }
      ],
      "name": "tokenURI",
      "outputs": [
        {
          "internalType": "string",
          "name": "",
          "type": "string"
        }
      ],
      "stateMutability": "view",
      "type": "function",
      "constant": true
    },
    {
      "inputs": [],
      "name": "totalSupply",
      "outputs": [
        {
          "internalType": "uint256",
          "name": "",
          "type": "uint256"
        }
      ],
      "stateMutability": "view",
      "type": "function",
      "constant": true
    },
    {
      "inputs": [
        {
          "internalType": "address",
          "name": "from",
          "type": "address"
        },
        {
          "internalType": "address",
          "name": "to",
          "type": "address"
        },
        {
          "internalType": "uint256",
          "name": "tokenId",
          "type": "uint256"
        }
      ],
      "name": "transferFrom",
      "outputs": [],
      "stateMutability": "nonpayable",
      "type": "function"
    },
    {
      "inputs": [
        {
          "internalType": "address",
          "name": "newOwner",
          "type": "address"
        }
      ],
      "name": "transferOwnership",
      "outputs": [],
      "stateMutability": "nonpayable",
      "type": "function"
    },
    {
      "inputs": [
        {
          "internalType": "string",
          "name": "_base",
          "type": "string"
        }
      ],
      "name": "setBaseURI",
      "outputs": [],
      "stateMutability": "nonpayable",
      "type": "function"
    },
    {
      "inputs": [
        {
          "internalType": "uint256",
          "name": "_flag",
          "type": "uint256"
        }
      ],
      "name": "setSaleFlag",
      "outputs": [],
      "stateMutability": "nonpayable",
      "type": "function"
    },
    {
      "inputs": [
        {
          "internalType": "bytes32",
          "name": "_new",
          "type": "bytes32"
        }
      ],
      "name": "setMerkleRoot",
      "outputs": [],
      "stateMutability": "nonpayable",
      "type": "function"
    },
    {
      "inputs": [
        {
          "internalType": "uint256",
          "name": "_quantity",
          "type": "uint256"
        }
      ],
      "name": "mint",
      "outputs": [],
      "stateMutability": "payable",
      "type": "function",
      "payable": true
    },
    {
      "inputs": [
        {
          "internalType": "uint256",
          "name": "_quantity",
          "type": "uint256"
        },
        {
          "internalType": "bytes32[]",
          "name": "_proof",
          "type": "bytes32[]"
        }
      ],
      "name": "mintWhitelist",
      "outputs": [],
      "stateMutability": "payable",
      "type": "function",
      "payable": true
    },
    {
      "inputs": [
        {
          "internalType": "uint256",
          "name": "_quantity",
          "type": "uint256"
        },
        {
          "internalType": "address",
          "name": "_to",
          "type": "address"
        }
      ],
      "name": "mintOwner",
      "outputs": [],
      "stateMutability": "nonpayable",
      "type": "function"
    },
    {
      "inputs": [],
      "name": "withdraw",
      "outputs": [],
      "stateMutability": "nonpayable",
      "type": "function"
    }
  ],
  "bytecode": "0x60c0604052600060015560006008553480156200001b57600080fd5b506040518060400160405280600a815260200169105b1c1a184815195cdd60b21b81525060405180604001604052806004815260200163414c544560e01b81525060236122b86200007b620000756200018c60201b60201c565b62000190565b60008111620000e85760405162461bcd60e51b815260206004820152602e60248201527f455243373231413a20636f6c6c656374696f6e206d757374206861766520612060448201526d6e6f6e7a65726f20737570706c7960901b60648201526084015b60405180910390fd5b600082116200014a5760405162461bcd60e51b815260206004820152602760248201527f455243373231413a206d61782062617463682073697a65206d757374206265206044820152666e6f6e7a65726f60c81b6064820152608401620000df565b83516200015f906002906020870190620001e0565b50825162000175906003906020860190620001e0565b5060a09190915260805250506001600955620002c3565b3390565b600080546001600160a01b038381166001600160a01b0319831681178455604051919092169283917f8be0079c531659141344cd1fd0a4f28419497f9722a3daafe3b4186f6b6457e09190a35050565b828054620001ee9062000286565b90600052602060002090601f0160209004810192826200021257600085556200025d565b82601f106200022d57805160ff19168380011785556200025d565b828001600101855582156200025d579182015b828111156200025d57825182559160200191906001019062000240565b506200026b9291506200026f565b5090565b5b808211156200026b576000815560010162000270565b600181811c908216806200029b57607f821691505b60208210811415620002bd57634e487b7160e01b600052602260045260246000fd5b50919050565b60805160a051612a10620002f460003960008181611b6001528181611b8a0152611fb6015260005050612a106000f3fe6080604052600436106101f95760003560e01c80636c0360eb1161010d578063a22cb465116100a0578063c87b56dd1161006f578063c87b56dd14610559578063d7224ba014610579578063e985e9c51461058f578063f2fde38b146105d8578063f5ebec80146105f857600080fd5b8063a22cb465146104e8578063b88d4fde14610508578063bceae77b14610528578063c002d23d1461053d57600080fd5b80638da5cb5b116100dc5780638da5cb5b1461048257806395d89b41146104a05780639f15df12146104b5578063a0712d68146104d557600080fd5b80636c0360eb1461041857806370a082311461042d578063715018a61461044d5780637cb647591461046257600080fd5b80632eb4a7ab1161019057806342842e0e1161015f57806342842e0e146103825780634f6ccce7146103a257806355f804b3146103c2578063614bfc55146103e25780636352211e146103f857600080fd5b80632eb4a7ab146103215780632f745c591461033757806332cb6b0c146103575780633ccfd60b1461036d57600080fd5b8063095ea7b3116101cc578063095ea7b3146102a257806318160ddd146102c257806323b872dd146102e157806327b6fb331461030157600080fd5b806301ffc9a7146101fe578063061431a81461023357806306fdde0314610248578063081812fc1461026a575b600080fd5b34801561020a57600080fd5b5061021e610219366004612326565b61060d565b60405190151581526020015b60405180910390f35b610246610241366004612343565b61067a565b005b34801561025457600080fd5b5061025d610878565b60405161022a919061241a565b34801561027657600080fd5b5061028a61028536600461242d565b61090a565b6040516001600160a01b03909116815260200161022a565b3480156102ae57600080fd5b506102466102bd366004612462565b610995565b3480156102ce57600080fd5b506001545b60405190815260200161022a565b3480156102ed57600080fd5b506102466102fc36600461248c565b610aa8565b34801561030d57600080fd5b5061024661031c36600461242d565b610ab3565b34801561032d57600080fd5b506102d3600b5481565b34801561034357600080fd5b506102d3610352366004612462565b610ae2565b34801561036357600080fd5b506102d36122b881565b34801561037957600080fd5b50610246610c5b565b34801561038e57600080fd5b5061024661039d36600461248c565b610fe0565b3480156103ae57600080fd5b506102d36103bd36600461242d565b610ffb565b3480156103ce57600080fd5b506102466103dd3660046124c8565b611064565b3480156103ee57600080fd5b506102d3600a5481565b34801561040457600080fd5b5061028a61041336600461242d565b61109a565b34801561042457600080fd5b5061025d6110ac565b34801561043957600080fd5b506102d361044836600461253a565b61113a565b34801561045957600080fd5b506102466111cb565b34801561046e57600080fd5b5061024661047d36600461242d565b611201565b34801561048e57600080fd5b506000546001600160a01b031661028a565b3480156104ac57600080fd5b5061025d611230565b3480156104c157600080fd5b506102466104d0366004612555565b61123f565b6102466104e336600461242d565b6112ac565b3480156104f457600080fd5b50610246610503366004612581565b6113f6565b34801561051457600080fd5b506102466105233660046125d3565b6114bb565b34801561053457600080fd5b506102d3600381565b34801561054957600080fd5b506102d367011c37937e08000081565b34801561056557600080fd5b5061025d61057436600461242d565b6114f4565b34801561058557600080fd5b506102d360085481565b34801561059b57600080fd5b5061021e6105aa3660046126af565b6001600160a01b03918216600090815260076020908152604080832093909416825291909152205460ff1690565b3480156105e457600080fd5b506102466105f336600461253a565b6115c1565b34801561060457600080fd5b506102d3600281565b60006001600160e01b031982166380ac58cd60e01b148061063e57506001600160e01b03198216635b5e139f60e01b145b8061065957506001600160e01b0319821663780e9d6360e01b145b8061067457506301ffc9a760e01b6001600160e01b03198316145b92915050565b6122b88361068760015490565b61069191906126ef565b11156106b85760405162461bcd60e51b81526004016106af90612707565b60405180910390fd5b600a546001146106fb5760405162461bcd60e51b815260206004820152600e60248201526d13525395125391d7d4105554d15160921b60448201526064016106af565b6107058282611659565b6107485760405162461bcd60e51b815260206004820152601460248201527324a72b20a624a22fa6a2a925a622afa82927a7a360611b60448201526064016106af565b336000908152600d60205260409020546002906107669085906126ef565b11156107c55760405162461bcd60e51b815260206004820152602860248201527f4d494e545f455843454544535f4c494d49545f414c4c4f5745445f464f525f5760448201526712125511531254d560c21b60648201526084016106af565b6000831180156107d6575060028311155b6107f25760405162461bcd60e51b81526004016106af9061273e565b346108058467011c37937e080000612788565b11156108445760405162461bcd60e51b815260206004820152600e60248201526d414d4f554e545f544f4f5f4c4f5760901b60448201526064016106af565b336000908152600d6020526040812080548592906108639084906126ef565b90915550610873905033846116e0565b505050565b606060028054610887906127a7565b80601f01602080910402602001604051908101604052809291908181526020018280546108b3906127a7565b80156109005780601f106108d557610100808354040283529160200191610900565b820191906000526020600020905b8154815290600101906020018083116108e357829003601f168201915b5050505050905090565b6000610917826001541190565b6109795760405162461bcd60e51b815260206004820152602d60248201527f455243373231413a20617070726f76656420717565727920666f72206e6f6e6560448201526c3c34b9ba32b73a103a37b5b2b760991b60648201526084016106af565b506000908152600660205260409020546001600160a01b031690565b60006109a08261109a565b9050806001600160a01b0316836001600160a01b03161415610a0f5760405162461bcd60e51b815260206004820152602260248201527f455243373231413a20617070726f76616c20746f2063757272656e74206f776e60448201526132b960f11b60648201526084016106af565b336001600160a01b0382161480610a2b5750610a2b81336105aa565b610a9d5760405162461bcd60e51b815260206004820152603960248201527f455243373231413a20617070726f76652063616c6c6572206973206e6f74206f60448201527f776e6572206e6f7220617070726f76656420666f7220616c6c0000000000000060648201526084016106af565b6108738383836116fa565b610873838383611756565b6000546001600160a01b03163314610add5760405162461bcd60e51b81526004016106af906127e2565b600a55565b6000610aed8361113a565b8210610b465760405162461bcd60e51b815260206004820152602260248201527f455243373231413a206f776e657220696e646578206f7574206f6620626f756e604482015261647360f01b60648201526084016106af565b6000610b5160015490565b905060008060005b83811015610bfb576000818152600460209081526040918290208251808401909352546001600160a01b038116808452600160a01b90910467ffffffffffffffff169183019190915215610bac57805192505b876001600160a01b0316836001600160a01b03161415610be85786841415610bda5750935061067492505050565b83610be481612817565b9450505b5080610bf381612817565b915050610b59565b5060405162461bcd60e51b815260206004820152602e60248201527f455243373231413a20756e61626c6520746f2067657420746f6b656e206f662060448201526d0deeedccae440c4f240d2dcc8caf60931b60648201526084016106af565b6000546001600160a01b03163314610c855760405162461bcd60e51b81526004016106af906127e2565b60026009541415610cd85760405162461bcd60e51b815260206004820152601f60248201527f5265656e7472616e637947756172643a207265656e7472616e742063616c6c0060448201526064016106af565b60026009556000610cec620186a047612848565b9050600073217fad637779d98966b77435c71982d1cc5e2f86610d1183617530612788565b604051600081818185875af1925050503d8060008114610d4d576040519150601f19603f3d011682016040523d82523d6000602084013e610d52565b606091505b509091506000905073217fad637779d98966b77435c71982d1cc5e2f86610d7b846141eb612788565b604051600081818185875af1925050503d8060008114610db7576040519150601f19603f3d011682016040523d82523d6000602084013e610dbc565b606091505b509091506000905073217fad637779d98966b77435c71982d1cc5e2f86610de5856141eb612788565b604051600081818185875af1925050503d8060008114610e21576040519150601f19603f3d011682016040523d82523d6000602084013e610e26565b606091505b509091506000905073e8d1fcb2c6c8b4a5c281fc2fbfe8e2fc0fdf8ecb610e4f86612bf2612788565b604051600081818185875af1925050503d8060008114610e8b576040519150601f19603f3d011682016040523d82523d6000602084013e610e90565b606091505b509091506000905073e8d1fcb2c6c8b4a5c281fc2fbfe8e2fc0fdf8ecb610eb987612bf2612788565b604051600081818185875af1925050503d8060008114610ef5576040519150601f19603f3d011682016040523d82523d6000602084013e610efa565b606091505b5090915060009050734a45c0d4e49ca18b8e206654544269ca8a73ab81610f2388612bf2612788565b604051600081818185875af1925050503d8060008114610f5f576040519150601f19603f3d011682016040523d82523d6000602084013e610f64565b606091505b5090915060009050734a45c0d4e49ca18b8e206654544269ca8a73ab81610f8d896109c4612788565b604051600081818185875af1925050503d8060008114610fc9576040519150601f19603f3d011682016040523d82523d6000602084013e610fce565b606091505b50506001600955505050505050505050565b610873838383604051806020016040528060008152506114bb565b600061100660015490565b82106110605760405162461bcd60e51b815260206004820152602360248201527f455243373231413a20676c6f62616c20696e646578206f7574206f6620626f756044820152626e647360e81b60648201526084016106af565b5090565b6000546001600160a01b0316331461108e5760405162461bcd60e51b81526004016106af906127e2565b610873600c8383612280565b60006110a582611ade565b5192915050565b600c80546110b9906127a7565b80601f01602080910402602001604051908101604052809291908181526020018280546110e5906127a7565b80156111325780601f1061110757610100808354040283529160200191611132565b820191906000526020600020905b81548152906001019060200180831161111557829003601f168201915b505050505081565b60006001600160a01b0382166111a65760405162461bcd60e51b815260206004820152602b60248201527f455243373231413a2062616c616e636520717565727920666f7220746865207a60448201526a65726f206164647265737360a81b60648201526084016106af565b506001600160a01b03166000908152600560205260409020546001600160801b031690565b6000546001600160a01b031633146111f55760405162461bcd60e51b81526004016106af906127e2565b6111ff6000611c88565b565b6000546001600160a01b0316331461122b5760405162461bcd60e51b81526004016106af906127e2565b600b55565b606060038054610887906127a7565b6000546001600160a01b031633146112695760405162461bcd60e51b81526004016106af906127e2565b6122b88261127660015490565b61128091906126ef565b111561129e5760405162461bcd60e51b81526004016106af90612707565b6112a881836116e0565b5050565b6122b8816112b960015490565b6112c391906126ef565b11156112e15760405162461bcd60e51b81526004016106af90612707565b600a546002146113245760405162461bcd60e51b815260206004820152600e60248201526d13525395125391d7d4105554d15160921b60448201526064016106af565b600081118015611335575060038111155b6113515760405162461bcd60e51b81526004016106af9061273e565b346113648267011c37937e080000612788565b11156113a35760405162461bcd60e51b815260206004820152600e60248201526d414d4f554e545f544f4f5f4c4f5760901b60448201526064016106af565b3233146113e95760405162461bcd60e51b815260206004820152601460248201527353454e4445525f49535f4e4f545f414e5f454f4160601b60448201526064016106af565b6113f333826116e0565b50565b6001600160a01b03821633141561144f5760405162461bcd60e51b815260206004820152601a60248201527f455243373231413a20617070726f766520746f2063616c6c657200000000000060448201526064016106af565b3360008181526007602090815260408083206001600160a01b03871680855290835292819020805460ff191686151590811790915590519081529192917f17307eab39ab6107e8899845ad3d59bd9653f200f220920489ca2b5937696c31910160405180910390a35050565b6114c6848484611756565b6114d284848484611cd8565b6114ee5760405162461bcd60e51b81526004016106af9061285c565b50505050565b6060611501826001541190565b6115655760405162461bcd60e51b815260206004820152602f60248201527f4552433732314d657461646174613a2055524920717565727920666f72206e6f60448201526e3732bc34b9ba32b73a103a37b5b2b760891b60648201526084016106af565b600061156f611dd6565b9050600081511161158f57604051806020016040528060008152506115ba565b8061159984611de5565b6040516020016115aa9291906128af565b6040516020818303038152906040525b9392505050565b6000546001600160a01b031633146115eb5760405162461bcd60e51b81526004016106af906127e2565b6001600160a01b0381166116505760405162461bcd60e51b815260206004820152602660248201527f4f776e61626c653a206e6577206f776e657220697320746865207a65726f206160448201526564647265737360d01b60648201526084016106af565b6113f381611c88565b6040516bffffffffffffffffffffffff193360601b16602082015260009081906034016040516020818303038152906040528051906020012090506116d8600b5482868680806020026020016040519081016040528093929190818152602001838360200280828437600092019190915250929493925050611ee39050565b949350505050565b6112a8828260405180602001604052806000815250611ef9565b60008281526006602052604080822080546001600160a01b0319166001600160a01b0387811691821790925591518593918516917f8c5be1e5ebec7d5bd14f71427d1e84f3dd0314c0f7b2291e5b200ac8c7c3b92591a4505050565b600061176182611ade565b80519091506000906001600160a01b0316336001600160a01b0316148061179857503361178d8461090a565b6001600160a01b0316145b806117aa575081516117aa90336105aa565b9050806118145760405162461bcd60e51b815260206004820152603260248201527f455243373231413a207472616e736665722063616c6c6572206973206e6f74206044820152711bdddb995c881b9bdc88185c1c1c9bdd995960721b60648201526084016106af565b846001600160a01b031682600001516001600160a01b0316146118885760405162461bcd60e51b815260206004820152602660248201527f455243373231413a207472616e736665722066726f6d20696e636f72726563746044820152651037bbb732b960d11b60648201526084016106af565b6001600160a01b0384166118ec5760405162461bcd60e51b815260206004820152602560248201527f455243373231413a207472616e7366657220746f20746865207a65726f206164604482015264647265737360d81b60648201526084016106af565b6118fc60008484600001516116fa565b6001600160a01b038516600090815260056020526040812080546001929061192e9084906001600160801b03166128de565b82546101009290920a6001600160801b038181021990931691831602179091556001600160a01b0386166000908152600560205260408120805460019450909261197a91859116612906565b82546001600160801b039182166101009390930a9283029190920219909116179055506040805180820182526001600160a01b03808716825267ffffffffffffffff428116602080850191825260008981526004909152948520935184549151909216600160a01b026001600160e01b03199091169190921617179055611a028460016126ef565b6000818152600460205260409020549091506001600160a01b0316611a9457611a2c816001541190565b15611a945760408051808201825284516001600160a01b03908116825260208087015167ffffffffffffffff9081168285019081526000878152600490935294909120925183549451909116600160a01b026001600160e01b03199094169116179190911790555b83856001600160a01b0316876001600160a01b03167fddf252ad1be2c89b69c2b068fc378daa952ba7f163c4a11628f55a4df523b3ef60405160405180910390a45b505050505050565b6040805180820190915260008082526020820152611afd826001541190565b611b5c5760405162461bcd60e51b815260206004820152602a60248201527f455243373231413a206f776e657220717565727920666f72206e6f6e657869736044820152693a32b73a103a37b5b2b760b11b60648201526084016106af565b60007f00000000000000000000000000000000000000000000000000000000000000008310611bbd57611baf7f000000000000000000000000000000000000000000000000000000000000000084612928565b611bba9060016126ef565b90505b825b818110611c27576000818152600460209081526040918290208251808401909352546001600160a01b038116808452600160a01b90910467ffffffffffffffff169183019190915215611c1457949350505050565b5080611c1f8161293f565b915050611bbf565b5060405162461bcd60e51b815260206004820152602f60248201527f455243373231413a20756e61626c6520746f2064657465726d696e652074686560448201526e1037bbb732b91037b3103a37b5b2b760891b60648201526084016106af565b600080546001600160a01b038381166001600160a01b0319831681178455604051919092169283917f8be0079c531659141344cd1fd0a4f28419497f9722a3daafe3b4186f6b6457e09190a35050565b60006001600160a01b0384163b15611dcb57604051630a85bd0160e11b81526001600160a01b0385169063150b7a0290611d1c903390899088908890600401612956565b6020604051808303816000875af1925050508015611d57575060408051601f3d908101601f19168201909252611d5491810190612993565b60015b611db1573d808015611d85576040519150601f19603f3d011682016040523d82523d6000602084013e611d8a565b606091505b508051611da95760405162461bcd60e51b81526004016106af9061285c565b805181602001fd5b6001600160e01b031916630a85bd0160e11b1490506116d8565b506001949350505050565b6060600c8054610887906127a7565b606081611e095750506040805180820190915260018152600360fc1b602082015290565b8160005b8115611e335780611e1d81612817565b9150611e2c9050600a83612848565b9150611e0d565b60008167ffffffffffffffff811115611e4e57611e4e6125bd565b6040519080825280601f01601f191660200182016040528015611e78576020820181803683370190505b5090505b84156116d857611e8d600183612928565b9150611e9a600a866129b0565b611ea59060306126ef565b60f81b818381518110611eba57611eba6129c4565b60200101906001600160f81b031916908160001a905350611edc600a86612848565b9450611e7c565b600082611ef085846121d4565b14949350505050565b6001546001600160a01b038416611f5c5760405162461bcd60e51b815260206004820152602160248201527f455243373231413a206d696e7420746f20746865207a65726f206164647265736044820152607360f81b60648201526084016106af565b611f67816001541190565b15611fb45760405162461bcd60e51b815260206004820152601d60248201527f455243373231413a20746f6b656e20616c7265616479206d696e74656400000060448201526064016106af565b7f000000000000000000000000000000000000000000000000000000000000000083111561202f5760405162461bcd60e51b815260206004820152602260248201527f455243373231413a207175616e7469747920746f206d696e7420746f6f2068696044820152610ced60f31b60648201526084016106af565b6001600160a01b0384166000908152600560209081526040918290208251808401845290546001600160801b038082168352600160801b909104169181019190915281518083019092528051909190819061208b908790612906565b6001600160801b031681526020018583602001516120a99190612906565b6001600160801b039081169091526001600160a01b0380881660008181526005602090815260408083208751978301518716600160801b0297909616969096179094558451808601865291825267ffffffffffffffff4281168386019081528883526004909552948120915182549451909516600160a01b026001600160e01b031990941694909216939093179190911790915582905b858110156121c95760405182906001600160a01b038916906000907fddf252ad1be2c89b69c2b068fc378daa952ba7f163c4a11628f55a4df523b3ef908290a461218d6000888488611cd8565b6121a95760405162461bcd60e51b81526004016106af9061285c565b816121b381612817565b92505080806121c190612817565b915050612140565b506001819055611ad6565b600081815b84518110156122785760008582815181106121f6576121f66129c4565b60200260200101519050808311612238576040805160208101859052908101829052606001604051602081830303815290604052805190602001209250612265565b60408051602081018390529081018490526060016040516020818303038152906040528051906020012092505b508061227081612817565b9150506121d9565b509392505050565b82805461228c906127a7565b90600052602060002090601f0160209004810192826122ae57600085556122f4565b82601f106122c75782800160ff198235161785556122f4565b828001600101855582156122f4579182015b828111156122f45782358255916020019190600101906122d9565b506110609291505b8082111561106057600081556001016122fc565b6001600160e01b0319811681146113f357600080fd5b60006020828403121561233857600080fd5b81356115ba81612310565b60008060006040848603121561235857600080fd5b83359250602084013567ffffffffffffffff8082111561237757600080fd5b818601915086601f83011261238b57600080fd5b81358181111561239a57600080fd5b8760208260051b85010111156123af57600080fd5b6020830194508093505050509250925092565b60005b838110156123dd5781810151838201526020016123c5565b838111156114ee5750506000910152565b600081518084526124068160208601602086016123c2565b601f01601f19169290920160200192915050565b6020815260006115ba60208301846123ee565b60006020828403121561243f57600080fd5b5035919050565b80356001600160a01b038116811461245d57600080fd5b919050565b6000806040838503121561247557600080fd5b61247e83612446565b946020939093013593505050565b6000806000606084860312156124a157600080fd5b6124aa84612446565b92506124b860208501612446565b9150604084013590509250925092565b600080602083850312156124db57600080fd5b823567ffffffffffffffff808211156124f357600080fd5b818501915085601f83011261250757600080fd5b81358181111561251657600080fd5b86602082850101111561252857600080fd5b60209290920196919550909350505050565b60006020828403121561254c57600080fd5b6115ba82612446565b6000806040838503121561256857600080fd5b8235915061257860208401612446565b90509250929050565b6000806040838503121561259457600080fd5b61259d83612446565b9150602083013580151581146125b257600080fd5b809150509250929050565b634e487b7160e01b600052604160045260246000fd5b600080600080608085870312156125e957600080fd5b6125f285612446565b935061260060208601612446565b925060408501359150606085013567ffffffffffffffff8082111561262457600080fd5b818701915087601f83011261263857600080fd5b81358181111561264a5761264a6125bd565b604051601f8201601f19908116603f01168101908382118183101715612672576126726125bd565b816040528281528a602084870101111561268b57600080fd5b82602086016020830137600060208483010152809550505050505092959194509250565b600080604083850312156126c257600080fd5b6126cb83612446565b915061257860208401612446565b634e487b7160e01b600052601160045260246000fd5b60008219821115612702576127026126d9565b500190565b60208082526019908201527f4d494e545f455843454544535f544f54414c5f535550504c5900000000000000604082015260600190565b6020808252602a908201527f4d494e545f455843454544535f4c494d49545f414c4c4f5745445f5045525f546040820152692920a729a0a1aa24a7a760b11b606082015260800190565b60008160001904831182151516156127a2576127a26126d9565b500290565b600181811c908216806127bb57607f821691505b602082108114156127dc57634e487b7160e01b600052602260045260246000fd5b50919050565b6020808252818101527f4f776e61626c653a2063616c6c6572206973206e6f7420746865206f776e6572604082015260600190565b600060001982141561282b5761282b6126d9565b5060010190565b634e487b7160e01b600052601260045260246000fd5b60008261285757612857612832565b500490565b60208082526033908201527f455243373231413a207472616e7366657220746f206e6f6e204552433732315260408201527232b1b2b4bb32b91034b6b83632b6b2b73a32b960691b606082015260800190565b600083516128c18184602088016123c2565b8351908301906128d58183602088016123c2565b01949350505050565b60006001600160801b03838116908316818110156128fe576128fe6126d9565b039392505050565b60006001600160801b038083168185168083038211156128d5576128d56126d9565b60008282101561293a5761293a6126d9565b500390565b60008161294e5761294e6126d9565b506000190190565b6001600160a01b0385811682528416602082015260408101839052608060608201819052600090612989908301846123ee565b9695505050505050565b6000602082840312156129a557600080fd5b81516115ba81612310565b6000826129bf576129bf612832565b500690565b634e487b7160e01b600052603260045260246000fdfea2646970667358221220541262bf9bf99f35a27296163cbef7b623dcfef014a74c2e6a4f5dd32d07b2e364736f6c634300080b0033",
  "immutableReferences": {
    "1426": [
      {
        "length": 32,
        "start": 7008
      },
      {
        "length": 32,
        "start": 7050
      },
      {
        "length": 32,
        "start": 8118
      }
    ]
  },
  "source": "// SPDX-License-Identifier: MIT\npragma solidity ^0.8.11;\n\nimport \"@openzeppelin/contracts/utils/cryptography/MerkleProof.sol\";\nimport \"@openzeppelin/contracts/security/ReentrancyGuard.sol\";\nimport \"@openzeppelin/contracts/access/Ownable.sol\";\nimport \"./ERC721A.sol\";\n\ncontract AlphaTest is Ownable, ERC721A, ReentrancyGuard {\n    using MerkleProof for bytes32[];\n\n    uint256 public constant MAX_SUPPLY = 8888;\n    uint256 public constant PUBLIC_MINT_LIMIT = 3;\n    uint256 public constant PRESALE_MINT_LIMIT = 2;\n\n    uint256 public constant MINT_PRICE = 0.08 ether;\n\n    /// @dev Inactive = 0; Presale = 1; Public = 2\n    uint256 public saleFlag;\n\n    bytes32 public merkleRoot;\n    string public baseURI;\n    \n    mapping(address => uint256) private whitelistMints;\n\n    constructor() ERC721A(\"Alpha Test\", \"ALTE\", 35, MAX_SUPPLY) {}\n\n    function verifyProof(bytes32[] calldata _proof) internal view returns (bool) {\n        bytes32 leaf = keccak256(abi.encodePacked(msg.sender));\n        return _proof.verify(merkleRoot, leaf);\n    }\n\n    function setBaseURI(string calldata _base) external onlyOwner {\n        baseURI = _base;\n    }\n\n    function _baseURI() internal view virtual override returns (string memory) {\n        return baseURI;\n    }\n\n    function setSaleFlag(uint256 _flag) external onlyOwner {\n        saleFlag = _flag;\n    }\n\n    function setMerkleRoot(bytes32 _new) external onlyOwner {\n        merkleRoot = _new;\n    }\n\n    function mint(uint256 _quantity) external payable {\n        require(totalSupply() + _quantity <= MAX_SUPPLY, \"MINT_EXCEEDS_TOTAL_SUPPLY\");\n\n        require(saleFlag == 2, \"MINTING_PAUSED\");\n        require(_quantity > 0 && _quantity <= PUBLIC_MINT_LIMIT, \"MINT_EXCEEDS_LIMIT_ALLOWED_PER_TRANSACTION\");\n        require(MINT_PRICE * _quantity <= msg.value, \"AMOUNT_TOO_LOW\");\n        require(tx.origin == msg.sender, \"SENDER_IS_NOT_AN_EOA\");\n\n        _safeMint(msg.sender, _quantity);\n    }\n\n    function mintWhitelist(uint256 _quantity, bytes32[] calldata _proof) external payable {\n        require(totalSupply() + _quantity <= MAX_SUPPLY, \"MINT_EXCEEDS_TOTAL_SUPPLY\");\n\n        require(saleFlag == 1, \"MINTING_PAUSED\");\n        require(verifyProof(_proof), \"INVALID_MERKLE_PROOF\");\n        require(whitelistMints[msg.sender] + _quantity <= PRESALE_MINT_LIMIT, \"MINT_EXCEEDS_LIMIT_ALLOWED_FOR_WHITELIST\");\n        require(_quantity > 0 && _quantity <= PRESALE_MINT_LIMIT, \"MINT_EXCEEDS_LIMIT_ALLOWED_PER_TRANSACTION\");\n        require(MINT_PRICE * _quantity <= msg.value, \"AMOUNT_TOO_LOW\");\n\n        whitelistMints[msg.sender] += _quantity;\n\n        _safeMint(msg.sender, _quantity);\n    }\n\n    function mintOwner(uint256 _quantity, address _to) external onlyOwner {\n        require(totalSupply() + _quantity <= MAX_SUPPLY, \"MINT_EXCEEDS_TOTAL_SUPPLY\");\n\n        _safeMint(_to, _quantity);\n    }\n\n    /** @notice\n     * ALLOCATIONS:\n     *  - Community Multisig: 30% (Signers: Bitquence, sOwner1, sOwner2, sMark, sDev1, sDev2 / 4 of 5 signatures)\n     *  - Owners: 33.75%\n     *  - Marketing: 11.25%\n     *  - Developpers: 22.50%\n     *  - Artist: 2.5%\n     */\n    function withdraw() external onlyOwner nonReentrant {\n        uint256 balanceDividend = address(this).balance / 100000;\n\n        (bool sComm,) = address(0x217fAD637779D98966B77435c71982d1cc5E2F86).call{value: balanceDividend * 30000}(\"\");\n        (bool sOwner1,) = address(0x217fAD637779D98966B77435c71982d1cc5E2F86).call{value: balanceDividend * 16875}(\"\"); // done\n        (bool sOwner2,) = address(0x217fAD637779D98966B77435c71982d1cc5E2F86).call{value: balanceDividend * 16875}(\"\");\n        (bool sMark,) = address(0xe8D1FCB2C6C8b4A5c281fC2fBFe8E2fC0fDF8eCb).call{value: balanceDividend * 11250}(\"\");\n        (bool sDev1,) = address(0xe8D1FCB2C6C8b4A5c281fC2fBFe8E2fC0fDF8eCb).call{value: balanceDividend * 11250}(\"\"); // done\n        (bool sDev2,) = address(0x4A45c0D4e49CA18b8E206654544269cA8a73ab81).call{value: balanceDividend * 11250}(\"\"); // done\n        (bool sArt,) = address(0x4A45c0D4e49CA18b8E206654544269cA8a73ab81).call{value: balanceDividend * 2500}(\"\");\n    }\n}\n",
  "sourcePath": "/home/debian/contract/contracts/AlphaTest.sol",
  "compiler": {
    "name": "solc",
    "version": "0.8.11+commit.d7f03943.Emscripten.clang"
  },
  "schemaVersion": "3.4.4",
  "updatedAt": "2022-02-26T15:26:07.894Z",
  "networkType": "ethereum",
  "devdoc": {
    "kind": "dev",
    "methods": {
      "approve(address,uint256)": {
        "details": "See {IERC721-approve}."
      },
      "balanceOf(address)": {
        "details": "See {IERC721-balanceOf}."
      },
      "getApproved(uint256)": {
        "details": "See {IERC721-getApproved}."
      },
      "isApprovedForAll(address,address)": {
        "details": "See {IERC721-isApprovedForAll}."
      },
      "name()": {
        "details": "See {IERC721Metadata-name}."
      },
      "owner()": {
        "details": "Returns the address of the current owner."
      },
      "ownerOf(uint256)": {
        "details": "See {IERC721-ownerOf}."
      },
      "renounceOwnership()": {
        "details": "Leaves the contract without owner. It will not be possible to call `onlyOwner` functions anymore. Can only be called by the current owner. NOTE: Renouncing ownership will leave the contract without an owner, thereby removing any functionality that is only available to the owner."
      },
      "safeTransferFrom(address,address,uint256)": {
        "details": "See {IERC721-safeTransferFrom}."
      },
      "safeTransferFrom(address,address,uint256,bytes)": {
        "details": "See {IERC721-safeTransferFrom}."
      },
      "setApprovalForAll(address,bool)": {
        "details": "See {IERC721-setApprovalForAll}."
      },
      "supportsInterface(bytes4)": {
        "details": "See {IERC165-supportsInterface}."
      },
      "symbol()": {
        "details": "See {IERC721Metadata-symbol}."
      },
      "tokenByIndex(uint256)": {
        "details": "See {IERC721Enumerable-tokenByIndex}."
      },
      "tokenOfOwnerByIndex(address,uint256)": {
        "details": "See {IERC721Enumerable-tokenOfOwnerByIndex}. This read function is O(collectionSize). If calling from a separate contract, be sure to test gas first. It may also degrade with extremely large collection sizes (e.g >> 10000), test for your use case."
      },
      "tokenURI(uint256)": {
        "details": "See {IERC721Metadata-tokenURI}."
      },
      "totalSupply()": {
        "details": "See {IERC721Enumerable-totalSupply}."
      },
      "transferFrom(address,address,uint256)": {
        "details": "See {IERC721-transferFrom}."
      },
      "transferOwnership(address)": {
        "details": "Transfers ownership of the contract to a new account (`newOwner`). Can only be called by the current owner."
      }
    },
    "stateVariables": {
      "saleFlag": {
        "details": "Inactive = 0; Presale = 1; Public = 2"
      }
    },
    "version": 1
  },
  "userdoc": {
    "kind": "user",
    "methods": {
      "withdraw()": {
        "notice": "ALLOCATIONS:  - Community Multisig: 30% (Signers: Bitquence, sOwner1, sOwner2, sMark, sDev1, sDev2 / 4 of 5 signatures)  - Owners: 33.75%  - Marketing: 11.25%  - Developpers: 22.50%  - Artist: 2.5%"
      }
    },
    "version": 1
  }
}